:020000040000fa
:080000000002040000000000f2
:020000040000fa
:04000800a80200004a
:020000040000fa
:04000c00a802000046
:020000040000fa
:04001000a802000042
:020000040000fa
:04001400a80200003e
:020000040000fa
:04001800a80200003a
:020000040000fa
:04001c00a802000036
:020000040000fa
:04002000a802000032
:020000040000fa
:04002400a80200002e
:020000040000fa
:04002800a80200002a
:020000040000fa
:04002c00a802000026
:020000040000fa
:04003000a802000022
:020000040000fa
:04003400ca160000e8
:020000040000fa
:04003800a80200001a
:020000040000fa
:04003c00a802000016
:020000040000fa
:04004000a802000012
:020000040000fa
:04004400fc180000a4
:020000040000fa
:04004800f6190000a5
:020000040000fa
:04004c00a802000006
:020000040000fa
:04005000a802000002
:020000040000fa
:04005400184100004f
:020000040000fa
:040058005c42000006
:020000040000fa
:04005c00a8020000f6
:020000040000fa
:04006000a8020000f2
:020000040000fa
:04006400a8020000ee
:020000040000fa
:04006800a8020000ea
:020000040000fa
:04006c00a8020000e6
:020000040000fa
:04007000a8020000e2
:020000040000fa
:04007400a8020000de
:020000040000fa
:04007800a8020000da
:020000040000fa
:04007c00a8020000d6
:020000040000fa
:04008000a8020000d2
:020000040000fa
:04008400a8020000ce
:020000040000fa
:04008800a8020000ca
:020000040000fa
:04008c00a8020000c6
:020000040000fa
:04009000a8020000c2
:020000040000fa
:040094006e1b0000df
:020000040000fa
:04009800a8020000ba
:020000040000fa
:04009c00a8020000b6
:020000040000fa
:0400a000f644000022
:020000040000fa
:0400a40050430000c5
:020000040000fa
:0400a800a8020000aa
:020000040000fa
:0400ac00a8020000a6
:020000040000fa
:0400b000a8020000a2
:020000040000fa
:0400b400a80200009e
:020000040000fa
:0400b800a80200009a
:020000040000fa
:0400bc00a802000096
:020000040000fa
:0400c000a802000092
:020000040000fa
:0400c400a80200008e
:020000040000fa
:0400c800a80200008a
:020000040000fa
:0400cc00a802000086
:020000040000fa
:0400d000a802000082
:020000040000fa
:0400d400a80200007e
:020000040000fa
:0400d800a80200007a
:020000040000fa
:0400dc00a802000076
:020000040000fa
:0400e000a802000072
:020000040000fa
:0400e400a80200006e
:020000040000fa
:0400e800a80200006a
:020000040000fa
:0400ec00a802000066
:020000040000fa
:0400f000a802000062
:020000040000fa
:0400f400a80200005e
:020000040000fa
:0400f800a80200005a
:020000040000fa
:0400fc00a802000056
:020000040000fa
:04010000a802000051
:020000040000fa
:04010400a80200004d
:020000040000fa
:04010800a802000049
:020000040000fa
:04010c00a802000045
:020000040000fa
:04011000fa240000cd
:020000040000fa
:04011400a80200003d
:020000040000fa
:04011800a802000039
:020000040000fa
:04011c00a802000035
:020000040000fa
:04012000a802000031
:020000040000fa
:04012400a80200002d
:020000040000fa
:04012800a802000029
:020000040000fa
:04012c00a802000025
:020000040000fa
:04013000a802000021
:020000040000fa
:04013400a80200001d
:020000040000fa
:04013800a802000019
:020000040000fa
:04013c00a802000015
:020000040000fa
:04014000a802000011
:020000040000fa
:04014400a80200000d
:020000040000fa
:04014800a802000009
:020000040000fa
:04014c00a802000005
:020000040000fa
:04015000a802000001
:020000040000fa
:04015400542500002e
:020000040000fa
:04015800a8020000f9
:020000040000fa
:04015c00a8020000f5
:020000040000fa
:04016000a8020000f1
:020000040000fa
:04016400a8020000ed
:020000040000fa
:04020800a802000048
:020000040000fa
:04020c00a802000044
:020000040000fa
:04021000a802000040
:020000040000fa
:04021400a80200003c
:020000040000fa
:04021800a802000038
:020000040000fa
:04021c00a802000034
:020000040000fa
:04022000a802000030
:020000040000fa
:04022400a80200002c
:020000040000fa
:04022800a802000028
:020000040000fa
:04022c00a802000024
:020000040000fa
:04023000a802000020
:020000040000fa
:04023400a80200001c
:020000040000fa
:04023800a802000018
:020000040000fa
:04023c00a802000014
:020000040000fa
:04024000a802000010
:020000040000fa
:04024400a80200000c
:020000040000fa
:04024800a802000008
:020000040000fa
:04024c00a802000004
:020000040000fa
:04025000a802000000
:020000040000fa
:04025400a8020000fc
:020000040000fa
:04025800a8020000f8
:020000040000fa
:04025c00a8020000f4
:020000040000fa
:04026000a8020000f0
:020000040000fa
:04026400a8020000ec
:020000040000fa
:04026800a8020000e8
:020000040000fa
:04026c00a8020000e4
:020000040000fa
:04027000a8020000e0
:020000040000fa
:04027400a8020000dc
:020000040000fa
:04027800a8020000d8
:020000040000fa
:04027c00a8020000d4
:020000040000fa
:04028000a8020000d0
:020000040000fa
:04028400a8020000cc
:020000040000fa
:04028800a8020000c8
:020000040000fa
:04028c00a8020000c4
:020000040000fa
:04029000a8020000c0
:020000040000fa
:04029400a8020000bc
:020000040000fa
:04029800a8020000b8
:020000040000fa
:04029c00a8020000b4
:020000040000fa
:0402a000a8020000b0
:020000040000fa
:0402a400a8020000ac
:020000040000fa
:0402a800a8020000a8
:020000040000fa
:0402ac00a8020000a4
:020000040000fa
:0402b000a8020000a0
:020000040000fa
:0402b400a80200009c
:020000040000fa
:0402b800a802000098
:020000040000fa
:0402bc00a802000094
:020000040000fa
:0402c000a802000090
:020000040000fa
:0402c400a80200008c
:020000040000fa
:0402c800a802000088
:020000040000fa
:0402cc00a802000084
:020000040000fa
:0402d000a802000080
:020000040000fa
:0402d400a80200007c
:020000040000fa
:0402d800a802000078
:020000040000fa
:0402dc00a802000074
:020000040000fa
:0402e000a802000070
:020000040000fa
:0402e400a80200006c
:020000040000fa
:0402e800a802000068
:020000040000fa
:0402ec00a802000064
:020000040000fa
:0402f000a802000060
:020000040000fa
:0402f400a80200005c
:020000040000fa
:0402f800a802000058
:020000040000fa
:0402fc00a802000054
:020000040000fa
:04030000a80200004f
:020000040000fa
:04030400a80200004b
:020000040000fa
:04030800a802000047
:020000040000fa
:04030c00a802000043
:020000040000fa
:04031000a80200003f
:020000040000fa
:04031400a80200003b
:020000040000fa
:04031800a802000037
:020000040000fa
:04031c00a802000033
:020000040000fa
:04032000a80200002f
:020000040000fa
:04032400a80200002b
:020000040000fa
:04032800a802000027
:020000040000fa
:04032c00a802000023
:020000040000fa
:04033000a80200001f
:020000040000fa
:04033400a80200001b
:020000040000fa
:04033800a802000017
:020000040000fa
:04033c00a802000013
:020000040000fa
:04034000a80200000f
:020000040000fa
:04034400a80200000b
:020000040000fa
:04034800a802000007
:020000040000fa
:04034c00a802000003
:020000040000fa
:04035000a8020000ff
:020000040000fa
:04035400a8020000fb
:020000040000fa
:04035800a8020000f7
:020000040000fa
:04035c00a8020000f3
:020000040000fa
:04036000a8020000ef
:020000040000fa
:04036400a8020000eb
:020000040000fa
:100400000f0a21000e7f24000e018800000000006a
:10041000000020000000e000020032000001200087
:10042000200288000c000700003c2400010020008e
:1004300011000700000020000000e0000200320070
:100440000000020000000000502002000000000038
:100450000040da000000fe004440a9000000200037
:100460000000e0000300320000002000a00188002e
:100470004440a80000000600910188008000780038
:100480000000eb0015003700e280400032a0b4000d
:100490009101ba00e280400032a0b4009102ba009b
:1004a000e280400032a0b4000002eb00472bde00e7
:1004b000f507b200602ce10004003a000059eb009f
:1004c0008301e900fdff3e00040037006128e100e0
:1004d000010032000082eb000b00070011c3ba00dc
:1004e0001101ba000604e00003003a000200e00037
:1004f000e5ff3a0000000600f607b200960188000a
:1005000082007800f5ff37003159ba008301e90015
:100510000c0032002159ba008301e90008003200c2
:100520000400e00003003a00e280400032a0b40082
:10053000f5ff370011d9ba008301e900faff3a004c
:100540008100e800e180400032a0b4000000060015
:100550000040da000000fe0003f0a200889fbe0009
:100560008a9fbe008c1f78009f010700a601330000
:100570006450e1004f0032006420e100520032007c
:1005800003826c0007003b000905d0000306d00081
:10059000820f54000c065d00020039000200320098
:1005a00089017800030678008582550004003d002b
:1005b0000003fd008103fd008502ea008b854200f7
:1005c000840f720002003b0060001000e080180001
:1005d0006011b8000005eb007a28e1000a0039003c
:1005e00006007800c75ddd00f707b2008780750060
:1005f0002d003700828171000a01780061056000da
:100600008180d1000080d3008502e900f9ff3b0022
:10061000060440008784480002003b006004140088
:10062000e0841c000988a300070032008a81710061
:1006300082817100610164008904d1000884d300c3
:100640008b05e800170037000978a30013003a0073
:100650000b00e000130034008b05e900080444009f
:1006600089844c000a4474000978a3000d003a0004
:100670000b00e000070034008b05e900080444008b
:1006800089844c0001003a000b0020000978a30087
:10069000f7ff32000001eb00020037008281710099
:1006a0000a017800150107000cf0a70001f0a00076
:1006b0005e0137006420e10002003a00838f6c0085
:1006c0005e0133000801be000200be005701370082
:1006d000889fbe008a9fbe008c1f780042010700e1
:1006e0001002200002003b00004b8800460137004a
:1006f0008a0062006408e10002003a00004b8800b2
:100700004e0137006108e100fcff32000800be0026
:10071000030478007200070001f0a100090007003f
:1007200008f0a600040037000001be009104240078
:10073000b0fd200088ff070009f0a70001f0a2002b
:100740003a013700889fbe008a9fbe008c9fbe0082
:100750000004be000f0107000800be0089067800f3
:100760006420e10008003900040032000160a000ac
:1007700012022000024b88005300370091fc230036
:10078000b0fd20004e0037000006eb0009f0a1008c
:1007900003f82300020020000800be0092000700ba
:1007a0000600340001f82300000020000801be000c
:1007b0004b0007000004be002c0020000800be0013
:1007c00093e82300320a2300870007001200340058
:1007d0000801be00d1fd2300703d2b005fff070024
:1007e0000005be00b3f32300f27a26000800be0025
:1007f0001501070003f823000200200056ff070040
:100800000801be0055ff07000a01be0034000700c2
:100810000004be000c06e8000800be0001f0a100c4
:1008200002002000039823006f0007000800be00ac
:10083000160035000801be00030107000005be00d8
:1008400032cd2c0043fb230044ff0700809fbe00f5
:100850001269280003d52b000a00be00fa00070029
:10086000620f210013ef2b003cff07000a01be00be
:10087000f50007004f01be00190007000801be0087
:10088000f10007000801be0034ff07000c00e00083
:100890000b0032000c10a70001f0a200b2fd2000f6
:1008a00093fc23006260e1000400320022a92000d2
:1008b00063f023000c10a70063f8230027ff070054
:1008c0000df0a70001f0a2004f06be004f05be00cc
:1008d0004f04be00000006000081eb000e0137004f
:1008e000889fbe008a9fbe008c1f7800be00070054
:1008f000c500330003866c006450e1002e00320016
:100900006420e100330032006150e1002f0032002a
:100910006120e1003100320085855500eb07b00011
:1009200009002000080420000500370008044400e6
:1009300089844c000a0031000603430087834b0082
:100940000001530081815b00f8ff33000203be0009
:100950000800a0000804440089844c00f6ff390018
:10096000c639dd008301730001003200130020004e
:100970008904d1000884d3000998a300050032003f
:100980000800a7000300a0008904d1000884d30058
:100990008b05e8008904d1000884d3000001eb0036
:1009a0000281d2005500070001f0a1000cf0a70061
:1009b00001f0a0009d0037006420e1009f0032009c
:1009c0000801be000200be00f7ff37006120e10011
:1009d0009a0032006000b800f3ff370000002000ea
:1009e00001f82700f0ff3700140020006a013700eb
:1009f000f4ff2f00680137000001be00650007000a
:100a00000470a70003f0a1006509b10016003200d0
:100a10000d0035006828e10006003500f0ff2f00ca
:100a2000f1ff27000300e00013003b000100280055
:100a30000000050000004000818048008502e900b8
:100a4000fcff3a0008003700f88f420002003c002b
:100a50008000eb00000005008100d1000080d30081
:100a60008502e800fcff3a000300e00002003b00c2
:100a700060001000e0801800000006000001be00c9
:100a8000440007000470a70003f0a10003f8a300ce
:100a900013003a006509b10010003200090035006a
:100aa0006928e1000200350001002800000005006f
:100ab00000004000818048008502e900fcff3a0008
:100ac00000000600f88f4200050035008100d100cb
:100ad0000080d3008502e800fcff3a000000060019
:100ae0008000eb00000005004f89de0082017800e5
:100af000440137006011b800520137008100200026
:100b0000618055000b003d000b00200061fe2f00ae
:100b10000100e1001d003400828171006101640068
:100b20008904d1000884d3000000e800faff3a00ed
:100b3000710020006100640003007000020060008a
:100b40000900320061044400e0844c000988a500db
:100b5000050032008b05e8006808e10002003a0059
:100b60008904d1000884d300f20f20000258e1006c
:100b700005003d00c75ddd00f907b2008980750002
:100b800008007800000006000bf827008b007800b2
:100b900000000500c70ade00f107b200f50fb20041
:100ba00008003200e1cf4200020032000170a000d4
:100bb00024000500810f70000100320004080500c8
:100bc00044000500810f700002003a001400050087
:100bd0008502e9000000400081c04800fcff3b00a6
:100be0000170a000240005000004be00e9ff07001a
:100bf0000003be000405be000200be00e5ff0700c2
:100c0000844f7500000006000200be006450e10041
:100c1000050036006420e100020036000968a300e8
:100c200001003a000800be000160a0004f067800f5
:100c30004f05be004f04be0000000600f0ff2f006d
:100c4000f1ff2700f9ff3700889fbe008a9fbe0092
:100c50008c1f7800e4ff0700ebff330003866c0075
:100c60006450e100240032006420e10027003200db
:100c70006150e100220032006120e10021003200d9
:100c80008b854200eb07b1000134b800003ab80090
:100c90000804420089844a00013ab8000030b800d4
:100ca0008880400009014a00040033000000400031
:100cb00081804800020149008b05e900c909dd0077
:100cc000830170000100320013002000c814de0010
:100cd0004814dd004709de001200b200c808de003b
:100ce0000884700085ff070001f0a1000cf0a70048
:100cf00001f0a000cdff37006120e100cfff3200fe
:100d00000801be000200be00f7ff37006150e1009d
:100d1000fcff3a00c9ff3700889fbe008a9fbe00d3
:100d20008c9fbe00820578000004be0099ff07007a
:100d30000800be006420e1000700390002003a000c
:100d4000f1ff2700f0ff2f000160a0001202200039
:100d5000024b8800550037006120e10003003a0093
:100d60000b00a70001f823005000370001f0a1009c
:100d700002002100936424001bff07000800be004e
:100d800004003500b2fd2000930c2400dc000700b5
:100d90000004be000005eb000b00a6004f0dde00b6
:100da00001f0a1000004be0032982f0023ea2300c6
:100db000a5ff07000001eb0003f023000b00a700d4
:100dc00003f82300e5fd07000bff07000000a70064
:100dd0000a00a20044ff07000b00e00003003200fd
:100de0000200200003f02300dbfd070001f0a20059
:100df0000006be00020020009304240092ff0700ba
:100e00000801be00d5fd0700809fbe000c00be009b
:100e100022a22a00d3a723008bff07004f01be00a8
:100e2000cefd07000004be0001f0a100020020007a
:100e300003982300ecfe07000800be0019003500ef
:100e40000001be0080ff07000006be00b2c52900f9
:100e5000e36223007cff070022222b00f3942b0087
:100e6000befd07000c01be0077ff0700e2732800fb
:100e700083c02300b9fd07000c01be0072ff07000c
:100e800042aa2a00a3e22b00b4fd07000c01be0019
:100e90006dff07000801be006bff07000801be00e0
:100ea000aefd07000a00a70001f0a2004f06be0039
:100eb0004f05be004f04be00000006000001eb001d
:100ec00095ff3700889fbe008a9fbe008c1f780068
:100ed0000004be002fff07000478a30026003a009c
:100ee0006120e1002500320009f8a30025003a0046
:100ef0006420e10021003200f507b1000508a300dd
:100f00000200320000004000818048006044b800c8
:100f100003102000020020000000400081804800f3
:100f20000805440089854c000a0541008b8549006d
:100f30000a0550008b855800030033000a00be00ec
:100f400002047400838474008301d1000281d30001
:100f5000830f7100f0ff3a008904d1000884d300a8
:100f60006001490082017800c1adde00fb07b000de
:100f7000e2fe07002dff37000960a0000800be0058
:100f80002aff370012022000024b8800f0ff2f00da
:100f9000f1ff270025ff3700889fbe008a9fbe0013
:100fa000841f780010ff07004f0078001100330005
:100fb000f0ff2f00838f6c0006003b0004056500e6
:100fc0000a00a7000800370009f0a6001000200062
:100fd00008003700820f5400838f5c000300390043
:100fe0001000200001003e000000200009f0a700d2
:100ff0000000ea004f05be004f04be000000e00004
:1010000000000600881f7800030478000300e00059
:1010100007003d0060001000e0801800600119002a
:10102000e081190002003b0001f02d0003003700b1
:101030000400070008f0a70001f0a0004f047800aa
:1010400000000600889fbe008a9fbe0000827000dc
:101050000402710004827100260032000004be0008
:101060000200be006011b8006b092000950220004c
:101070000182cf000a0039000541b1000082cf0093
:10108000070039000541b1000982cf000400390092
:101090000541b1000882cf00010039000541b100cf
:1010a00005425200120032000a003b0082817100aa
:1010b000610164008100d1000080d3008984d300e5
:1010c0000884d3008b05e8000442e800f7ff3a00eb
:1010d000070037000804440089844c0000004800e1
:1010e000818048008b05e9000442e900f9ff3a00dd
:1010f00082fe07004f05be004f04be000000060040
:101100000400200000003700889fbe008a9fbe00b8
:101110008c1f78004f26dd00b3fe0700bafe3300b7
:101120006120e100430032006250e10041003e00d6
:101130003e0039006420e1003c0032000582550089
:101140000f003b000402e80038003a00800f530013
:10115000818f5b00350034000800be0003f0a10061
:1011600001f0a60003f0a0000cf0a700fbfc0700b4
:10117000aefe37000603430087834b000c46460053
:101180000005530081855b00020033000a03be00a6
:101190000c00a0000402e900f6ff3b008505780082
:1011a0000602430087824b0004003a006000b8004a
:1011b00009f0a70001f0a0009cfe370000025200d9
:1011c00081825a000704e000040033000603430054
:1011d00087834b008b05e900faff3700090578008b
:1011e0000604be000203be006011b80043fe070003
:1011f000e00f5200e08f5a000700350002003c006b
:101200000c08a300040032000601be0003f0a00099
:101210000cf0a700d1fc07000a85680001f0a100ce
:101220000af0a70001f0a00080fe37000800be0011
:101230007efe3700100220000cf0a600004b880054
:041240007efe3700f7
:020000040000fa
:101244002800fa00889fbe008a9fbe008c9fbe00c3
:10125400804080000000e8008040880078828000a0
:101264008982800020828000cf80de001dfe07007e
:101274000001be000800be00b6fc07000001be006d
:1012840070fe07000004be009a828000ab828000da
:1012940030828000cf80de0012fe07000001be0015
:1012a4000a00be00abfc07000001be0065fe07009b
:1012b4000001be000800be00a7fc070000ff0700f5
:1012c400000f9800110f980030828000cf80de005c
:1012d40004fe07000002be0090828000a18280000c
:1012e4000001be000400be009afc07000004be001a
:1012f40020828000cf80de00fafd07000002be00dd
:1013040070828000818280000001be000400be0063
:1013140090fc07000801be00ecfc070001f0a200ed
:10132400200f9800310f9800f08280000183800024
:101334000001be002e089000be08900085fc070046
:1013440064fd07000e0990009e0990003dfe070011
:10135400f040880001418800f04080000141800095
:1013640018c0b30002002000032724009dfd0700dd
:101374000000e000010035000044eb000804e00038
:101384002200320018c0b30002002000832424008d
:101394000e0890009e08900092fd07000000e000f7
:1013a400010035000044eb000804e000170032009f
:1013b400f04080000141800018c0b300020020000a
:1013c40003272c0089fd07000000e00001003c0019
:1013d4000044eb000804e0000c00320018c0b30025
:1013e4000200200083242c000e0890009e08900028
:1013f4007efd07000000e00001003c000044eb001b
:101404000804e000010032005f69a800f040800099
:101414000141800018c0b30002002000031a240018
:1014240070fd07000000e000010035000044eb00ff
:101434000804e0002200320018c0b30002002000bb
:10144400832424000e0890009e08900065fd070088
:101454000000e000010035000044eb000804e00057
:1014640017003200f04080000141800018c0b30032
:1014740002002000031a2c005cfd07000000e000bd
:1014840001003c000044eb000804e0000c003200c2
:1014940018c0b3000200200083242c000e08900022
:1014a4009e08900051fd07000000e00001003c0090
:1014b4000044eb000804e000010032005f89a8004a
:1014c4001a8480002b848000108480002184800092
:1014d4000004be0009f0a200b4838000c58380002c
:1014e400f0408000014180000001be000400be0005
:1014f400d4fd07000a02be000801be00bd180700a3
:10150400400f9800510f9800f08280000183800002
:101514000001be002e089000be0890000dfc0700dc
:1015240040079800510798004e009000de0090009c
:10153400621807004007980051079800a0838000b4
:10154400610060000000e00005003a004e009000d9
:10155400de009000801807004007980051079800ab
:101564004e009000de009000c8180700d0408800ac
:10157400e1408800fa8380000b848000f0838000bf
:10158400018480000004be0009f0a200dc83800016
:10159400ed8380004e009000de009000d11807001b
:1015a4000001be000c00be00a6fd07000a02be003a
:1015b4000801be008f180700600f9800710f980093
:1015c4006000b800b0408800c14088006e089000f8
:1015d400fe089000410207000017980011179800b8
:1015e4000e1190009e1190006240880073408800a4
:1015f4006240800073408000028fbe006040800023
:101604007140800001f0a200200798003107980083
:101614006000b8006007980071079800d04080000f
:10162400e140800018c0b300020020000308240039
:10163400ecfc07000000e000010035000044eb0072
:101644000804e00015003200d0408000e140800032
:1016540018c0b3000200200003082c00e3fc0700bc
:101664000000e00001003c000044eb000804e0003e
:101674000a003200d0408000e1408000c11707001a
:101684000001be000000200001082400b1fb070097
:1016940060079800710798000400370000002000dc
:1016a40001082400600798007107980002002000d8
:1016b400030824006e009000fe00900087fc0700e1
:1016c4002017980031179800d0408000e140800036
:1016d40018c0b3000200200003082400c1fc070066
:1016e4000000e000010035000044eb000804e000c5
:1016f40028003200d0408000e140800018c0b300d0
:101704000200200003082c00b8fc07000000e000e1
:1017140001003c000044eb000804e0001d0032001e
:101724004e089000de089000b1020700b040880027
:10173400c1408800b0408000c14080002040880043
:101744003140880020408000314080002e119000fc
:10175400be1190003bfd07000001be001e00be004c
:101764007dfb0700008fbe002040800031408000d8
:101774002e119000be11900032fd07000001be0042
:101784002e009000be00900073fb07002007980015
:10179400310798001e00be0096fc07000000780088
:1017a400704388002e009000be00900091fc07005a
:1017b40000007800804388005e69a800e08620006d
:1017c4004f06be004f05be004f04be000080fa0065
:1017d400000006001800fa00889fbe008a9fbe0021
:1017e4008c9fbe00804080000000e800804088009c
:1017f4004282800053828000028fbe00f08280000b
:10180400018380000001be001e00be0051fb0700e2
:1018140020079800310798002e009000be00900029
:10182400a617070020079800310798002e009000a3
:10183400be00900015180700d0408800e1408800e1
:10184400fa8380000b848000f08380000184800090
:101854000004be0009f0a200dc838000ed83800058
:101864002e009000be0090001e1807000001be006c
:101874000c00be00f3fc07000a02be000801be0013
:10188400dc1707004007980051079800d0408000fb
:10189400e140800018c0b3000200200003002400cf
:1018a40050fc07000000e000010035000044eb009c
:1018b4000804e0000c003200d0408000e1408000c9
:1018c40018c0b3000200200003002c0047fc0700ee
:1018d4000000e00001003c000044eb000804e000cc
:1018e400010032005f89a8006000b800b0408800a1
:1018f400c14088004e009000de0090007701070090
:1019040060079800710798006e019000fe01900036
:101914006240880073408800624080007340800009
:10192400020f9800130f98006040800071408000ff
:1019340001f0a200200f9800310f98000e089000cb
:101944009e0890002bfc070000007800504388009c
:101954002e089000be08900026fc070000007800c6
:10196400604388005e89a800a08620004f06be0060
:101974004f05be004f04be000080fa0000000600c0
:101984000a00fa000000eb00000f78008048800095
:10199400914880004808de00804078000e80e8000e
:1019a4001e004000014878001e0fe80080488000b7
:1019b400914880004008de00804078000e80e800f6
:1019c4001e004000014878001e0fe8008048800097
:1019d400914880004809dd004800de0000007100e5
:1019e400c808de00804078000e80e8001e00400039
:1019f400014878001e0fe80080488000914880006c
:101a0400804078000e80e8001e0040000148780005
:101a14001e0fe800d0408000e1408000f5fb070085
:101a2400000078004880de00804078000e80e800e6
:101a34001e004000014878001e0fe800d0408000de
:101a4400e1408000ebfb0700000078008040780054
:101a54000e80e8001e004000014878001e0fe800d8
:101a6400f040800001418000e2fb070000007800a4
:101a74004880de00804078000e80e8001e004000b0
:101a8400014878001e0fe800f0408000014180000a
:101a9400d8fb070000007800804078000e80e80042
:101aa4001e004000014878001e0fe800b04080008e
:101ab400c1408000cffb0700000078004880de00b2
:101ac400804078000e80e8001e0040000148780045
:101ad4001e0fe800b0408000c1408000c5fb070035
:101ae40000007800804078000e80e8001e0040006e
:101af400014878001e0fe80090408000a14080005b
:101b0400bcfb0700000078004880de0080407800bd
:101b14000e80e8001e004000014878001e0fe80017
:101b240090408000a1408000b2fb070000007800d4
:101b3400804078000e80e8001e00400001487800d4
:101b44001e0fe8000e80e800000178009e00780077
:101b5400100a2000ce0d07000080fa0000000600e5
:101b64001c00fa00889fbe00200f9800310f9800d7
:101b7400420f9800530f9800d2cc2c00c3e42300ea
:101b84002e089000be0890002efc0700008fbe00b7
:101b94000200200003f023004e089000de089000ad
:101ba40028fc07002007980031079800325c2f00ba
:101bb40083ea23004e089000de08900021fc070011
:101bc40040079800510798002e019000be01900034
:101bd4001e00be0041fb07006007980071079800d3
:101be4004e019000de0190001e00be0015fc0700af
:101bf400000f9800110f9800b04a8000c14a80007d
:101c04006e019000fe0190000efc07001e01be0054
:101c140051fa07000004be00b04a8000c14a8000a7
:101c24000001be000e0890009e0890002bfb0700e8
:101c34000001be000800be0047fa07009042880079
:101c4400a14288001e00be000004be0009f0a200ec
:101c54000e0890009e0890000001be003efa0700a6
:101c64000002be00b04a8000c14a80000001be00ec
:101c74000400be0019fb07000001be000800be00fe
:101c840034fa0700b0428800c1428800b04a80009c
:101c9400c14a80000001be000e0890009e0890001a
:101ca4000efb0700d0428800e14288004f04be00ca
:101cb4000080fa00000006001c00fa00889fbe00a5
:101cc400200f9800310f9800420f9800530f98008e
:101cd4002e099000be099000028fbe004e099000ac
:101ce400de09900022079800330798006000b800ce
:101cf40040079800510798002e019000be01900003
:101d04001e00be00f5fa07006007980071079800ee
:101d14004e019000de0190001e00be00c9fb0700ca
:101d2400000f9800110f9800b04a8000c14a80004b
:101d34006e019000fe019000c2fb07001e01be0070
:101d440005fa07000004be00b04a8000c14a8000c2
:101d54000001be000e0890009e089000dffa070004
:101d64000001be000800be00fbf907009042880095
:101d7400a14288001e00be000004be0009f0a200bb
:101d84000e0890009e0890000001be00f2f90700c2
:101d94000002be00b04a8000c14a80000001be00bb
:101da4000400be00cdfa07000001be000800be001a
:101db400e8f90700b0428800c1428800b04a8000b8
:101dc400c14a80000001be000e0890009e089000e9
:101dd400c2fa0700d0428800e14288004f04be00e6
:101de4000080fa00000006001000fa00889fbe0080
:101df40060079800710798006e019000fe01900042
:101e0400028fbe006000b8002007980031079800d8
:101e14006000b8004007980051079800b04a80005d
:101e2400c14a80002e019000be01900085fb07008e
:101e34001e01be00c8f907000004be00b04a8000bd
:101e4400c14a80000001be004e009000de009000f8
:101e5400a2fa07000001be000800be00bef9070098
:101e640090428800a14288001e00be000004be000b
:101e740009f0a2004e009000de0090000001be00b8
:101e8400b5f907000002be00b04a8000c14a8000d4
:101e94000001be000400be0090fa07000001be006d
:101ea4000800be00abf90700b0428800c1428800b8
:101eb400b04a8000c14a80000001be004e0090007c
:101ec400de00900085fa0700d0428800e1428800d5
:101ed4004f04be000080fa00000006000400fa006f
:101ee400889fbe00008fbe003041800041418000c9
:101ef40050418800614188001041800021418000e8
:101f040030418800414188001e01be001241880012
:101f14002341880070418000814180009041880005
:101f2400a141880014418000254180009042800036
:101f3400a14280000001be000400be0041fb070076
:101f44000002be0090418000a14180000001be005b
:101f54000400be0080f907000004be003441800084
:101f640045418000b0428000c14280000001be00b3
:101f74000400be0033fb07000001be000800be00e1
:101f840075f907000004be005441800065418000db
:101f9400d0428000e14280000001be000400be0087
:101fa40028fb07000001be000800be006af9070014
:101fb4007041880081418800704180008141800027
:101fc4004f04be000080fa00000006001000fa0072
:101fd400889fbe0060079800710798006e0190000a
:101fe400fe019000028fbe006000b8002007980038
:101ff400310798006000b800400798005107980026
:10200400b04a8000c14a80002e019000be019000b9
:102014000cfb07001e01be004ff907000004be00c0
:10202400b04a8000c14a80000001be004e0090000a
:10203400de00900029fa07000001be000800be007f
:1020440045f90700f0428800014388001e00be00e5
:102054000004be0009f0a2004e009000de009000d3
:102064000001be003cf907000002be00b04a800037
:10207400c14a80000001be000400be0017fa070038
:102084000001be000800be0032f9070010438800ba
:1020940021438800b04a8000c14a80000001be008c
:1020a4004e009000de0090000cfa070030438800d8
:1020b400414388004f04be000080fa00000006007f
:1020c4001c00fa00889fbe00200f9800310f980072
:1020d400420f9800530f98002e099000be099000fb
:1020e400028fbe004e099000de099000220798007e
:1020f400330798006000b800400798005107980023
:102104002e019000be0190001e00be00f3f90700ee
:1021140060079800710798004e019000de0190005e
:102124001e00be00c7fa0700000f9800110f9800a8
:10213400b04a8000c14a80006e019000fe01900008
:10214400c0fa07001e01be0003f907000004be0028
:10215400b04a8000c14a80000001be000e08900011
:102164009e089000ddf907000001be000800be00d3
:10217400f9f80700f0428800014388001e00be0001
:102184000004be0009f0a2000e0890009e08900012
:102194000001be00f0f807000002be00b04a800053
:1021a400c14a80000001be000400be00cbf9070054
:1021b4000001be000800be00e6f8070010438800d6
:1021c40021438800b04a8000c14a80000001be005b
:1021d4000e0890009e089000c0f907003043880064
:1021e400414388004f04be000080fa00000006004e
:1021f4000400fa00889fbe00008fbe00f0418000fa
:10220400014280001042880021428800d0418000b1
:10221400e1418000f0418800014288001e01be00b7
:10222400d2418800e341880030428000414280006e
:102234005042880061428800d4418000e54180001a
:10224400f0428000014380000001be000400be0093
:102254007cfa07000002be00504280006142800008
:102264000001be000400be00bbf807000004be006d
:10227400f441800005428000104380002143800027
:102284000001be000400be006efa07000001be009b
:102294000800be00b0f807000004be00144280002d
:1022a4002542800030438000414380000001be008d
:1022b4000400be0063fa07000001be000800be006f
:1022c400a5f807003042880041428800304280006f
:1022d400414280004f04be000080fa000000060066
:1022e4000000fa00e060200060498800800c2000b3
:1022f400704988000080fa00000006000000fa001f
:10230400200421009040780070c5b30080cf5000b5
:1023140002003a0010c0b300010037000040eb0097
:102324000080fa00000006000000fa00a00321006b
:1023340081c2b300014878002004210061c4b300c5
:10234400014878000080fa00000006000000fa004e
:1023540020042100104078000080fb006101b900d6
:10236400a0fb2f00f1ff2f000200400083804800f3
:102374005202200003002000820f5000838f580077
:1023840036023e00006001002500370037003700a8
:10239400b2003700bf003700d2003700dd0037003d
:1023a400f0003700fb003700280137003601370002
:1023b4004c013700570137006a0137007a013700b2
:1023c4008d013700970137002202370028023700b9
:1023d4002202370021023700810037008b003700ca
:1023e400000137000a013700340037003e0037008f
:1023f40051003700660037009e013700a7013700ff
:10240400b5013700be01370014023700130237004c
:10241400ca013700dc013700ef013700f90137004a
:10242400810c2000e0602000711a070020042100c4
:1024340071c4b3000148780080488000914880004e
:10244400e0818800f18188000000eb008a15070014
:102454000000eb00951507000000eb00cc15070009
:102464000000eb00d715070022023700f14a800074
:1024740000002100008060000000e0000b003a0032
:102484008248800093488000e0818000f1818000d0
:1024940000015100818159000071220001002000d7
:1024a400800f5100818f5900f30136002004210070
:1024b400e1c5b300014878000e023700211c20005a
:1024c400e06020004a1a070020042100f1c5b3008f
:1024d400014878008048800091488000e0818800ad
:1024e400f181880003023700f14a800000002100d6
:1024f400008060000000e0000b003a008248800089
:1025040093488000e0818000f18180000001510047
:10251400818159000071220001002000800f5100c8
:10252400818f5900d60136002004210001c6b30072
:1025340001487800ef013700804980000000e8007e
:1025440080498800c12b2000d0752000281a07007c
:102554000000eb00481507000000eb0053150700ce
:102564000000eb008a1507000000eb00951507003a
:102574002004210011c6b30001487800804880007f
:1025840091488000e0818800f1818800d9013700fa
:10259400f14a800000002100008060000000e0009b
:1025a4000b003a008248800093488000e08180005c
:1025b400f1818000000151008181590000712200e5
:1025c40001002000800f5100818f5900ae013600b8
:1025d40020042100a1c5b30001487800c5013700db
:1025e4006000b800191a07009b08070020042100a6
:1025f400b1c5b3000148780080488000914880004c
:10260400e0818800f1818800ba013700f14a800036
:1026140000002100008060000000e0000b003a0090
:102624008248800093488000e0818000f18180002e
:102634000001510081815900007d2000010020002b
:10264400800f5100818f5900910136002004210030
:1026540081c4b30001487800a6013700212120007d
:10266400d0752000e21907007b080700f005200060
:10267400011507002004210091c4b300014878002b
:102684008048800091488000e0818800f1818800c2
:1026940098013700f14a80000000210000806000aa
:1026a4000000e0000b003a0082488000934880005c
:1026b400e0818000f1818000000151008181590096
:1026c400007d200001002000800f5100818f5900ff
:1026d4007101360020042100a1c4b3000148780030
:1026e4008401370051372000e0742000c01907002e
:1026f4005908070020042100b1c4b3000148780040
:102704008048800091488000e0818800f181880041
:1027140078013700f14a8000000021000080600049
:102724000000e0000b003a008248800093488000db
:10273400e0818000f1818000000151008181590015
:1027440080bb200001002000800f5100818f5900c0
:102754005301360020042100c1c4b30001487800ad
:1027640064013700c12b2000d0752000a019070098
:102774003908070020042100d1c4b30001487800bf
:102784008048800091488000e0818800f1818800c1
:1027940058013700f14a80000000210000806000e9
:1027a4000000e0000b003a0082488000934880005b
:1027b400e0818000f1818000000151008181590095
:1027c40080bb200001002000800f5100818f590040
:1027d4003501360020042100c1c5b300014878004a
:1027e400440137001c08070020032000a21407003e
:1027f40020042100d1c5b30001487800804880003e
:1028040091488000e0818800f18188003901370017
:102814008248800093488000e0818000f18180003c
:102824000001510081815900401f20000100200057
:10283400800f5100818f59001d01360020042100b2
:10284400e1c4b300014878002a013700a083800066
:102854000000a000a0838800c12b2000406a200053
:1028640063190700fc07070020042100f1c4b3002a
:10287400014878008048800091488000e081880009
:10288400f18188001b013700f14a8000000021001b
:10289400008060000000e0000b003a0082488000e5
:1028a40093488000e0818000f181800000015100a4
:1028b4008181590080bb200001002000800f51005d
:1028c400818f5900fc0036002004210001c5b300ab
:1028d40001487800a08380000000a100a083880044
:1028e40004013700dc070700e1472000406a2000ac
:1028f4003f1907002004210011c5b30001487800e6
:102904008048800091488000e0818800f18188003f
:10291400f8003700f14a80000000210000806000c8
:102924000000e0000b003a008248800093488000d9
:10293400e0818000f1818000000151008181590013
:102944008038210001002000800f5100818f590040
:10295400db0036002004210021c5b30001487800c3
:10296400e4003700804980000000e9006600b900f7
:1029740080007800e074200000804000e1472000df
:102984001b190700b40707002004210031c5b30058
:10299400014878008048800091488000e0818800e8
:1029a400f1818800d3003700f14a80000000210043
:1029b400008060000000e0000b003a0082488000c4
:1029c40093488000e0818000f18180000001510083
:1029d4008181590080bb200001002000800f51003c
:1029e400818f5900b80036002004210041c5b3008e
:1029f40001487800bf003700970707006000b8005f
:102a0400121907002004210051c5b30001487800c1
:102a14008048800091488000e0818800f18188002e
:102a2400b4003700f14a80000000210000806000fb
:102a34000000e0000b003a008248800093488000c8
:102a4400e0818000f1818000000151008181590002
:102a540080bb200001002000800f5100818f5900ad
:102a64009b0036002004210021c6b30001487800f1
:102a7400a000370020032000ff13070020042100da
:102a840031c6b30001487800804880009148800036
:102a9400e0818800f1818800960037008248800038
:102aa40093488000e0818000f181800000015100a2
:102ab40081815900401f200001002000800f510037
:102ac400818f5900840036002004210041c6b300e0
:102ad4000148780087003700200320002c140700e9
:102ae4002004210051c6b3000148780080488000ca
:102af40091488000e0818800f18188007d003700e2
:102b04008248800093488000e0818000f181800049
:102b14000001510081815900401f20000100200064
:102b2400800f5100818f59006d0036002004210070
:102b340081c6b300014878006e0037000000eb0046
:102b4400cd1307000000eb00d81307000000eb00d2
:102b54000f1407000000eb001a140700e1472000df
:102b6400406a2000a21807002004210091c6b30087
:102b7400014878008048800091488000e081880006
:102b8400f18188005b003700f14a800000002100d9
:102b9400008060000000e0000b003a0082488000e2
:102ba40093488000e0818000f181800000015100a1
:102bb4008181590080bb200001002000800f51005a
:102bc400818f5900480036002004210001c6b3005b
:102bd4000148780047003700c12b2000406a2000dc
:102be400831807002004210091c6b300014878002f
:102bf4008048800091488000e0818800f18188004d
:102c04003c003700f14a8000000021000080600091
:102c14000000e0000b003a008248800093488000e6
:102c2400e0818000f1818000000151008181590020
:102c340080bb200001002000800f5100818f5900cb
:102c44002b0036002004210001c6b300014878009f
:102c54002800370000070700260037002004210061
:102c640061c5b3000148780000000000210037006e
:102c7400000000001f003700000000001d003700a6
:102c8400000000001b00370000000000190037009e
:102c94000000000017003700000000001500370096
:102ca400000000001300370000000000110037008e
:102cb400000000000f003700000000000d00370086
:102cc400000000000b00370000000000090037007e
:102cd4000000000007003700000000000500370076
:102ce400000000000300370000000000010037006e
:102cf400000000000080fa00000006000000fa0056
:102d040090168000620060000000e00003003a00ba
:102d1400f00520002c13070002003700f005200006
:102d24003f1307000080fa00000006000000fa00cc
:102d340090168000620060000000e00003003a008a
:102d44000000eb0020130700020037000000eb0036
:102d5400331307000080fa00000006000000fa00a8
:102d640005e1a90005a1a90004c1a9000421a90045
:102d74008460a9009460a80000002000a13724000a
:102d84003900070005e1a8000080fa0000000600f1
:102d94003600f800809fbe00829fbe00849fbe0064
:102da400869fbe000400fa008460a9004f07070054
:102db4000082800063006000e20f50000c003a00c3
:102dc4001ff90700000f78001e007800100078003b
:102dd4000040780011c0b300880207001e80e8009c
:102de400100078000040780021c0b300830207007f
:102df4000082800063006000e30f50000d003a0081
:102e040074fa0700100798001e0090001000780064
:102e14000040780011c0b300780207001e00900043
:102e24000080e800100078000040780021c0b30062
:102e34007202070010c0b3007b02070020c0b30079
:102e44007902070030c0b300770207000080fa005f
:102e54004f03be004f02be004f01be004f00be0034
:102e64003600f900004006000400fa00881f7800cc
:102e7400008fbe00200880000040a1000050a10087
:102e8400200888001e01be000068290081c12400ba
:102e940092f6070018c0b30002f02f00f377240065
:102ea400d2f607000000e00001003c000044eb0003
:102eb4000804e0004d003200200880000040a0001b
:102ec4000050a100200888001e01be0000682900ef
:102ed40081c1240081f607000200200003102400b1
:102ee4007ef6070018c0b30002f02f00f377240029
:102ef400bef607000000e00001003c000044eb00c7
:102f04000804e0002e003200200880000040a100e8
:102f14000050a000200888001e01be00006829009f
:102f240081c124006df6070002002000032824005c
:102f34006af6070018c0b30002f02f00f3772400ec
:102f4400aaf607000000e00001003c000044eb008a
:102f54000804e0000f003200200880000040a000b8
:102f64000050a000200888001e01be00006829004f
:102f740081c1240059f60700020020000338240010
:102f840056f607009bf6070000007800100888003a
:102f94001d0037001e01be000068290081c1240005
:102fa4004ef6070002002000032824004bf6070019
:102fb40090f607000000780010088800120037001f
:102fc4001e01be000068290081c1240043f60700e9
:102fd400020020000310240040f6070085f60700d5
:102fe4000000780010088800070037001e01be00aa
:102ff4000068290081c1240038f607007df6070027
:1030040000007800100888004f0478000080fa005f
:10301400000006000000fa0011e1a90011a1a900b6
:1030240010c1a9001021a9000000200001122400f1
:103034000500070084e0a90094e0a80011e1a800bd
:103044000080fa00000006000400fa00881f7800df
:10305400008fbe00800880000040a1000050a10045
:10306400800888001e01be000068290081c1240078
:103074001af6070018c0b30002f02f00f3772400fb
:103084005af607000000e00001003c000044eb0099
:103094000804e0004d003200800880000040a000d9
:1030a4000050a100800888001e01be0000682900ad
:1030b40081c1240009f60700020020000310240047
:1030c40006f6070018c0b30002f02f00f3772400bf
:1030d40046f607000000e00001003c000044eb005d
:1030e4000804e0002e003200800880000040a100a7
:1030f4000050a000800888001e01be00006829005e
:1031040081c12400f5f507000200200003282400f3
:10311400f2f5070018c0b30002f02f00f377240083
:1031240032f607000000e00001003c000044eb0020
:103134000804e0000f003200800880000040a00076
:103144000050a000800888001e01be00006829000d
:1031540081c12400e1f507000200200003382400a7
:10316400def5070023f607000000780060088800f9
:103174001d0037001e01be000068290081c1240023
:10318400d6f507000200200003282400d3f5070029
:1031940018f6070000007800600888001200370065
:1031a4001e01be000068290081c12400cbf5070080
:1031b4000200200003102400c8f507000df60700e4
:1031c4000000780060088800070037001e01be0078
:1031d4000068290081c12400c0f5070005f6070036
:1031e40000007800600888004f0478000080fa002e
:1031f400000006000000fa0084e0a9005ea9a8000f
:103204000080fa00004006000000fa0013e1a90063
:1032140013a1a90012c1a9001221a90000002400d1
:10322400c1612400050007008500a9009500a800dd
:1032340013e1a8000080fa00000006000400fa0070
:10324400881f7800008fbe00900880000040a10015
:103254000050a100900888001e01be0000682900eb
:1032640081c124009df5070018c0b30002f02f00af
:10327400f3772400ddf507000000e00001003c00c6
:103284000044eb000804e0004d0032009008800088
:103294000040a0000050a100900888001e01be005c
:1032a4000068290081c124008cf507000200200079
:1032b4000310240089f5070018c0b30002f02f00a2
:1032c400f3772400c9f507000000e00001003c008a
:1032d4000044eb000804e0002e0032009008800057
:1032e4000040a1000050a000900888001e01be000c
:1032f4000068290081c1240078f50700020020003d
:103304000328240075f5070018c0b30002f02f004d
:10331400f3772400b5f507000000e00001003c004d
:103324000044eb000804e0000f0032009008800025
:103334000040a0000050a000900888001e01be00bc
:103344000068290081c1240064f507000200200000
:103354000338240061f50700a6f507000000780093
:10336400700888001d0037001e01be000068290097
:1033740081c1240059f5070002002000032824001d
:1033840056f507009bf507000000780070088800d8
:10339400120037001e01be000068290081c124000c
:1033a4004ef5070002002000031024004bf507002f
:1033b40090f50700000078007008880007003700c7
:1033c4001e01be000068290081c1240043f50700e6
:1033d40088f5070000007800700888004f04780022
:1033e4000080fa00000006003600f800809fbe004e
:1033f400829fbe00849fbe00869fbe00881f780007
:103404000000fa008500a90041110700db0e070047
:1034140016c9bf000040e80016e9b70016c9bf008e
:10342400e94f50002c00360080488000914880000d
:1034340061004000e080480080488800914888008e
:10344400824880009348800000f925001100200084
:10345400800f5100818f59001e00360040c6b30012
:10346400dee8b700a00321008040eb0001487800ab
:103474000082800011c0b3000040eb00df000700b1
:1034840021c0b3000040eb00dc00070031c0b300f2
:103494000040eb00d900070090828000a1828000e8
:1034a40054f5070000047800708280008182800057
:1034b40050f5070000007800880078004c160700db
:1034c4008040eb000040eb007d160700e001200087
:1034d400991107001669ef000080fa004f04780084
:1034e4004f03be004f02be004f01be004f00be009e
:1034f4003600f900004006000000fa001fe1a900b0
:103504001fa1a9001ec1a9001e21a9008760a9004e
:103514009760a80000002000a147240003000700d2
:103524001fe1a8000080fa00000006000400fa0071
:10353400881f7800008fbe00f00880000040a100c2
:103544000050a100f00888001e01be000068290098
:1035540081c12400e1f4070018c0b30002f02f0079
:10356400f377240021f507000000e00001003c008f
:103574000044eb000804e0004d003200f008800035
:103584000040a0000050a100f00888001e01be0009
:103594000068290081c12400d0f407000200200043
:1035a40003102400cdf4070018c0b30002f02f006c
:1035b400f37724000df507000000e00001003c0053
:1035c4000044eb000804e0002e003200f008800004
:1035d4000040a1000050a000f00888001e01be00b9
:1035e4000068290081c12400bcf407000200200007
:1035f40003282400b9f4070018c0b30002f02f0018
:10360400f3772400f9f407000000e00001003c0017
:103614000044eb000804e0000f003200f0088000d2
:103624000040a0000050a000f00888001e01be0069
:103634000068290081c12400a8f4070002002000ca
:1036440003382400a5f40700eaf40700000078001a
:10365400d00888001d0037001e01be000068290044
:1036640081c124009df407000200200003282400e7
:103674009af40700dff4070000007800d0088800ff
:10368400120037001e01be000068290081c1240019
:1036940092f4070002002000031024008ff40700b6
:1036a400d4f4070000007800d00888000700370031
:1036b4001e01be000068290081c1240087f40700b0
:1036c400ccf4070000007800d00888004f0478008c
:1036d4000080fa00000006003600f800809fbe005b
:1036e400829fbe00849fbe00869fbe000000fa0039
:1036f4008760a90031030700a0032100104078006f
:103704000080fb00f40f50000f003200f40f500053
:1037140005003c000000e00012003200ea0f5000f7
:103724000700320010003700fe0f5000080032007e
:1037340081022000810f5000070032000a00370088
:103744007c0a07000800370011090700060037004b
:10375400cf0b070004003700fcfa0700000000004c
:1037640001003700000000000080fa004f03be0093
:103774004f02be004f01be004f00be003600f900ec
:10378400004006000000fa00000e80000000a100c6
:103794000010a100000e8800000e80000020a1008f
:1037a4000030a100000e8800000e80000040a1003f
:1037b4000050a1000060a1000070a100000e88006c
:1037c400803e2000200e8800c901a800c921a8005d
:1037d400c941a800ca41a800d521a800d501a80064
:1037e400d561a800d541a800d5a1a800d581a8001d
:1037f400c1e1a8000080fa00000006000200fa00ff
:10380400004f7800114798001e4090000000fb0014
:103814000000e900610821001e41780082707800f0
:103824000080fa00000006000e00fa00889fbe0027
:10383400404f98006000b800008fbe0000828000f6
:10384400630060000000e00010003a004e48900061
:103854000080fb000004e9004e4890000080fb005b
:103864000000e90061082100614078000000fb00cd
:10387400cf80de009bf40700c241dd00a2082100d6
:10388400028141000089be00500037004e4890007c
:103894000080fb00e20f500020003200e30f5000d4
:1038a4003a003200e10f500048003a004e489000c0
:1038b4000080fb000000e9006108210061407800fd
:1038c4000000fb00cf80de0086f407000004be0089
:1038d4003083800041838000020020000312240012
:1038e400fef307000001be000800be0019f3070044
:1038f400008fbe004e4890000080fb000004e900e9
:103904001e00be00aa0e0700c241dd00a20821006d
:10391400028141000089be002c0037004e4890000f
:103924000080fb000000e90061082100614078008c
:103934000000fb00cf80de006af407000004be0034
:103944005083800061838000020020000312240061
:10395400e2f307000001be000800be00fdf207000c
:10396400008fbe004e4890000080fb000004e90078
:103974001e00be00520e0700c241dd00a208210055
:10398400028141000089be00100037004e489000bb
:103994000080fb000004e9004e4890000080fb001a
:1039a4000000e90061082100614078000000fb008c
:1039b400cf80de004bf40700c241dd00a2082100e5
:1039c400028141000089be00000000004e489000c2
:1039d4000080fb000000e900c200dd00a008210017
:1039e400008040001000be0018c0b3000200200098
:1039f400832c2400fdf307000000e00001003c00dc
:103a04000044eb000804e000090032004e48900036
:103a14000080fb000000e900c200dd00a0082100d6
:103a24000081400000002000812c24000089be0099
:103a34004e4890000080fb000000e900c200dd0059
:103a4400a0082100008040001000be0018c0b30090
:103a540002002000832c2c00e2f307000000e000a9
:103a6400010035000044eb000804e00009003200c6
:103a74004e4890000080fb000000e900c200dd0019
:103a8400a00821000081400000002000812c2c00af
:103a94000089be004e4890000080fb000000e90051
:103aa400c200dd00a0082100008040001000be001c
:103ab40018c0b30002002000c3282400cbf3070081
:103ac4000000e00001003c000044eb000804e000ba
:103ad4001a0032008248800093488000104a800017
:103ae400214a80000001510081815900401f2000bb
:103af40001002000800f5100818f5900130036000f
:103b04004e489000e14f500004003a00f04a800013
:103b14000090a00000a0a100f04a88004e48900048
:103b2400e24f500009003a00f04a80000070a00003
:103b34000080a100f04a880004003700804880001b
:103b440091488000104a8800214a88004e4890001d
:103b54000080fb000000e900c200dd00a008210095
:103b6400008040001000be0018c0b3000200200016
:103b7400c3282c009bf307000000e000010035007f
:103b84000044eb000804e0000e0032004e489000b0
:103b9400e14f500004003a00f04a80000090a10078
:103ba40000a0a000f04a88004e489000e24f500068
:103bb40004003a00f04a80000070a1000080a000d8
:103bc400f04a88004e4890000080fb000000e900a5
:103bd400c200dd00a0082100008040001000be00eb
:103be40018c0b3006011b80080f307000000e000c3
:103bf40001003c000044eb000804e0003f003200f8
:103c04004e4890000080fb000000e900c200dd0087
:103c1400a0082100008040001001be002207980087
:103c2400330798004e4890000080fb00e20f5000dc
:103c340013003200e30f500021003200e10f500066
:103c44006d003a00c801a900cde2a800c881a8000f
:103c54002e019000be01900000002000812c240061
:103c64003cf2070002002000031a2400f5f30700c9
:103c740081f3070000007800b00e88005f00370071
:103c8400c8a1a900cd82a800c821a8002e019000d7
:103c9400be01900000002000812c24002df20700ba
:103ca40002002000031a2400e6f3070072f3070061
:103cb40000007800c00e8800000000004f003700ac
:103cc400c8c1a900cd42a800c841a8002e01900097
:103cd400be01900000002000812c24001df207008a
:103ce40002002000031a2400d6f3070062f3070041
:103cf40000007800d00e8800400037004e48900045
:103d04000080fb000000e900c200dd00a0082100e3
:103d1400008040001000be0001f0a200400798009f
:103d2400510798004e4890000080fb00e20f5000bd
:103d340013003200e30f500020003200e10f500066
:103d44002e003a00c881a900cdc2a800c801a8006d
:103d54004e019000de01900000002000812c240020
:103d6400fcf1070002002000031a2400b5f3070049
:103d740041f3070000007800b00e88001f003700f0
:103d8400c821a900cda2a800c8a1a8004e01900096
:103d9400de01900000002000812c2400edf10700da
:103da40002002000031a2400a6f3070032f30700e0
:103db40000007800c00e880010003700c841a90038
:103dc400cd62a800c8c1a8004e019000de01900099
:103dd40000002000812c2400def1070002002000f6
:103de400031a240097f3070023f307000000780068
:103df400d00e880001003700000000005e49a800d2
:103e04004f04be000080fa00000006001200fa0011
:103e14000000eb00000f780080488000914880008b
:103e24004808de00804078000e80e8001e00400054
:103e3400014878001e0fe800804880009148800007
:103e44004008de00804078000e80e8001e0040003c
:103e5400014878001e0fe8008048800091488000e7
:103e64004809dd004800de0000007100c808de00db
:103e7400804078000e80e8001e0040000148780071
:103e84001e0fe80080488000914880008040780040
:103e94000e80e8001e004000014878001e0fe80074
:103ea40060082100104078000000fb004880de001c
:103eb400804078000e80e8001e0040000148780031
:103ec4001e0fe80060082100104078008040780050
:103ed4000e80e8001e004000014878001e0fe80034
:103ee40030838000418380000200200003122400fc
:103ef4007af20700bff20700000078004880de0075
:103f0400804078000e80e8001e00400001487800e0
:103f14001e0fe800308380004183800002002000ef
:103f2400031224006df20700b2f2070000007800cb
:103f3400804078000e80e8001e00400001487800b0
:103f44001e0fe8005084800061848000a9f20700fd
:103f5400000078004880de00804078000e80e80091
:103f64001e004000014878001e0fe80050848000c5
:103f7400618480009ff20700000078008040780090
:103f84000e80e8001e004000014878001e0fe80083
:103f940070082100104078000000fb004880de001b
:103fa400804078000e80e8001e0040000148780040
:103fb4001e0fe8007008210010407800804078004f
:103fc4000e80e8001e004000014878001e0fe80043
:103fd40050838000618380000200200003122400cb
:103fe4003ef2070083f20700000078004880de00fc
:103ff400804078000e80e8001e00400001487800f0
:104004001e0fe800508380006183800002002000be
:104014000312240031f2070076f207000000780052
:10402400804078000e80e8001e00400001487800bf
:104034001e0fe80070848000818480006df2070008
:10404400000078004880de00804078000e80e800a0
:104054001e004000014878001e0fe80070848000b4
:104064008184800063f207000000780080407800bb
:104074000e80e8001e004000014878001e0fe80092
:104084000e80e800000178009e007800200a2000dd
:104094007f0407000080fa00000006001000fa0008
:1040a40096130700f51207002cfb0700d9fb070045
:1040b40055fc070010fd0700b2fd07008812070039
:1040c400c6120700340207005b020700a40a0700b7
:1040d400b313070000802400811e2000d1130700c1
:1040e400860f0700dd0e070040062000360e07008d
:1040f400400620004a0e070040062000780e070004
:10410400400620008c0e070040062000ba0e07006f
:1041140031c0b3000040eb00b8fd0700d2cc2c0046
:10412400c3d423000000200001042400d10b0700a5
:1041340020952400d1a92300400798005107980036
:1041440020e62b00c18b23006007980071079800bc
:10415400f026210031b8230023f7070060ba2900b4
:1041640041b4230099f707006e019000fe0190000e
:10417400f0282c0051cf2300d8f10700b083880029
:10418400c183880000002800b15b240010848800eb
:10419400218488004e019000de019000f0282c005c
:1041a40051df2300cdf10700d0838800e18388002c
:1041b40000002c00a1552400f083880001848800ad
:1041c400c4e2a900c522a900c542a9000000eb0071
:1041d400000f78000000eb00100798000000eb00cf
:1041e400200798000000eb0030079800911680002b
:1041f40000202000008060000000e00009003a0078
:104204000000eb001c0e07000000eb00270e070067
:104214000000eb005e0e07000000eb00690e0700d3
:10422400de68ef00824880009348800000f9250092
:1042340011002000800f5100818f590002003600c8
:1042440040c6b300dee8b700f04a800061006000b9
:104254000000e0000c0032005e09a90010c0b300a9
:104264009e007800f88f500001003c000040eb00f5
:104274001e0fe8000004e00003003200880307007a
:104284000000eb00000f7800f04a8000620060003c
:104294000000e0000e0032005e29a90010c0b30047
:1042a4009e009000f88f500001003c000040eb009d
:1042b4009e0090008100e800110798000004e000cf
:1042c40003003200b70307000000eb00100798005a
:1042d400f04a8000640060000000e0000e0032003c
:1042e4005e49a90010c0b300be009000f88f5000d2
:1042f40001003c000040eb00be0090008100e8009b
:10430400310798000004e00003003200bffe0700fc
:104314000000eb0030079800f04a8000680060005d
:104324000000e0000e0032005e69a90010c0b30076
:10433400ae009000f88f500001003c000040eb00fc
:10434400ae0090008100e800210798000004e0001e
:10435400030032008af507000000eb0020079800f4
:10436400f14a800000022000008060000000e000ac
:10437400070032005ea9a900570e0700990e070036
:10438400040037008b0f07001c04070001003700ee
:10439400000000009b0f07000004e000f9ff3a0052
:1043a4000200370076110700840407008411070017
:1043b4000004e000fbff3a008cff37000000fa0025
:1043c400dec8bf000080fb00a1052000810f500063
:1043d40038003200a1052000810f500005003c0088
:1043e4000000e0000d003200e10f50001e0032001a
:1043f4007300370041062000810f50006300320033
:1044040051062000810f500070003200b1052000d9
:10441400810f50002b003200690037001029ef0093
:104424001229ef00a00321008040eb00014878002e
:104434008040eb000040eb009212070031c0b30053
:104444000040eb00edfc07001f070700b50507005f
:1044540071080700a2f70700ff00070010c0b300af
:10446400dee8b7005a0037009116800000202000d3
:10447400008060000000e00002003200a0c5b3002c
:10448400dee8b7000000eb00ab0d07000000eb0016
:10449400930d07000000eb00610d07000000eb0026
:1044a400490d0700100421008040eb00014878000a
:1044b40047003700e8000700b0c5b300dee8b700e6
:1044c4004300370010042100104078000080fb00f6
:1044d400e80f50001a003200e80f500005003c00bd
:1044e4000000e00009003200e10f5000100032002b
:1044f40021003700e90f5000160032004106200069
:10450400810f50001b0032001b00370062fa2f009d
:10451400810c200050412000a1020700ce000700ba
:104524001004210011c0b3000148780016003700c0
:104534001004210081c0b300014878001200370044
:1045440079f707001004210091c0b30001487800f6
:104554000d00370069f707000004e0000400320092
:104564001004210041c6b30001487800e628ef009a
:1045740005003700040037001004210041c0b300d7
:10458400014878000000000011003700a00321005a
:104594008040eb000148780021c0b3000040eb00ec
:1045a40096fc070011c0b3000040eb0093fc070029
:1045b400a900070050c6b300dee8b70004003700c6
:1045c400de68ef000000000001003700000000007a
:1045d4000080fa00000006000200fa00881f78003c
:1045e4000040eb00004f7800d0468000e146800098
:1045f40018c0b30002002000031f2400f9f00700d4
:104604000000e000010035000044eb000804e00075
:1046140019003200b0468000c146800018c0b300c3
:1046240002002000031f2400f0f007000000e00057
:1046340001003c000044eb000804e0000e003200de
:1046440090468000a146800018c0b30002002000fc
:10465400031f2400e5f007000000e00001003c0017
:104664000044eb000804e0000300320020c0b30063
:10467400004f780055003700d0468000e1468000a6
:1046840018c0b30002002000031f2400d7f0070065
:104694000000e00001003c000044eb000804e000de
:1046a40019003200b0468000c146800018c0b30033
:1046b40002002000031f2400ccf007000000e000eb
:1046c40001003c000044eb000804e0000e0032004e
:1046d40090468000a146800018c0b300020020006c
:1046e400031f2400bff007000000e00001003500b4
:1046f4000044eb000804e0000300320010c0b300e3
:10470400004f780031003700b0468000c146800079
:1047140018c0b30002002000031f2400b1f00700fa
:104724000000e000010035000044eb000804e00054
:104734000300320030c0b300004f7800230037007c
:10474400d0468000e146800018c0b300020020007b
:10475400031f2400a5f007000000e00001003c0056
:104764000044eb000804e00018003200b04680006a
:10477400c146800018c0b30002002000031f2400bb
:104784009af007000000e00001003c000044eb0048
:104794000804e0000d00320090468000a14680002d
:1047a40018c0b30002002000031f24008ff007008c
:1047b4000000e00001003c000044eb000804e000bd
:1047c400020032000040eb00004f78001e407800e9
:1047d4000004e00003003a0020c0b300dfe8b700a3
:1047e400110037001e407800e24f500003003a00e9
:1047f40040c0b300dfe8b7000b0037001e4078006c
:10480400e14f500003003a0060c0b300dfe8b70096
:10481400050037001e407800e34f500002003a00c4
:1048240080c0b300dfe8b700dfc8bf008080fb00b2
:10483400dec8bf000080fb000000e900808f50004c
:1048440002003200dfc8bf00dee8b7004f04780082
:104854000080fa00000006000c00fa000040eb00a3
:10486400004f78000000eb0010079800120037009a
:104874001e81fb0080488000914880009e019000ca
:10488400c319dd00030278000402e90003003300c9
:104894008100d1000080d300fbff37008040780006
:1048a40002004700414098001e4fe8001e0090009f
:1048b4000000e800100798001e009000e30f50006d
:1048c400ebff34001e80fb00e18d20009140780056
:1048d40000004700414098001e4fe8001e80fb0086
:1048e40021042100914078000000470041409800d5
:1048f4001e4fe8001e80fb00210421009140780037
:1049040000004700414098001e4fe8001e80fb0055
:1049140021042100914078000000470041409800a4
:104924001e4fe80064004700000178005100200099
:1049340000052000560207000080fa00000006006f
:104944000200fa00004f78001e80fb000000ea001d
:104954004f00de0000407800e4e8b700e4c8bf0080
:104964000004e000040032000040eb0004000700f3
:104974001029ef001229ef000080fa000000060061
:104984000200fa00004f78001e407800dee8b7000d
:104994000080fa00000006000000fa00000f80000a
:1049a4000080a1000090a10000a0a100000f8800d9
:1049b400e1e1a900e0e1a900e0c1a900e041a9000a
:1049c400e421ef000080eb00300f8800000f80002e
:1049d4000080a0000090a00000a0a000000f8800ac
:1049e4008b40a9009b40a8000080fa00000006004c
:1049f400809fbe000000fa008b40a900010f8000d8
:104a040000802000008060000000e000040032000c
:104a1400704580000000e8007045880003003700fe
:104a2400704580000000e900704588000080fa00ad
:104a34004f00be00004006000000fa00800f800016
:104a44000080a1000090a10000a0a100800f8800b8
:104a5400f1e1a900f0e1a900f0c1a900f041a90029
:104a6400f421ef000080eb00b00f8800800f80007d
:104a74000080a0000090a00000a0a000800f88008b
:104a84008d60a9009d60a800c0458000cf80de0035
:104a940014f00700d0458800e14588000080fa0042
:104aa40000000600809fbe000000fa008d60a9008f
:104ab400810f800000802000008060000000e00082
:104ac40004003200c04580000000e800c0458800b2
:104ad40003003700c04580000000e900c04588009d
:104ae4000080fa004f00be00004006000000fa00fb
:104af400889fbe008045800091458000a0458800c5
:104b0400b1458800d0458000e1458000f04588002b
:104b14000146880070458000cf80de00c001dd00c2
:104b240002002000200f80008000eb000200400003
:104b340083804800ebef070080458800914588009a
:104b4400c0458000cf80de00c001dd0002002000ef
:104b5400a00f80008000eb0002004000838048002a
:104b6400e0ef0700d0458800e145880080458000db
:104b740091458000d25d2b0043c8230031f007002b
:104b84008045880091458800d0458000e14580003b
:104b9400d25d2b0043c82b002af00700d0458800c3
:104ba400e14588008445800095458000a04580004b
:104bb400b14580000001be000400be0065ee0700a0
:104bc40018c0b30002002000832c240087ef0700e4
:104bd4000000e00001003c000044eb000804e00099
:104be40010003a008445800095458000a04580006f
:104bf400b14580000001be000400be0055ee070070
:104c040018c0b30002002000832c2c0075ef0700ad
:104c14000000e000010035000044eb000804e0005f
:104c240004003200a0458000b14580008045880022
:104c340091458800d4458000e5458000f04580001a
:104c4400014680000001be000400be0041ee0700e2
:104c540018c0b30002002000832c240063ef070077
:104c64000000e00001003c000044eb000804e00008
:104c740010003a00d4458000e5458000f0458000ee
:104c8400014680000001be000400be0031ee0700b2
:104c940018c0b30002002000832c2c0051ef070041
:104ca4000000e000010035000044eb000804e000cf
:104cb40004003200f045800001468000d0458800a1
:104cc400e14588008445800095458000a04580002a
:104cd400b14580000001be000400be001dee0700c7
:104ce40002002000a3372400d6ef07003083880099
:104cf40041838800d4458000e5458000f04580006c
:104d0400014680000001be000400be0011ee070051
:104d140002002000a3372400caef07005083880054
:104d2400618388008445800095458000a04580000b
:104d3400b14580000001be000400be0005ee07007e
:104d44001046880021468800d4458000e54580004f
:104d5400f0458000014680000001be000400be0052
:104d6400fced070030468800414688001446800068
:104d74002546800030468000414680000001be0088
:104d84000400be00f3ed0700a29929005333240068
:104d9400d2ee07006aee070050468800614688009c
:104da400144680002546800030468000414680003d
:104db4000001be000400be00e7ed07000200200071
:104dc40003002400c5ee0700704688008146880071
:104dd400704680008146800018c0b30002002000a5
:104de400031f240001ef07000000e00001003c0065
:104df4000044eb000804e000030032006000b80047
:104e0400704688008146880070828000818280001c
:104e1400b0828800c182880090828000a1828000d4
:104e2400d0828800e1828800f082800001838000c3
:104e34001083880021838800b8828000c9828000a2
:104e4400f0828000018380001bf007000002be0096
:104e540005f0a20070468000814680000001be007b
:104e64000400be0077ef07000001be000800be008a
:104e7400b9ed07007082880081828800d8828000a2
:104e8400e9828000f08280000183800091ee0700b7
:104e94000002be0070468000814680000001be0012
:104ea4000400be0067ef07000001be000800be005a
:104eb400a9ed070090828800a182880014838000f5
:104ec4002583800050468000614680000001be00ba
:104ed4000400be00a0ed0700f08288000183880072
:104ee400f08280000183800018c0b300b2fd20006e
:104ef40093042400bdee07000000e00001003c0024
:104f04000044eb000804e00007003200f082800057
:104f140001838000b2fd2000930c24008ded070076
:104f2400f082880001838800f08280000183800081
:104f340018c0b300b2fd200093042c00a9ee0700b2
:104f44000000e000010035000044eb000804e0002c
:104f540007003200f082800001838000b2fd20004f
:104f6400930c24007ced0700f08288000183880004
:104f74005e09a8005e29a8004f04be000080fa0064
:104f8400000006000000fa000001eb008000eb00c6
:104f94000000eb00020007000080fa000000060099
:104fa4000600fa00000f7800110798002207980005
:104fb400ae28ef00b828ef00e421ef00f421ef0061
:104fc4006000b800a0458800b14588006000b800c2
:104fd400f0458800014688006000b80080458800dc
:104fe400914588006000b800d0458800e1458800fc
:104ff4001e007800cf80de00baee070070828800c1
:105004008182880090168000620060000000e00049
:105014000800320070828000818280000001be009e
:1050240000002000a14f24004aed07007082880090
:10503400818288001e009000cf80de00a9ee070068
:1050440090828800a18288002e009000cf80de002c
:10505400a4ee070062e5200093042400f9ee0700a3
:1050640002002000433324001cee0700f082880075
:105074000183880090168000620060000000e00058
:1050840005003200f08280000183800001f0a2005c
:10509400f0828800018388000080fa000000060086
:1050a4001200fa00881f78000000eb00000f78005f
:1050b40031003700310020001e84500080458000fc
:1050c400914580004bee0700800078001e007800b8
:1050d4004300dd000088de008040780008004700bf
:1050e40021409800710020001e845000d0458000ab
:1050f400e14580003fee0700800078001e00780044
:105104004300dd000088de0080407800080047008e
:1051140021409800b10020001e845000308380009c
:105124004183800033ee0700800078001e00780081
:105134004300dd000088de0080407800080047005e
:1051440021409800f10020001e845000508380000c
:105154006183800027ee0700800078001e0078003d
:105164004300dd000088de0080407800080047002e
:10517400214098001e0fe8001e007800e30f500045
:10518400ccff34000e80e80000017800010120000b
:10519400000620003e0007004f0478000080fa005b
:1051a400000006000e00fa00881f78000000eb00e3
:1051b400000f78002b003700310020001e845000bf
:1051c40070828000818280000aee070080007800ef
:1051d4001e0078004300dd000088de008040780077
:1051e4000800470021409800710020001e845000f0
:1051f40090828000a1828000feed0700800078008c
:105204001e0078004300dd000088de008040780046
:105214000800470021409800b10020001e8450007f
:10522400f0828000018380000200200043332400c8
:1052340084ee070062e5200093042400a7ed070034
:10524400eced0700800078001e0078004300dd00cc
:105254000088de0080407800080047002140980064
:105264001e0fe8001e007800e30f5000d2ff340048
:105274000e80e80000017800c10020001006200024
:10528400030007004f0478000080fa0000000600c5
:105294000e00fa00889fbe0040079800510798004e
:1052a400620798000f0478000f00780080047800eb
:1052b4005e009000660040008000e900210798002d
:1052c4000000e8000000e8000000d1008000400079
:1052d4000f007800818747000000e8000000d1003b
:1052e40000004000300798000000eb00000f780039
:1052f4000000eb00100798003e0090001e004000e4
:10530400e1cfb300014878001e0fe8004e00900082
:105314004880de00804078003e0090001e0040007f
:10532400014878001e0fe8004e009000804078008d
:105334003e0090001e004000014878001e0fe80067
:105344005e0090004880de00804078003e009000bf
:105354001e004000014878001e0fe8005e00900027
:10536400804078003e0090001e0040000148780014
:105374001e0fe8000000eb00100798000b00370038
:105384001e009000ee0090000080400090407800e5
:105394003e0090001e004000014878001e0fe80007
:1053a4001e0090000000e800100798009e00900086
:1053b4005e009000808f5000f1ff35006e01900078
:1053c400de0090004e009000ec000700be0090004c
:1053d4009e804000804878005e009000e600400017
:1053e4003e009000ee0b07008907780088077800dc
:1053f4004f04be000080fa00000006000400fa001a
:1054040020479800f6c8bf000080fb00e30f50005f
:1054140022003200e30f500007003c00e10f50006f
:1054240012003200e10f500014003c000000e000c4
:105434000800320059003700e50f500032003200f6
:10544400e50f50001c003500e60f50003f0032000d
:10545400520037002e409000e24f400052003a00c4
:1054640010c0b300f6e8b70052003700f768ef0049
:1054740020c0b300f6e8b7004e003700718f20005b
:10548400914078002e40900000c04000f7e8b7003b
:1054940030c0b300f6e8b700460037002e40900055
:1054a4000080fb004800dd00c047880040c0b30016
:1054b400f6e8b7003f0037002e4090008080fb00e4
:1054c400c047800000804000c0478800c14780007a
:1054d40000082000808f500002003600f668ef00bc
:1054e40034003700c04780000000e00003003a00a9
:1054f40060c0b300f6e8b7002e00370050c0b30018
:10550400f6e8b7002b003700fac8bf000080fb00a4
:10551400a1cb20002e41900082707800fac8bf0011
:105524000040e800fae8b700fac8bf008080fb003a
:10553400c0478000808f50001d003a00fa68ef00d9
:1055440060c0b300f6e8b7001a003700c047800017
:1055540080007800f7c8bf000080fb00a2cb2000c9
:1055640086000700004f7800ae4090001147980075
:105574001e4090009e40780080cf500005003a0005
:10558400c047800080407800f7c8bf00a2cb20004d
:10559400a4000700f668ef0006003700f668ef0085
:1055a4000000000003003700000000000100370085
:1055b400000000000080fa00000006000400fa0069
