:020000040000fa
:080000000002040000000000f2
:020000040000fa
:100008009a0200009a0200009a0200009a02000078
:100018009a0200009a0200009a0200009a02000068
:100028009a0200009a0200009a0200007e11000065
:100038009a0200009a0200009a020000b813000019
:10004800b21400009a0200009a020000ac3a0000c4
:10005800f03b00009a0200009a0200009a02000099
:100068009a0200009a0200009a0200009a02000018
:100078009a0200009a0200009a0200009a02000008
:100088009a0200009a0200009a020000301600004e
:100098009a0200009a020000b03d0000e43c000013
:1000a8009a0200009a0200009a0200009a020000d8
:1000b8009a0200009a0200009a0200009a020000c8
:1000c8009a0200009a0200009a0200009a020000b8
:1000d8009a0200009a0200009a0200009a020000a8
:1000e8009a0200009a0200009a0200009a02000098
:1000f8009a0200009a0200009a0200009a02000088
:100108009a0200009a020000f61f00009a020000fe
:100118009a0200009a0200009a0200009a02000067
:100128009a0200009a0200009a0200009a02000057
:100138009a0200009a0200009a0200009a02000047
:100148009a0200009a0200009a0200005020000063
:100158009a0200009a0200009a0200009a02000027
:100168009a0200009a0200009a0200009a02000017
:100178009a0200009a0200009a0200009a02000007
:100188009a0200009a0200009a0200009a020000f7
:100198009a0200009a0200009a0200009a020000e7
:1001a8009a0200009a0200009a0200009a020000d7
:1001b8009a0200009a0200009a0200009a020000c7
:1001c8009a0200009a0200009a0200009a020000b7
:1001d8009a0200009a0200009a0200009a020000a7
:1001e8009a0200009a0200009a0200009a02000097
:0801f8009a0200009a020000c7
:020000040000fa
:100208009a0200009a0200009a0200009a02000076
:100218009a0200009a0200009a0200009a02000066
:100228009a0200009a0200009a0200007e11000063
:100238009a0200009a0200009a020000b813000017
:10024800b21400009a0200009a020000ac3a0000c2
:10025800f03b00009a0200009a0200009a02000097
:100268009a0200009a0200009a0200009a02000016
:100278009a0200009a0200009a0200009a02000006
:100288009a0200009a0200009a020000301600004c
:100298009a0200009a020000b03d0000e43c000011
:1002a8009a0200009a0200009a0200009a020000d6
:1002b8009a0200009a0200009a0200009a020000c6
:1002c8009a0200009a0200009a0200009a020000b6
:1002d8009a0200009a0200009a0200009a020000a6
:1002e8009a0200009a0200009a0200009a02000096
:1002f8009a0200009a0200009a0200009a02000086
:100308009a0200009a020000f61f00009a020000fc
:100318009a0200009a0200009a0200009a02000065
:100328009a0200009a0200009a0200009a02000055
:100338009a0200009a0200009a0200009a02000045
:100348009a0200009a0200009a0200005020000061
:100358009a0200009a0200009a0200009a02000025
:100368009a0200009a0200009a0200009a02000015
:100378009a0200009a0200009a0200009a02000005
:100388009a0200009a0200009a0200009a020000f5
:100398009a0200009a0200009a0200009a020000e5
:1003a8009a0200009a0200009a0200009a020000d5
:1003b8009a0200009a0200009a0200009a020000c5
:1003c8009a0200009a0200009a0200009a020000b5
:1003d8009a0200009a0200009a0200009a020000a5
:1003e8009a0200009a0200009a0200009a02000095
:0803f8009a0200009a020000c5
:020000040000fa
:100400000f0b21000e7f24000e0188000000000069
:10041000000020000000e000020032000001200087
:10042000200288000c000700c0e223000100200029
:1004300011000700000020000000e0000200320070
:1004400000000200000000004c1b02000000000041
:100450000040da000000fe004440a9000000200037
:100460000000e0000300320000002000a00188002e
:100470004440a80000000600910188008000780038
:100480000000eb0015003700e280400032a0b4000d
:100490009101ba00e280400032a0b4009102ba009b
:1004a000e280400032a0b4000002eb00472bde00e7
:1004b000f507b200602ce10004003a000059eb009f
:1004c0008301e900fdff3e00040037006128e100e0
:1004d000010032000082eb00040007001101ba00a5
:1004e0000200e000e8ff3a00000006003159ba00bf
:1004f0008301e9000c0032002159ba008301e900b0
:10050000080032000400e00003003a00e2804000ee
:1005100032a0b400f5ff370011d9ba008301e90019
:10052000faff3a008100e800e180400032a0b40008
:10053000000006000040da000000fe0003f0a20008
:10054000889fbe008a9fbe008c1f78009f01070015
:10055000a60133006450e1004f0032006420e10046
:100560005200320003826c0007003b000905d000f6
:100570000306d000820f54000c065d000200390013
:100580000200320089017800030678008582550058
:1005900004003d000003fd008103fd008502ea0028
:1005a0008b854200840f720002003b006000100047
:1005b000e08018006011b8000005eb007a28e10027
:1005c0000a00390006007800c75ddd00f707b200b9
:1005d000878075002d003700828171000a01780044
:1005e000610560008180d1000080d3008502e900b0
:1005f000f9ff3b00060440008784480002003b00ee
:1006000060041400e0841c000988a3000700320085
:100610008a81710082817100610164008904d100c6
:100620000884d3008b05e800170037000978a30081
:1006300013003a000b00e000130034008b05e900c2
:100640000804440089844c000a4474000978a3001b
:100650000d003a000b00e000070034008b05e900b4
:100660000804440089844c0001003a000b0020007b
:100670000978a300f7ff32000001eb000200370009
:10068000828171000a017800150107000cf0a700b3
:1006900001f0a0005e0137006420e10002003a0092
:1006a000838f6c005e0133000801be000200be00b3
:1006b00057013700889fbe008a9fbe008c1f7800bc
:1006c000420107001002200002003b00204b88007e
:1006d000460137008a0062006408e10002003a0027
:1006e000204b88004e0137006108e100fcff32001a
:1006f0000800be00030478007200070001f0a100aa
:100700000900070008f0a600040037000001be0041
:1007100091042400b0fd200088ff070009f0a70025
:1007200001f0a2003a013700889fbe008a9fbe00f8
:100730008c9fbe000004be000f0107000800be0031
:10074000890678006420e1000800390004003200c6
:100750000160a00012022000224b880053003700e5
:1007600091fc2300b0fd20004e0037000006eb0096
:1007700009f0a10003f82300020020000800be00d9
:10078000920007000600340001f82300000020005a
:100790000801be004b0007000004be002c00200032
:1007a0000800be0093e82300320a230087000700f8
:1007b000120034000801be00d1fd2300703d2b0063
:1007c0005fff07000005be00b3f32300f27a2600a6
:1007d0000800be001501070003f8230002002000f6
:1007e00056ff07000801be0055ff07000a01be00c2
:1007f000340007000004be000c06e8000800be003c
:1008000001f0a10002002000039823006f00070000
:100810000800be00160035000801be0003010700f5
:100820000005be0032cd2c0043fb230044ff07002f
:10083000809fbe001269280003d52b000a00be006d
:10084000fa000700620f210013ef2b003cff0700a6
:100850000a01be00f50007004f01be0019000700a5
:100860000801be00f10007000801be0034ff0700c8
:100870000c00e0000b0032000c10a70001f0a200f9
:10088000b2fd200093fc23006260e100040032000e
:1008900022a9200063f023000c10a70063f82300b6
:1008a00027ff07000df0a70001f0a2004f06be00d1
:1008b0004f05be004f04be00000006000081eb00a3
:1008c0000e013700889fbe008a9fbe008c1f7800f3
:1008d000be000700c500330003866c006450e100d1
:1008e0002e0032006420e100330032006150e1004c
:1008f0002f0032006120e100310032008585550073
:10090000eb07b000090020000804200005003700b4
:100910000804440089844c000a00310006034300a7
:1009200087834b000001530081815b00f8ff330097
:100930000203be000800a0000804440089844c00a3
:10094000f6ff3900c639dd00830173000100320073
:10095000130020008904d1000884d3000998a30063
:10096000050032000800a7000300a0008904d100a0
:100970000884d3008b05e8008904d1000884d300e3
:100980000001eb000281d2005500070001f0a10038
:100990000cf0a70001f0a0009d0037006420e100ea
:1009a0009f0032000801be000200be00f7ff3700c2
:1009b0006120e1009a0032006000b800f3ff3700c8
:1009c0000000200001f82700f0ff3700140020008d
:1009d0006a013700f4ff2f00680137000001be00f4
:1009e000650007000470a70003f0a1006509b100cd
:1009f000160032000d0035006828e10006003500c1
:100a0000f0ff2f00f1ff27000300e00013003b0080
:100a1000010028000000050000004000818048001f
:100a20008502e900fcff3a0008003700f88f420019
:100a300002003c008000eb00000005008100d100b6
:100a40000080d3008502e800fcff3a000300e000cc
:100a500002003b0060001000e0801800000006006b
:100a60000001be00440007000470a70003f0a100cd
:100a700003f8a30013003a006509b100100032002a
:100a8000090035006928e100020035000100280056
:100a90000000050000004000818048008502e90058
:100aa000fcff3a0000000600f88f42000500350008
:100ab0008100d1000080d3008502e800fcff3a00ed
:100ac000000006008000eb00000005004f89de00fa
:100ad00082017800440137006011b80052013700ec
:100ae00081002000618055000b003d000b002000bc
:100af00061fe2f000100e1001d00340082817100c1
:100b0000610164008904d1000884d3000000e8007a
:100b1000faff3a00710020006100640003007000d9
:100b2000020060000900320061044400e0844c00cf
:100b30000988a500050032008b05e8006808e1007f
:100b400002003a008904d1000884d300f20f20008b
:100b50000258e10005003d00c75ddd00f907b20065
:100b60008980750008007800000006000bf8270057
:100b70008b00780000000500c70ade00f107b20014
:100b8000f50fb20008003200e1cf4200020032004f
:100b90000170a00024000500810f700001003200e8
:100ba0000408050044000500810f700002003a00af
:100bb000140005008502e9000000400081c04800e3
:100bc000fcff3b000170a000240005000004be00f3
:100bd000e9ff07000003be000405be000200be00de
:100be000e5ff0700844f7500000006000200be000c
:100bf0006450e100050036006420e1000200360088
:100c00000968a30001003a000800be000160a000ce
:100c10004f0678004f05be004f04be0000000600de
:100c2000f0ff2f00f1ff2700f9ff3700889fbe007b
:100c30008a9fbe008c1f7800e4ff0700ebff3300a3
:100c400003866c006450e100240032006420e1005f
:100c5000270032006150e100220032006120e100f3
:100c6000210032008b854200eb07b1000134b8004f
:100c7000003ab8000804420089844a00013ab800ea
:100c80000030b8008880400009014a0004003300a9
:100c90000000400081804800020149008b05e90006
:100ca000c909dd008301700001003200130020003b
:100cb000c814de004814dd004709de001200b2004f
:100cc000c808de000884700085ff070001f0a1005d
:100cd0000cf0a70001f0a000cdff37006120e1007b
:100ce000cfff32000801be000200be00f7ff370050
:100cf0006150e100fcff3a00c9ff3700889fbe0049
:100d00008a9fbe008c9fbe00820578000004be0052
:100d100099ff07000800be006420e10007003900c9
:100d200002003a00f1ff2700f0ff2f000160a00051
:100d300012022000224b8800550037006120e1009c
:100d400003003a000b00a70001f823005000370011
:100d500001f0a10002002100936424001bff0700a2
:100d60000800be0004003500b2fd2000930c2400f2
:100d7000dc0007000004be000005eb000b00a6002d
:100d80004f0dde0001f0a1000004be0032982f00dc
:100d900023ea2300a5ff07000001eb0003f0230076
:100da0000b00a70003f82300e5fd07000bff070079
:100db0000000a7000a00a20044ff07000b00e000ab
:100dc000030032000200200003f02300dbfd0700d7
:100dd00001f0a2000006be000200200093042400df
:100de00092ff07000801be00d5fd0700809fbe00ee
:100df0000c00be0022a22a00d3a723008bff07000d
:100e00004f01be00cefd07000004be0001f0a100ae
:100e10000200200003982300ecfe07000800be003b
:100e2000190035000001be0080ff07000006be006b
:100e3000b2c52900e36223007cff070022222b00b9
:100e4000f3942b00befd07000c01be0077ff0700e6
:100e5000e273280083c02300b9fd07000c01be0027
:100e600072ff070042aa2a00a3e22b00b4fd07008c
:100e70000c01be006dff07000801be006bff0700fc
:100e80000801be00aefd07000a00a70001f0a200a5
:100e90004f06be004f05be004f04be000000060016
:100ea0000001eb0095ff3700889fbe008a9fbe00bf
:100eb0008c1f78000004be002fff07000478a300f9
:100ec00026003a006120e1002500320009f8a30065
:100ed00025003a006420e10021003200f507b1004e
:100ee0000508a30002003200000040008180480095
:100ef0006044b80003102000020020000000400001
:100f0000818048000805440089854c000a0541009d
:100f10008b8549000a0550008b855800030033007b
:100f20000a00be0002047400838474008301d100af
:100f30000281d300830f7100f0ff3a008904d100d1
:100f40000884d3006001490082017800c1adde0051
:100f5000fb07b000e2fe07002dff37000960a0008c
:100f60000800be002aff370012022000224b880032
:100f7000f0ff2f00f1ff270025ff3700889fbe00fc
:100f80008a9fbe00841f780010ff07004f00780082
:100f900011003300f0ff2f00838f6c0006003b0030
:100fa000040565000a00a7000800370009f0a60044
:100fb0001000200008003700820f5400838f5c006f
:100fc000030039001000200001003e000000200056
:100fd00009f0a7000000ea004f05be004f04be0064
:100fe0000000e00000000600881f7800030478007d
:100ff0000300e00007003d0060001000e0801800e2
:1010000060011900e081190002003b0001f02d0091
:10101000030037000400070008f0a70001f0a0005b
:101020004f04780000000600889fbe008a9fbe0023
:1010300000827000040271000482710026003200f8
:101040000004be000200be006011b8006b09200061
:10105000950220000182cf000a0039000541b1004d
:101060000082cf00070039000541b1000982cf009e
:10107000040039000541b1000882cf0001003900a9
:101080000541b10005425200120032000a003b0047
:1010900082817100610164008100d1000080d30071
:1010a0008984d3000884d3008b05e8000442e8005b
:1010b000f7ff3a00070037000804440089844c0019
:1010c00000004800818048008b05e9000442e900e7
:1010d000f9ff3a0082fe07004f05be004f04be0034
:1010e000000006000400200000003700889fbe00ba
:1010f0008a9fbe008c1f78004f26dd00b3fe0700dc
:10110000bafe33006120e100430032006250e1008a
:1011100041003e003e0039006420e1003c00320006
:10112000058255000f003b000402e80038003a0039
:10113000800f5300818f5b00350034000800be0033
:1011400003f0a10001f0a60003f0a0000cf0a7003e
:10115000fbfc0700aefe37000603430087834b000d
:101160000c4646000005530081855b0002003300f9
:101170000a03be000c00a0000402e900f6ff3b00d9
:10118000850578000602430087824b0004003a0080
:101190006000b80009f0a70001f0a0009cfe370035
:1011a0000002520081825a000704e000040033006c
:1011b0000603430087834b008b05e900faff3700e5
:1011c000090578000604be000203be006011b800e5
:1011d00043fe0700e00f5200e08f5a000700350081
:1011e00002003c000c08a300040032000601be000f
:1011f00003f0a0000cf0a700d1fc07000a856800ee
:1012000001f0a1000af0a70001f0a00080fe370065
:101210000800be007efe3700100220000cf0a60081
:08122000204b88007efe370020
:020000040000fa
:101228002800fa00889fbe008a9fbe008c9fbe00df
:10123800804080000000e80080408800d88380005b
:10124800e983800080838000cf80de001dfe0700d8
:101258000001be000800be00b6fc07000001be0089
:1012680070fe07000004be00fa8380000b84800033
:1012780090838000cf80de0012fe07000001be00d0
:101288000a00be00abfc07000001be0065fe0700b7
:101298000001be000800be00a7fc070000ff070011
:1012a800000f9800110f980090838000cf80de0017
:1012b80004fe07000002be00f08380000184800065
:1012c8000001be000400be009afc07000004be0036
:1012d80080838000cf80de00fafd07000002be0098
:1012e800d0838000e18380000001be000400be00be
:1012f80090fc07000801be00ecfc070001f0a2000a
:10130800200f9800310f980050848000618480007d
:101318000001be002e089000be08900085fc070062
:1013280064fd07000e0990009e0990003dfe07002d
:10133800f040880001418800f040800001418000b1
:1013480018c0b30002002000032724009dfd0700f9
:101358000000e000010035000044eb000804e00054
:101368002200320018c0b3000200200083242400a9
:101378000e0890009e08900092fd07000000e00013
:10138800010035000044eb000804e00017003200bb
:10139800f04080000141800018c0b3000200200026
:1013a80003272c0089fd07000000e00001003c0035
:1013b8000044eb000804e0000c00320018c0b30041
:1013c8000200200083242c000e0890009e08900044
:1013d8007efd07000000e00001003c000044eb0037
:1013e8000804e000010032006369a800f0408000b2
:1013f8000141800018c0b30002002000031a240035
:1014080070fd07000000e000010035000044eb001b
:101418000804e0002200320018c0b30002002000d7
:10142800832424000e0890009e08900065fd0700a4
:101438000000e000010035000044eb000804e00073
:1014480017003200f04080000141800018c0b3004e
:1014580002002000031a2c005cfd07000000e000d9
:1014680001003c000044eb000804e0000c003200de
:1014780018c0b3000200200083242c000e0890003e
:101488009e08900051fd07000000e00001003c00ac
:101498000044eb000804e000010032006389a80062
:1014a8003a8580004b85800030858000418580002a
:1014b8000004be0009f0a200d4848000e584800006
:1014c800f0408000014180000001be000400be0021
:1014d800d4fd07000a02be000801be00541207002e
:1014e800400f9800510f980050848000618480005c
:1014f8000001be002e089000be0890000dfc0700f9
:1015080040079800510798004e009000de009000b8
:10151800f91107004007980051079800c08480001f
:10152800610060000000e00005003a004e009000f5
:10153800de00900017120700400798005107980036
:101548004e009000de0090005f120700d040880037
:10155800e14088001a8580002b8580001085800076
:10156800218580000004be0009f0a200fc848000f0
:101578000d8580004e009000de0090006812070084
:101588000001be000c00be00a6fd07000a02be0056
:101598000801be0026120700600f9800710f98001e
:1015a8006000b800b0408800c14088006e08900014
:1015b800fe089000410207000017980011179800d4
:1015c8000e1190009e1190006240880073408800c0
:1015d8006240800073408000028fbe00604080003f
:1015e8007140800001f0a2002007980031079800a0
:1015f8006000b8006007980071079800d04080002c
:10160800e140800018c0b300020020000308240055
:10161800ecfc07000000e000010035000044eb008e
:101628000804e00015003200d0408000e14080004e
:1016380018c0b3000200200003082c00e3fc0700d8
:101648000000e00001003c000044eb000804e0005a
:101658000a003200d0408000e140800042110700bb
:101668000001be000000200001082400b1fb0700b3
:1016780060079800710798000400370000002000f8
:1016880001082400600798007107980002002000f4
:10169800030824006e009000fe00900087fc0700fd
:1016a8002017980031179800d0408000e140800052
:1016b80018c0b3000200200003082400c1fc070082
:1016c8000000e000010035000044eb000804e000e1
:1016d80028003200d0408000e140800018c0b300ec
:1016e8000200200003082c00b8fc07000000e000fe
:1016f80001003c000044eb000804e0001d0032003b
:101708004e089000de089000b1020700b040880043
:10171800c1408800b0408000c1408000204088005f
:101728003140880020408000314080002e11900018
:10173800be1190003bfd07000001be001e00be0068
:101748007dfb0700008fbe002040800031408000f4
:101758002e119000be11900032fd07000001be005e
:101768002e009000be00900073fb07002007980031
:10177800310798001e00be0096fc070000007800a4
:10178800704388002e009000be00900091fc070076
:1017980000007800804388006269a800e086200085
:1017a8004f06be004f05be004f04be000080fa0081
:1017b800000006001800fa00889fbe008a9fbe003d
:1017c8008c9fbe00804080000000e80080408800b8
:1017d800a2838000b3838000028fbe005084800003
:1017e800618480000001be001e00be0051fb07009e
:1017f80020079800310798002e009000be00900046
:101808003d11070020079800310798002e0090002e
:10181800be009000ac110700d0408800e14088006d
:101828001a8580002b858000108580002185800026
:101838000004be0009f0a200fc8480000d85800031
:101848002e009000be009000b51107000001be00f8
:101858000c00be00f3fc07000a02be000801be002f
:10186800731107004007980051079800d040800086
:10187800e140800018c0b3000200200003002400eb
:1018880050fc07000000e000010035000044eb00b8
:101898000804e0000c003200d0408000e1408000e5
:1018a80018c0b3000200200003002c0047fc07000a
:1018b8000000e00001003c000044eb000804e000e8
:1018c800010032006389a8006000b800b0408800b9
:1018d800c14088004e009000de00900077010700ac
:1018e80060079800710798006e019000fe01900053
:1018f8006240880073408800624080007340800026
:10190800020f9800130f980060408000714080001b
:1019180001f0a200200f9800310f98000e089000e7
:101928009e0890002bfc07000000780050438800b8
:101938002e089000be08900026fc070000007800e2
:10194800604388006289a800a08620004f06be0078
:101958004f05be004f04be000080fa0000000600dc
:101968000a00fa000000eb00000f780080488000b1
:10197800914880004808de00804078000e80e8002a
:101988001e004000014878001e0fe80080488000d3
:10199800914880004008de00804078000e80e80012
:1019a8001e004000014878001e0fe80080488000b3
:1019b800914880004809dd004800de000000710001
:1019c800c808de00804078000e80e8001e00400055
:1019d800014878001e0fe800804880009148800088
:1019e800804078000e80e8001e0040000148780022
:1019f8001e0fe800d0408000e1408000f5fb0700a2
:101a0800000078004880de00804078000e80e80002
:101a18001e004000014878001e0fe800d0408000fa
:101a2800e1408000ebfb0700000078008040780070
:101a38000e80e8001e004000014878001e0fe800f4
:101a4800f040800001418000e2fb070000007800c0
:101a58004880de00804078000e80e8001e004000cc
:101a6800014878001e0fe800f04080000141800026
:101a7800d8fb070000007800804078000e80e8005e
:101a88001e004000014878001e0fe800b0408000aa
:101a9800c1408000cffb0700000078004880de00ce
:101aa800804078000e80e8001e0040000148780061
:101ab8001e0fe800b0408000c1408000c5fb070051
:101ac80000007800804078000e80e8001e0040008a
:101ad800014878001e0fe80090408000a140800077
:101ae800bcfb0700000078004880de0080407800da
:101af8000e80e8001e004000014878001e0fe80034
:101b080090408000a1408000b2fb070000007800f0
:101b1800804078000e80e8001e00400001487800f0
:101b28001e0fe8000e80e800000178009e00780093
:101b3800100a2000490b07000080fa000000060088
:101b48001c00fa00889fbe00200f9800310f9800f3
:101b5800420f9800530f9800d2cc2c00c3e4230006
:101b68002e089000be0890002efc0700008fbe00d3
:101b78000200200003f023004e089000de089000c9
:101b880028fc07002007980031079800325c2f00d6
:101b980083ea23004e089000de08900021fc07002d
:101ba80040079800510798002e019000be01900050
:101bb8001e00be0041fb07006007980071079800ef
:101bc8004e019000de0190001e00be0015fc0700cb
:101bd800000f9800110f9800d04a8000e14a800059
:101be8006e019000fe0190000efc07001e01be0071
:101bf80051fa07000004be00d04a8000e14a800084
:101c08000001be000e0890009e0890002bfb070004
:101c18000001be000800be0047fa07009042880095
:101c2800a14288001e00be000004be0009f0a20008
:101c38000e0890009e0890000001be003efa0700c2
:101c48000002be00d04a8000e14a80000001be00c8
:101c58000400be0019fb07000001be000800be001a
:101c680034fa0700b0428800c1428800d04a800098
:101c7800e14a80000001be000e0890009e08900016
:101c88000efb0700d0428800e14288004f04be00e6
:101c98000080fa00000006001c00fa00889fbe00c1
:101ca800200f9800310f9800420f9800530f9800aa
:101cb8002e099000be099000028fbe004e099000c8
:101cc800de09900022079800330798006000b800ea
:101cd80040079800510798002e019000be0190001f
:101ce8001e00be00f5fa070060079800710798000b
:101cf8004e019000de0190001e00be00c9fb0700e7
:101d0800000f9800110f9800d04a8000e14a800027
:101d18006e019000fe019000c2fb07001e01be008c
:101d280005fa07000004be00d04a8000e14a80009e
:101d38000001be000e0890009e089000dffa070020
:101d48000001be000800be00fbf9070090428800b1
:101d5800a14288001e00be000004be0009f0a200d7
:101d68000e0890009e0890000001be00f2f90700de
:101d78000002be00d04a8000e14a80000001be0097
:101d88000400be00cdfa07000001be000800be0036
:101d9800e8f90700b0428800c1428800d04a8000b4
:101da800e14a80000001be000e0890009e089000e5
:101db800c2fa0700d0428800e14288004f04be0002
:101dc8000080fa00000006001000fa00889fbe009c
:101dd80060079800710798006e019000fe0190005e
:101de800028fbe006000b8002007980031079800f5
:101df8006000b8004007980051079800d04a80005a
:101e0800e14a80002e019000be01900085fb07008a
:101e18001e01be00c8f907000004be00d04a8000b9
:101e2800e14a80000001be004e009000de009000f4
:101e3800a2fa07000001be000800be00bef90700b4
:101e480090428800a14288001e00be000004be0027
:101e580009f0a2004e009000de0090000001be00d4
:101e6800b5f907000002be00d04a8000e14a8000b0
:101e78000001be000400be0090fa07000001be0089
:101e88000800be00abf90700b0428800c1428800d4
:101e9800d04a8000e14a80000001be004e00900058
:101ea800de00900085fa0700d0428800e1428800f1
:101eb8004f04be000080fa00000006000400fa008b
:101ec800889fbe00008fbe003041800041418000e5
:101ed8005041880061418800104180002141800004
:101ee80030418800414188001e01be00124188002f
:101ef8002341880070418000814180009041880022
:101f0800a141880014418000254180009042800052
:101f1800a14280000001be000400be0041fb070092
:101f28000002be0090418000a14180000001be0077
:101f38000400be0080f907000004be0034418000a0
:101f480045418000b0428000c14280000001be00cf
:101f58000400be0033fb07000001be000800be00fd
:101f680075f907000004be005441800065418000f7
:101f7800d0428000e14280000001be000400be00a3
:101f880028fb07000001be000800be006af9070030
:101f98007041880081418800704180008141800043
:101fa8004f04be000080fa00000006001000fa008e
:101fb800889fbe0060079800710798006e01900026
:101fc800fe019000028fbe006000b8002007980054
:101fd800310798006000b800400798005107980042
:101fe800d04a8000e14a80002e019000be01900096
:101ff8000cfb07001e01be004ff907000004be00dd
:10200800d04a8000e14a80000001be004e009000e6
:10201800de00900029fa07000001be000800be009b
:1020280045f90700f0428800014388001e00be0001
:102038000004be0009f0a2004e009000de009000ef
:102048000001be003cf907000002be00d04a800033
:10205800e14a80000001be000400be0017fa070034
:102068000001be000800be0032f9070010438800d6
:1020780021438800d04a8000e14a80000001be0068
:102088004e009000de0090000cfa070030438800f4
:10209800414388004f04be000080fa00000006009b
:1020a8001c00fa00889fbe00200f9800310f98008e
:1020b800420f9800530f98002e099000be09900017
:1020c800028fbe004e099000de099000220798009a
:1020d800330798006000b80040079800510798003f
:1020e8002e019000be0190001e00be00f3f907000b
:1020f80060079800710798004e019000de0190007b
:102108001e00be00c7fa0700000f9800110f9800c4
:10211800d04a8000e14a80006e019000fe019000e4
:10212800c0fa07001e01be0003f907000004be0044
:10213800d04a8000e14a80000001be000e089000ed
:102148009e089000ddf907000001be000800be00ef
:10215800f9f80700f0428800014388001e00be001d
:102168000004be0009f0a2000e0890009e0890002e
:102178000001be00f0f807000002be00d04a80004f
:10218800e14a80000001be000400be00cbf9070050
:102198000001be000800be00e6f8070010438800f2
:1021a80021438800d04a8000e14a80000001be0037
:1021b8000e0890009e089000c0f907003043880080
:1021c800414388004f04be000080fa00000006006a
:1021d8000400fa00889fbe00008fbe00f041800016
:1021e800014280001042880021428800d0418000ce
:1021f800e1418000f0418800014288001e01be00d4
:10220800d2418800e341880030428000414280008a
:102218005042880061428800d4418000e541800036
:10222800f0428000014380000001be000400be00af
:102238007cfa07000002be00504280006142800024
:102248000001be000400be00bbf807000004be0089
:10225800f441800005428000104380002143800043
:102268000001be000400be006efa07000001be00b7
:102278000800be00b0f807000004be001442800049
:102288002542800030438000414380000001be00a9
:102298000400be0063fa07000001be000800be008b
:1022a800a5f807003042880041428800304280008b
:1022b800414280004f04be000080fa000000060082
:1022c8000000fa0005e1a90005a1a90004c1a900c0
:1022d8000421a9008460a9009460a80000002000df
:1022e800a13724003d00070005e1a8000080fa009e
:1022f800000006003600f800809fbe00829fbe00e6
:10230800849fbe00869fbe000400fa008460a90076
:10231800730707002082800063006000e20f50000e
:102328000e003a00befb0700000f78001e00780080
:1023380010007800cf80de00e2f9070012c0b30079
:102348008e0207001e80e80010007800cf80de00b3
:10235800dcf9070022c0b300880207002082800051
:1023680063006000e30f50000f003a0011fd070002
:10237800100798001e00900010007800cf80de0043
:10238800d0f9070012c0b3007c0207001e009000bd
:102398000080e80010007800cf80de00c9f907004f
:1023a80022c0b3007502070010c0b300a0020700e6
:1023b80020c0b3009e02070030c0b3009c02070093
:1023c8000080fa004f03be004f02be004f01be005e
:1023d8004f00be003600f900004006000400fa0075
:1023e800881f7800008fbe00200880000040a100f0
:1023f8000050a100200888001e01be0000682900c6
:1024080081c124002df9070018c0b30002f02f0085
:10241800f37724006df907000000e00001003c009c
:102428000044eb000804e0004d0032002008800062
:102438000040a0000050a100200888001e01be0036
:102448000068290081c124001cf90700020020004f
:102458000310240019f9070018c0b30002f02f0078
:10246800f377240059f907000000e00001003c0060
:102478000044eb000804e0002e0032002008800031
:102488000040a1000050a000200888001e01be00e6
:102498000068290081c1240008f907000200200013
:1024a8000328240005f9070018c0b30002f02f0024
:1024b800f377240045f907000000e00001003c0024
:1024c8000044eb000804e0000f0032002008800000
:1024d8000040a0000050a000200888001e01be0097
:1024e8000068290081c12400f4f8070002002000d8
:1024f80003382400f1f8070036f9070000007800d7
:10250800100888001d0037001e01be000068290061
:1025180081c12400e9f807000200200003282400f4
:10252800e6f807002bf9070000007800100888007b
:10253800120037001e01be000068290081c1240076
:10254800def807000200200003102400dbf8070073
:1025580020f90700000078001008880007003700fd
:102568001e01be000068290081c12400d3f80700bd
:1025780018f9070000007800100888004f04780058
:102588000080fa00000006000000fa0011e1a9002e
:1025980011a1a90010c1a9001021a9000000200064
:1025a800011224000500070084e0a90094e0a800b7
:1025b80011e1a8000080fa00000006000400fa00fb
:1025c800881f7800008fbe00800880000040a100ae
:1025d8000050a100800888001e01be000068290084
:1025e80081c12400b5f8070018c0b30002f02f001d
:1025f800f3772400f5f807000000e00001003c0034
:102608000044eb000804e0004d0032008008800020
:102618000040a0000050a100800888001e01be00f4
:102628000068290081c12400a4f8070002002000e6
:1026380003102400a1f8070018c0b30002f02f000f
:10264800f3772400e1f807000000e00001003c00f7
:102658000044eb000804e0002e00320080088000ef
:102668000040a1000050a000800888001e01be00a4
:102678000068290081c1240090f8070002002000aa
:10268800032824008df8070018c0b30002f02f00bb
:10269800f3772400cdf807000000e00001003c00bb
:1026a8000044eb000804e0000f00320080088000be
:1026b8000040a0000050a000800888001e01be0055
:1026c8000068290081c124007cf80700020020006e
:1026d8000338240079f80700bef8070000007800e6
:1026e800600888001d0037001e01be000068290030
:1026f80081c1240071f8070002002000032824008b
:102708006ef80700b3f8070000007800600888003a
:10271800120037001e01be000068290081c1240094
:1027280066f80700020020000310240063f8070081
:10273800a8f8070000007800600888000700370044
:102748001e01be000068290081c124005bf8070053
:10275800a0f8070000007800600888004f0478009f
:102768000080fa00000006000000fa0084e0a900da
:1027780062a9a8000080fa00004006000000fa00e4
:1027880013e1a90013a1a90012c1a9001221a900ef
:1027980000002400c1612400050007008500a9008d
:1027a8009500a80013e1a8000080fa0000000600c8
:1027b8000400fa00881f7800008fbe00900880008f
:1027c8000040a1000050a100900888001e01be0032
:1027d8000068290081c1240038f8070018c0b30038
:1027e80002f02f00f377240078f807000000e000db
:1027f80001003c000044eb000804e0004d003200fa
:10280800900880000040a0000050a10090088800b7
:102818001e01be000068290081c1240027f80700b6
:10282800020020000310240024f8070018c0b30099
:1028380002f02f00f377240064f807000000e0009e
:1028480001003c000044eb000804e0002e003200c8
:10285800900880000040a1000050a0009008880067
:102868001e01be000068290081c1240013f807007a
:10287800020020000328240010f8070018c0b30045
:1028880002f02f00f377240050f807000000e00062
:1028980001003c000044eb000804e0000f00320097
:1028a800900880000040a0000050a0009008880018
:1028b8001e01be000068290081c12400fff707003f
:1028c8000200200003382400fcf7070041f8070045
:1028d80000007800700888001d0037001e01be0047
:1028e8000068290081c12400f4f7070002002000d5
:1028f80003282400f1f7070036f8070000007800e5
:1029080070088800120037001e01be000068290008
:1029180081c12400e9f70700020020000310240009
:10292800e6f707002bf80700000078007008880019
:10293800070037001e01be000068290081c124007d
:10294800def7070023f80700000078007008880009
:102958004f0478000080fa00000006003600f800f6
:10296800809fbe00829fbe00849fbe00869fbe00df
:10297800881f78000000fa008500a900900e070063
:10298800e80a070016c9bf000040e80016e9b700ca
:1029980016c9bf00e94f50002f003600804880005c
:1029a8009148800061004000e0804800804888002d
:1029b80091488800824880009348800000f92500eb
:1029c80011002000800f5100818f5900210036002e
:1029d80040c6b300dee8b700e00321008040eb000a
:1029e80001487800208280000000a1000010a100aa
:1029f8002082880012c0b3006000b800df00070022
:102a080022c0b3006000b800dc00070032c0b30089
:102a18006000b800d9000700f083800001848000be
:102a2800ecf7070000047800d0838000e183800081
:102a3800e8f707000000780088007800081607000b
:102a48008040eb000040eb003e160700e00120004c
:102a5800e50e07001669ef000080fa004f047800c1
:102a68004f03be004f02be004f01be004f00be0024
:102a78003600f900004006000000fa001fe1a90036
:102a88001fa1a9001ec1a9001e21a9008760a900d5
:102a98009760a80000002000a14724000300070059
:102aa8001fe1a8000080fa00000006000400fa00f8
:102ab800881f7800008fbe00f00880000040a10049
:102ac8000050a100f00888001e01be00006829001f
:102ad80081c1240079f7070018c0b30002f02f0065
:102ae800f3772400b9f707000000e00001003c007c
:102af8000044eb000804e0004d003200f0088000bc
:102b08000040a0000050a100f00888001e01be008f
:102b18000068290081c1240068f70700020020002e
:102b28000310240065f7070018c0b30002f02f0057
:102b3800f3772400a5f707000000e00001003c003f
:102b48000044eb000804e0002e003200f00880008a
:102b58000040a1000050a000f00888001e01be003f
:102b68000068290081c1240054f7070002002000f2
:102b78000328240051f7070018c0b30002f02f0003
:102b8800f377240091f707000000e00001003c0003
:102b98000044eb000804e0000f003200f008800059
:102ba8000040a0000050a000f00888001e01be00f0
:102bb8000068290081c1240040f7070002002000b6
:102bc800033824003df7070082f70700000078006b
:102bd800d00888001d0037001e01be0000682900cb
:102be80081c1240035f707000200200003282400d3
:102bf80032f7070077f7070000007800d008880050
:102c0800120037001e01be000068290081c124009f
:102c18002af70700020020000310240027f7070006
:102c28006cf7070000007800d0088800070037001c
:102c38001e01be000068290081c124001ff707009b
:102c480064f7070000007800d00888004f04780077
:102c58000080fa00000006003600f800809fbe00e1
:102c6800829fbe00849fbe00869fbe000000fa00bf
:102c78008760a9004e030700e00321001040780098
:102c88000080fb00f40f50000f003200f40f5000da
:102c980005003c000000e00012003200ea0f50007e
:102ca8000700320010003700fe0f50000800320005
:102cb80081022000810f5000070032000a0037000f
:102cc8006f0f070008003700d31007000600370011
:102cd800ac0e0700040037006b0a07000000000074
:102ce80001003700000000000080fa004f03be001a
:102cf8004f02be004f01be004f00be003600f90073
:102d0800004006000000fa00000e80000000a1004c
:102d18000010a100000e8800000e80000020a10015
:102d28000030a100000e8800000e80000040a100c5
:102d38000050a1000060a1000070a100000e8800f2
:102d4800803e2000200e8800c901a800c921a800e3
:102d5800c941a800ca41a800d521a800d501a800ea
:102d6800d561a800d541a800d5a1a800d581a800a3
:102d7800c1e1a8000080fa00000006000600fa0081
:102d8800008fbe004247980002002000832c2400d8
:102d98001e00be009d0b0700008fbe000200200031
:102da800832c2c001e00be00820b0700008fbe0083
:102db8004e4090000000fb00e20f50000e00320071
:102dc800e20f500003003c00e10f50000600320003
:102dd80015003700e30f50000b003200e40f5000dd
:102de8000d003200100037001e01be00628288000c
:102df800738288000c0037001e01be00c282880062
:102e0800d3828800080037001e01be0002838800b4
:102e180013838800040037001e01be004283880027
:102e280053838800000000000080fa0000000600bc
:102e38000600fa00889fbe00404798006000b8006e
:102e4800008fbe0020828000630060000000e00068
:102e580023003a004e4090000080fb00e20f500033
:102e68000f003200e20f500003003c00e10f500059
:102e78000600320058013700e30f50000d00320001
:102e8800e40f5000110032005301370060828000c7
:102e98007182800080828800918288004e0137000c
:102ea800c0828000d1828000e0828800f1828800a0
:102eb8004901370000838000118380002083880047
:102ec8003183880000000000430137004083800000
:102ed8005183800060838800718388003e01370039
:102ee8004e4090000080fb00e20f5000800032004e
:102ef800e20f500003003c00e10f500006003200d2
:102f080035013700e30f5000ef003200e40f5000a6
:102f18001e0132003001370068828000798280000b
:102f280040828000518280000200200003122400a9
:102f380062f607000001be000800be007df507002c
:102f4800008fbe001e00be00930c07008082880020
:102f58009182880080828000918280000200200097
:102f6800832c2400290b0700808288009182880026
:102f7800808280009182800002002000832c2c0037
:102f88000c0b070080828800918288008082800074
:102f98009182800018c0b30002002000c3282400da
:102fa8008af607000000e00001003c000044eb0046
:102fb8000804e00010003200824880009348800036
:102fc800c0488000d148800000015100818159002b
:102fd800401f200001002000800f5100818f590000
:102fe80024003600104b80000090a00000a0a10033
:102ff800104b88001f00370080828000918280007b
:1030080018c0b30002002000c3282c006df607008a
:103018000000e000010035000044eb000804e00077
:10302800100032008248800093488000c048800029
:10303800d14880000001510081815900401f2000c3
:1030480001002000800f5100818f590009003600cf
:10305800104b80000090a10000a0a000104b880039
:10306800040037008048800091488000c0488800ec
:10307800d1488800808280009182800018c0b30007
:103088006011b80051f607000000e00001003c00a4
:103098000044eb000804e00004003200c801a90065
:1030a800cde2a800c881a80003003700c881a900a4
:1030b800cdc2a800c801a80080828000918280004b
:1030c800a90a070002002000031a2400d5f6070009
:1030d8000001be0000002000812c240015f5070027
:1030e8005df6070000007800b00e8800ba003700cf
:1030f800c8828000d9828000a0828000b1828000ce
:103108000200200003122400ecf507000001be00b5
:103118000800be0007f50700008fbe001e00be00b5
:10312800590c0700e0828800f1828800e082800064
:10313800f182800002002000832c2400b30a0700db
:10314800e0828800f1828800e0828000f1828000bd
:1031580002002000832c2c00960a0700e0828800d9
:10316800f1828800e0828000f182800018c0b300fc
:1031780002002000c328240014f607000000e00025
:1031880001003c000044eb000804e000100032009d
:103198008248800093488000e0488000f148800021
:1031a8000001510081815900401f200001002000ca
:1031b800800f5100818f590024003600104b800089
:1031c8000070a0000080a100104b88001f0037008d
:1031d800e0828000f182800018c0b3000200200065
:1031e800c3282c00f7f507000000e00001003500b7
:1031f8000044eb000804e000100032008248800020
:1032080093488000e0488000f148800000015100a8
:1032180081815900401f200001002000800f5100cb
:10322800818f590009003600104b80000070a10002
:103238000080a000104b8800040037008048800000
:1032480091488000e0488800f1488800e0828000ca
:10325800f182800018c0b3006011b800dbf50700e8
:103268000000e00001003c000044eb000804e0001e
:1032780004003200c8a1a900cd82a800c821a80076
:1032880003003700c821a900cda2a800c8a1a80042
:10329800e0828000f1828000330a070002002000eb
:1032a800031a24005ff607000001be00000020009a
:1032b800812c24009ff40700e7f507000000780040
:1032c800c00e88004400370000838000118380000e
:1032d8002083880031838800208380003183800028
:1032e80002002000832c2400480a0700208388005d
:1032f8003183880020838000318380000200200011
:10330800832c2c002b0a0700208388003183880037
:10331800208380003183800018c0b3006011b8009a
:10332800aaf507000000e00001003c000044eb00a3
:103338000804e00004003200c8c1a900cd42a8007a
:10334800c841a80003003700c841a900cd62a80001
:10335800c8c1a8002083800031838000020a0700ca
:1033680002002000031a24002ef607000001be0008
:1033780000002000812c24006ef40700b6f5070039
:1033880000007800d00e88001300370040838000ca
:103398005183800060838800718388006083800087
:1033a8007183800002002000832c2400170a070084
:1033b8006083880071838800608380007183800047
:1033c80002002000832c2c00fa0907006083880083
:1033d80071838800000000006249a8004f04be0005
:1033e8000080fa00000006001200fa000000eb005e
:1033f800000f780080488000914880004808de006f
:10340800804078000e80e8001e00400001487800e7
:103418001e0fe80080488000914880004008de00c8
:10342800804078000e80e8001e00400001487800c7
:103438001e0fe80080488000914880004809dd00a0
:103448004800de0000007100c808de0080407800f7
:103458000e80e8001e004000014878001e0fe800ba
:103468008048800091488000804078000e80e80005
:103478001e004000014878001e0fe80060828000ae
:103488007182800053f50700000078004880de0054
:10349800804078000e80e8001e0040000148780057
:1034a8001e0fe800608280007182800049f50700e5
:1034b80000007800804078000e80e8001e00400080
:1034c800014878001e0fe800408280005182800089
:1034d8000200200003122400f8f407003df507005d
:1034e800000078004880de00804078000e80e80008
:1034f8001e004000014878001e0fe800408280004e
:10350800518280000200200003122400ebf407001f
:1035180030f5070000007800804078000e80e80051
:103528001e004000014878001e0fe80080828000dd
:103538009182800027f50700000078004880de00af
:10354800804078000e80e8001e00400001487800a6
:103558001e0fe80080828000918280001df5070020
:1035680000007800804078000e80e8001e004000cf
:10357800014878001e0fe800c0828000d1828000d8
:1035880014f50700000078004880de0080407800cd
:103598000e80e8001e004000014878001e0fe80079
:1035a800c0828000d18280000af507000000780000
:1035b800804078000e80e8001e0040000148780036
:1035c8001e0fe800a0828000b18280000200200067
:1035d80003122400b9f40700fef407000000780085
:1035e8004880de00804078000e80e8001e00400021
:1035f800014878001e0fe800a0828000b182800098
:103608000200200003122400acf40700f1f40700c4
:1036180000007800804078000e80e8001e0040001e
:10362800014878001e0fe800e0828000f1828000e7
:10363800e8f40700000078004880de008040780049
:103648000e80e8001e004000014878001e0fe800c8
:10365800e0828000f1828000def40700000078003c
:10366800804078000e80e8001e0040000148780085
:103678001e0fe8000e80e800000178009e00780028
:10368800200a2000750407000080fa0000000600e8
:103698001000fa003f1307003e12070008fb07005e
:1036a800b9fb070035fc0700f3fc070095fd070090
:1036b800d11107000f120700340207005b02070050
:1036c800910607005c13070000802400811e20007b
:1036d8007a1307002e0e0700850d0700400620000c
:1036e800650b070040062000790b07004006200004
:1036f800a70b070040062000bb0b07004006200070
:10370800e90b070032c0b3006000b8009bfd07005a
:10371800d2cc2c00c3d423000000200001042400d4
:103728000a0a070020952400d1a923004007980021
:103738005107980020e62b00c18b230060079800f2
:1037480071079800f026210031b823009ef9070080
:1037580060ba290041b4230014fa07006e019000f2
:10376800fe019000f0282c0051cf230053f40700ed
:10377800d0848800e184880000002800b15b240020
:1037880030858800418588004e019000de01900058
:10379800f0282c0051df230048f40700f08488004b
:1037a8000185880000002c00a155240010858800a0
:1037b80021858800c4e2a900c522a900c542a90044
:1037c8000000eb00000f78000000eb0010079800e5
:1037d8000000eb00200798000000eb00300798007d
:1037e8009116800000202000008060000000e000aa
:1037f80009003a000000eb004b0b07000000eb004b
:10380800560b07000000eb008d0b07000000eb00d3
:10381800980b0700de68ef0082488000934880001c
:1038280000f9250011002000800f5100818f5900f8
:103838000200360040c6b300dee8b700104b800037
:10384800610060000000e0000c0032006209a9007d
:1038580010c0b3009e007800f88f500001003c00b3
:103868000040eb001e0fe8000004e00003003200f7
:10387800830307000000eb00000f7800104b800066
:10388800620060000000e0000e0032006229a9001a
:1038980010c0b3009e009000f88f500001003c005b
:1038a8000040eb009e0090008100e800110798009e
:1038b8000004e00003003200b20307000000eb0040
:1038c80010079800104b8000640060000000e000c2
:1038d8000e0032006249a90010c0b300be0090007b
:1038e800f88f500001003c000040eb00be00900043
:1038f8008100e800310798000004e000030032006e
:10390800b9fe07000000eb0030079800104b80005c
:10391800680060000000e0000e0032006269a90043
:1039280010c0b300ae009000f88f500001003c00ba
:103938000040eb00ae0090008100e80021079800ed
:103948000004e0000300320005f807000000eb0067
:1039580020079800114b80000002200000806000c2
:103968000000e0000700320062a9a900ff0c070070
:10397800410d070004003700d70e070012040700a6
:103988000100370000000000e70e07000004e00017
:10399800f9ff3a0002003700551007007a040700c3
:1039a800631007000004e000fbff3a008cff3700bb
:1039b8000000fa00dec8bf000080fb00a10520005f
:1039c800810f500038003200a1052000810f5000ff
:1039d80005003c000000e0000d003200e10f50003f
:1039e8001e0032007300370041062000810f50008e
:1039f8006300320051062000810f50007000320031
:103a0800b1052000810f50002b00320069003700fb
:103a18001029ef001229ef00e00321008040eb009d
:103a2800014878008040eb000040eb0031120700ad
:103a380032c0b3006000b800d0fc0700f50b0700e7
:103a48005a0d0700310b0700f4060700ff000700b6
:103a580010c0b300dee8b7005a00370091168000a6
:103a680000202000008060000000e000020032001a
:103a7800a0c5b300dee8b7000000eb00da0a0700d3
:103a88000000eb00c20a07000000eb00900a0700e4
:103a98000000eb00780a0700500421008040eb008a
:103aa8000148780047003700e8000700b0c5b300b8
:103ab800dee8b700430037005004210010407800ca
:103ac8000080fb00e80f50001a003200e80f500099
:103ad80005003c000000e00009003200e10f500042
:103ae8001000320021003700e90f500016003200a4
:103af80041062000810f50001b0032001b003700d8
:103b080062fa2f00810c200050412000a10207001a
:103b1800ce0007005004210011c0b300014878000e
:103b2800160037005004210081c0b3000148780016
:103b380012003700cb0607005004210091c0b300e3
:103b4800014878000d003700bb0607000004e000bc
:103b5800040032005004210041c6b3000148780037
:103b6800e628ef0005003700040037005004210064
:103b780041c0b30001487800000000001100370080
:103b8800e00321008040eb000148780022c0b30028
:103b98006000b80079fc070012c0b3006000b800ec
:103ba80076fc0700a900070050c6b300dee8b7009e
:103bb80004003700de68ef00000000000100370055
:103bc800000000000080fa00000006000200fa0071
:103bd800881f78000040eb00004f7800d046800036
:103be800e146800018c0b30002002000031f240033
:103bf80074f307000000e000010035000044eb000a
:103c08000804e00019003200b0468000c146800078
:103c180018c0b30002002000031f24006bf3070044
:103c28000000e00001003c000044eb000804e00054
:103c38000e00320090468000a146800018c0b300f4
:103c480002002000031f240060f307000000e000ca
:103c580001003c000044eb000804e00003003200cf
:103c680020c0b300004f780055003700d0468000d0
:103c7800e146800018c0b30002002000031f2400a2
:103c880052f307000000e00001003c000044eb0094
:103c98000804e00019003200b0468000c1468000e8
:103ca80018c0b30002002000031f240047f30700d8
:103cb8000000e00001003c000044eb000804e000c4
:103cc8000e00320090468000a146800018c0b30064
:103cd80002002000031f24003af307000000e00060
:103ce800010035000044eb000804e0000300320046
:103cf80010c0b300004f780031003700b046800094
:103d0800c146800018c0b30002002000031f240031
:103d18002cf307000000e000010035000044eb0030
:103d28000804e0000300320030c0b300004f780000
:103d380023003700d0468000e146800018c0b30059
:103d480002002000031f240020f307000000e00009
:103d580001003c000044eb000804e00018003200b9
:103d6800b0468000c146800018c0b30002002000a1
:103d7800031f240015f307000000e00001003c00c9
:103d88000044eb000804e0000d003200904680007b
:103d9800a146800018c0b30002002000031f2400c1
:103da8000af307000000e00001003c000044eb00bb
:103db8000804e000020032000040eb00004f7800e9
:103dc8001e4078000004e00003003a0020c0b30061
:103dd800dfe8b700110037001e407800e24f5000be
:103de80003003a0040c0b300dfe8b7000b0037001b
:103df8001e407800e14f500003003a0060c0b30055
:103e0800dfe8b700050037001e407800e34f500098
:103e180002003a0080c0b300dfe8b700dfc8bf0087
:103e28008080fb00dec8bf000080fb000000e900c6
:103e3800808f500002003200dfc8bf00dee8b70004
:103e48004f0478000080fa00000006000c00fa0019
:103e58000040eb00004f78000000eb0010079800ce
:103e6800120037001e81fb008048800091488000c6
:103e78009e019000c319dd00030278000402e900e6
:103e8800030033008100d1000080d300fbff37001e
:103e98008040780002004700414098001e4fe8002b
:103ea8001e0090000000e800100798001e00900017
:103eb800e30f5000ebff34001e80fb00e18d200073
:103ec8009140780000004700414098001e4fe800ec
:103ed8001e80fb006104210091407800000047002b
:103ee800414098001e4fe8001e80fb00610421003d
:103ef8009140780000004700414098001e4fe800bc
:103f08001e80fb00610421009140780000004700fa
:103f1800414098001e4fe800640047000001780007
:103f280051002000000520004c0207000080fa0024
:103f3800000006000200fa00004f78001e80fb0017
:103f48000000ea004f00de0000407800e4e8b70017
:103f5800e4c8bf000004e000040032000040eb00a9
:103f6800040007001029ef001229ef000080fa0072
:103f7800000006000200fa00004f78001e4078009a
:103f8800dee8b7000080fa00000006000000fa0032
:103f9800000f80000080a1000090a10000a0a100f7
:103fa800000f8800e1e1a900e0e1a900e0c1a90053
:103fb800e041a900e421ef000080eb00300f880009
:103fc800000f80000080a0000090a00000a0a000ca
:103fd800000f88008b40a9009b40a8000080fa00d1
:103fe80000000600809fbe000000fa008b40a90078
:103ff800010f800000802000008060000000e000c9
:1040080004003200704580000000e8007045880018
:1040180003003700704580000000e9007045880003
:104028000080fa004f00be00004006000000fa00c1
:10403800800f80000080a1000090a10000a0a100d6
:10404800800f8800f1e1a900f0e1a900f0c1a90002
:10405800f041a900f421ef000080eb00b00f8800c8
:10406800800f80000080a0000090a00000a0a000a9
:10407800800f88008d60a9009d60a800c045800061
:10408800cf80de008ff20700d0458800e145880028
:104098000080fa0000000600809fbe000000fa00c1
:1040a8008d60a900810f80000080200000806000e2
:1040b8000000e00004003200c04580000000e80075
:1040c800c045880003003700c04580000000e900b3
:1040d800c04588000080fa004f00be00004006007e
:1040e8000000fa00889fbe0080458000914580004e
:1040f800a0458800b1458800d0458000e145800092
:10410800f04588000146880070458000cf80de00b9
:10411800c001dd0002002000200f80008000eb00bd
:10412800020040008380480066f20700804588004e
:1041380091458800c0458000cf80de00c001dd00c9
:1041480002002000a00f80008000eb000200400069
:10415800838048005bf20700d0458800e14588006d
:104168008045800091458000d25d2b0043c8230024
:10417800acf207008045880091458800d045800052
:10418800e1458000d25d2b0043c82b00a5f2070053
:10419800d0458800e1458800844580009545800029
:1041a800a0458000b14580000001be000400be00ab
:1041b800e0f0070018c0b30002002000832c2400a0
:1041c80002f207000000e00001003c000044eb00a0
:1041d8000804e00010003a008445800095458000fe
:1041e800a0458000b14580000001be000400be006b
:1041f800d0f0070018c0b30002002000832c2c0068
:10420800f0f107000000e000010035000044eb0079
:104218000804e00004003200a0458000b145800099
:104228008045880091458800d4458000e545800098
:10423800f0458000014680000001be000400be0079
:10424800bcf0070018c0b30002002000832c240033
:10425800def107000000e00001003c000044eb0034
:104268000804e00010003a00d4458000e5458000cd
:10427800f0458000014680000001be000400be0039
:10428800acf0070018c0b30002002000832c2c00fb
:10429800ccf107000000e000010035000044eb000d
:1042a8000804e00004003200f04580000146800068
:1042b800d0458800e1458800844580009545800008
:1042c800a0458000b14580000001be000400be008a
:1042d80098f0070002002000a337240051f20700dd
:1042e8004082880051828800d4458000e5458000de
:1042f800f0458000014680000001be000400be00b9
:104308008cf0070002002000a337240045f20700c4
:10431800a0828800b182880084458000954580008d
:10432800a0458000b14580000001be000400be0029
:1043380080f007001046880021468800d445800098
:10434800e5458000f0458000014680000001be0080
:104358000400be0077f00700304688004146880018
:104368001446800025468000304680004146800083
:104378000001be000400be006ef00700a2992900eb
:10438800533324004df10700e5f00700504688003c
:10439800614688001446800025468000304680002b
:1043a800414680000001be000400be0062f0070024
:1043b800020020000300240040f107007046880036
:1043c80081468800704680008146800018c0b3008e
:1043d80002002000031f24007cf107000000e00019
:1043e80001003c000044eb000804e0000300320038
:1043f8006000b8007046880081468800d08380003d
:10440800e18380001084880021848800f083800084
:1044180001848000308488004184880050848000b2
:1044280061848000708488008184880018848000fa
:1044380029848000508480006184800096f20700ff
:104448000002be0005f0a200704680008146800090
:104458000001be000400be00f2f107000001be002a
:104468000800be0034f00700d0838800e18388008c
:1044780038848000498480005084800061848000f2
:104488000cf107000002be007046800081468000e3
:104498000001be000400be00e2f107000001be00fa
:1044a8000800be0024f00700f0838800018488001b
:1044b80074848000858480005046800061468000b6
:1044c8000001be000400be001bf0070050848800f5
:1044d80061848800508480006184800018c0b30023
:1044e800b2fd20009304240038f107000000e0002a
:1044f80001003c000044eb000804e0000700320023
:104508005084800061848000b2fd2000930c240058
:1045180008f0070050848800618488005084800077
:104528006184800018c0b300b2fd200093042c0001
:1045380024f107000000e000010035000044eb0012
:104548000804e00007003200508480006184800085
:10455800b2fd2000930c2400f7ef07005084880078
:10456800618488006209a8006229a8004f04be007f
:104578000080fa00000006000000fa000001eb00cd
:104588008000eb000000eb00020007000080fa004a
:10459800000006000600fa00000f780011079800d6
:1045a80022079800ae28ef00b828ef00e421ef00ba
:1045b800f421ef006000b800a0458800b1458800ec
:1045c8006000b800f0458800014688006000b80027
:1045d80080458800914588006000b800d045880073
:1045e800e14588001e007800cf80de0035f1070025
:1045f800d0838800e1838800901680006200600004
:104608000000e00008003200d0838000e1838000d1
:104618000001be0000002000a14f2400c5ef0700e4
:10462800d0838800e18388001e009000cf80de00e0
:1046380024f10700f0838800018488002e00900090
:10464800cf80de001ff107002a060700508488008b
:104658006184880090168000620060000000e0001d
:1046680005003200508480006184800001f0a200bf
:1046780050848800618488000080fa0000000600e9
:104688001200fa00881f78000000eb00000f780085
:1046980031003700310020001e8450008045800022
:1046a80091458000cbf00700800078001e0078005c
:1046b8004300dd000088de008040780008004700e5
:1046c80021409800710020001e845000d0458000d1
:1046d800e1458000bff00700800078001e007800e8
:1046e8004300dd000088de008040780008004700b5
:1046f80021409800b10020001e84500040828000b4
:1047080051828000b3f00700800078001e00780016
:104718004300dd000088de00804078000800470084
:1047280021409800f10020001e845000a0828000e3
:10473800b1828000a7f00700800078001e00780092
:104748004300dd000088de00804078000800470054
:10475800214098001e0fe8001e007800e30f50006b
:10476800ccff34000e80e800000178000101200031
:1047780000062000390007004f0478000080fa0086
:10478800000006000e00fa00881f78000000eb0009
:10479800000f780026003700310020001e845000ea
:1047a800d0838000e18380008af0070080007800d1
:1047b8001e0078004300dd000088de00804078009d
:1047c8000800470021409800710020001e84500016
:1047d800f0838000018480007ef00700800078006c
:1047e8001e0078004300dd000088de00804078006d
:1047f8000800470021409800b10020001e845000a6
:104808005084800061848000af05070071f00700c4
:10481800800078001e0078004300dd000088de007c
:104828008040780008004700214098001e0fe800eb
:104838001e007800e30f5000d7ff34000e80e80018
:1048480000017800c10020001006200003000700c6
:104858004f0478000080fa00000006000e00fa00fd
:10486800889fbe004007980051079800620798008b
:104878000f0478000f007800800478005e00900034
:10488800660040008000e900210798000000e80069
:104898000000e8000000d100800040000f00780010
:1048a800818747000000e8000000d10000004000b8
:1048b800300798000000eb00000f78000000eb00c4
:1048c800100798003e0090001e004000e1cfb300a2
:1048d800014878001e0fe8004e0090004880de0076
:1048e800804078003e0090001e004000014878009b
:1048f8001e0fe8004e009000804078003e009000b7
:104908001e004000014878001e0fe8005e0090007d
:104918004880de00804078003e0090001e00400085
:10492800014878001e0fe8005e0090008040780083
:104938003e0090001e004000014878001e0fe8006d
:104948000000eb00100798000b0037001e009000d5
:10495800ee00900000804000904078003e009000fb
:104968001e004000014878001e0fe8001e0090005d
:104978000000e800100798009e0090005e0090007c
:10498800808f5000f1ff35006e019000de0090002e
:104998004e009000ec000700be0090009e80400092
:1049a800804878005e009000e60040003e009000dd
:1049b800440b070089077800880778004f04be0079
:1049c8000080fa00000006000400fa002047980062
:1049d800f6c8bf000080fb00e30f50002200320041
:1049e800e30f500007003c00e10f500012003200b6
:1049f800e10f500014003c000000e0000800320005
:104a080059003700e50f500032003200e50f500022
:104a18001c003500e60f50003f00320052003700fe
:104a28002e409000e24f400052003a0010c0b30000
:104a3800f6e8b70052003700f768ef0020c0b3006f
:104a4800f6e8b7004e003700718f200091407800db
:104a58002e40900000c04000f7e8b70030c0b30017
:104a6800f6e8b700460037002e4090000080fb00b3
:104a78004800dd00c047880040c0b300f6e8b70032
:104a88003f0037002e4090008080fb00c047800028
:104a980000804000c0478800c1478000000820000f
:104aa800808f500002003600f668ef0034003700af
:104ab800c04780000000e00003003a0060c0b30077
:104ac800f6e8b7002e00370050c0b300f6e8b7008c
:104ad8002b003700fac8bf000080fb00e1cb2000a4
:104ae8002e41900082707800fac8bf000040e800ac
:104af800fae8b700fac8bf008080fb00c047800012
:104b0800808f50001d003a00fa68ef0060c0b300c3
:104b1800f6e8b7001a003700c04780008000780028
:104b2800f7c8bf000080fb00e2cb2000860007002a
:104b3800004f7800ae409000114798001e4090004a
:104b48009e40780080cf500005003a00c0478000a2
:104b580080407800f7c8bf00e2cb2000a40007001f
:104b6800f668ef0006003700f668ef000000000066
:104b780003003700000000000100370000000000bb
:104b88000080fa00000006000400fa0020479800a0
:104b9800fbc8bf000080fb00e30f5000220032007a
:104ba800e30f500007003c00e10f500012003200f4
:104bb800e10f500014003c000000e0000800320043
:104bc80059003700e50f500032003200e50f500061
:104bd8001c003500e60f50003f003200520037003d
:104be8002e409000e24f400052003a0010c0b3003f
:104bf800fbe8b70052003700fc68ef0020c0b300a4
:104c0800fbe8b7004e003700c18f200091407800c4
:104c18002e40900000c04000fce8b70030c0b30050
:104c2800fbe8b700460037002e4090000080fb00ec
:104c38004800dd00f047880040c0b300fbe8b7003b
:104c48003f0037002e4090008080fb00f047800036
:104c580000804000f0478800f147800000082000ed
:104c6800808f500002003600fb68ef0034003700e8
:104c7800f04780000000e00003003a0060c0b30085
:104c8800fbe8b7002e00370050c0b300fbe8b700c0
:104c98002b00370000c9bf000080fb00e1d32000d3
:104ca8002e4190008270780000c9bf000040e800e3
:104cb80000e9b70000c9bf008080fb00f047800012
:104cc800808f50001d003a000069ef0060c0b300fb
:104cd800fbe8b7001a003700f04780008000780032
:104ce800fcc8bf000080fb00e2d3200016000700cc
:104cf800004f7800ae409000114798001e40900089
:104d08009e40780080cf500005003a00f0478000b0
:104d180080407800fcc8bf00e2d3200034000700c0
:104d2800fb68ef0006003700fb68ef00000000009a
:104d380003003700000000000100370000000000f9
:104d48000080fa00000006000a00fa002007980018
:104d580031079800420798000040eb00004f7800a8
:104d68000000eb0010079800e0cfb3001e4f68006a
:104d78002e0090004880de00004078001e4f68003a
:104d88002e009000004078001e4f68003e00900002
:104d98004880de00004078001e4f68003e0090000a
:104da800004078001e4f68000000eb0010079800d4
:104db800080037001e009000ce00900000804000e0
:104dc800104078001e4f68001e0090000000e800a8
:104dd800100798009e0090003e009000808f5000c1
:104de800f4ff35001e4078000080fa00000006003d
:104df8001400fa000057980011579800120f9800f5
:104e08000e5090000080fb0021062000810f50000a
:104e18001f00320021062000810f50000a003c00cc
:104e280021052000810f50001500320031052000b7
:104e3800810f50004300320011052000810f5000ff
:104e48000b003200ae00370021092000810f50000e
:104e580077003200010a2000810f50005000320014
:104e680011072000810f500069003200a4003700ac
:104e78001e089000104078003efc0700a000370094
:104e88001e089000104078002afc07009c0037009c
:104e98001e509000e64f500090003a000000eb00d2
:104ea800000f78000000eb00100798000000eb00ee
:104eb800200798001e089000104078000080fb0032
:104ec800c800dd001e0890000000e80010407800cf
:104ed8000080fb00008f40001e0890000080e80062
:104ee800104078000080fb00c800dd001e0890001c
:104ef80063004000104078000080fb000080400004
:104f0800100798001e0890006400400010407800c8
:104f18000080fb00c800dd001e089000650040000e
:104f2800104078000080fb000080400020079800b7
:104f38002e0190009e0090001e00780095fd07004d
:104f48006f0037001e509000e24f500065003a0095
:104f5800208280000000a0000010a10020828800ac
:104f68001e089000104078000080fb008000eb00d5
:104f7800d7ee070012c0b30080f707001e089000a4
:104f88000000e800104078000080fb008000eb0083
:104f9800cfee070022c0b30078f7070058003700ab
:104fa8001e509000e44f500050003a001e08900038
:104fb800104078000080fb00c800dd001e0890004b
:104fc8000000e800104078000080fb0000804000ee
:104fd800300798001e0890000080e8001040780014
:104fe8000080fb00c800dd001e0890006300400040
:104ff800104078000080fb000080400040079800c7
:10500800ce0090003e009000950c07003c00370051
:105018001e509000e14f500036003a001e089000e4
:10502800904078008007210001487800340037005c
:105038001e509000ea4f500030003a001e089000c1
:1050480064004000104078000080fb00c800dd00cc
:105058001e08900065004000104078000080fb00aa
:1050680000804000500798001e089000660040002d
:10507800104078000080fb00c800dd001e0890008a
:1050880067004000104078000080fb00008040006e
:10509800600798001e0890006800400010407800e3
:1050a8000080fb00c800dd001e0890006900400079
:1050b800104078000080fb000080400070079800d6
:1050c800de00900091848800ee009000a1848800a2
:1050d800fe009000b184880009003700000000003d
:1050e800070037000000000005003700000000003e
:1050f8000300370000000000010037000000000036
:105108000080fa00000006000000fa009018200055
:105118002010880070e7a90007e2a900c8a2a9002a
:10512800c8c2a900cca2a900ccc2a900803e200018
:1051380001002000e10c0700cca2a800ccc2a80006
:1051480007a2a8000782a8000762a9000742a900d1
:105158000722a9000702a90006e2a90006c2a900c1
:1051680006a2a90007e2a8009620a9009600a900b7
:10517800030107000080fa00000006000800fa009a
:105188002047980031479800220798003307980075
:1051980007e2a800fa0007000602a800e7000700d7
:1051a8000000000030108000610060000000e00096
:1051b80004003200b14a8000703e2000808f500009
:1051c800f8ff3600b14a8000703e2000808f500002
:1051d80001003600dd000700ae409000e0cfb300cc
:1051e80000c06000720007003e4090007000070099
:1051f8000622a800d100070000000000301080003f
:10520800620060000000e00004003200b14a800043
:10521800703e2000808f5000f8ff3600b14a8000b1
:10522800703e2000808f500001003600c700070044
:105238002e4090000004a0005d0007000000eb0075
:10524800000f7800120037009e0078003e009000a2
:105258000000e900808f5000050032000000eb00dc
:1052680078000700ae0090008048780004003700fe
:105278001000200073000700ae00900080487800fe
:105288002e0090000000e800200798001e0fe8009c
:105298009e0078003e009000808f5000eaff3900a1
:1052a8000642a800a500070000000000301080009a
:1052b800640060000000e00004003200b14a800091
:1052c800703e2000808f5000f8ff3600b14a800001
:1052d800703e2000808f5000010036009b000700c0
:1052e800a70007000080fa00000006000400fa008a
:1052f800004f7800114798002247980007e2a8005d
:105308009f0007000602a8008c00070000000000ac
:1053180030108000610060000000e00004003200ee
:10532800b14a8000703e2000808f5000f8ff3600a0
:10533800b14a8000703e2000808f50000100360086
:1053480082000700e0cfb3001e406000180007008d
:105358001e409000160007002e4090001400070021
:105368000642a80075000700000000003010800009
:10537800640060000000e00004003200b14a8000d0
:10538800703e2000808f5000f8ff3600b14a800040
:10539800703e2000808f5000010036006b0007002f
:1053a800770007000040eb000080fa0000000600cc
:1053b8000200fa00004f78001e80fb0010108800e1
:1053c8005e000700000000004010800061006000df
:1053d8000000e00004003200b14a8000703e200066
:1053e800808f5000f8ff3600b14a8000703e2000e0
:1053f800808f500001003600540007004f0007005e
:1054080000000000411080000000240000806000bf
:105418000000e00004003200b14a8000703e200025
:10542800808f5000f7ff3600b14a8000703e2000a0
:10543800808f500001003600440007000080fa0009
:10544800000006000400fa0010079800003a8000e7
:105458004500de0061406000004f7800480007000a
:105468000662a80035000700000000004010800018
:10547800620060000000e00004003a00b14a8000c9
:10548800703e2000808f5000f8ff3600b14a80003f
:10549800703e2000808f5000010036002b0007006e
:1054a8000010800010479800350007001e0090008b
:1054b80000407800614060000080fb0061006000ef
:1054c8004500dd0032108000f1fd2f0081006100f1
:1054d80001007000301088000682a800170007003d
:1054e8000000000030108000700060000000e00044
:1054f80004003200b14a8000703e2000808f5000c6
:10550800f8ff3600b14a8000703e2000808f5000be
:10551800010036000d0007001e4090000080fa00d0
:10552800000006000000fa00b04a80000000e80011
:10553800b04a88000080fa00000006000000fa0067
:105548005629ef000080fa00000006000000fa006b
:1055580010c0b30058e9b7000080fa000000060048
:105568000000fa005869ef000080fa000000060009
:105578000000fa0058c9bf000080fa0000000600c9
:105588000000fa00edff0700000000003010800066
:10559800610060000000e00015003a003010800053
:1055a800640060000000e00011003a003010800044
:1055b800680060000000e0000d003a003010800034
:1055c800620060000000e00009003a00301080002e
:1055d800700060000000e00005003a004110800003
:1055e80000002400008060000000e0000400320099
:1055f800b14a8000703e2000808f5000e3ff3600e3
:10560800b14a8000703e2000808f500001003600b3
:10561800ceff07000080fa00000006000000fa0034
:10562800e0602000a0498800800c2000b049880074
:105638000080fa00000006000000fa006004210063
:105648009040780070c5b30080cf500002003a0047
:1056580010c0b300010037000040eb000080fa00e2
:10566800000006000000fa00e003210081c2b30038
:10567800014878006004210061c4b3000148780043
:105688000080fa00000006000000fa006004210013
:10569800104078000080fb006101b900a0fb2f00da
:1056a800f1ff2f00020040008380480042022000e2
:1056b80003002000820f5000838f5800e3003e0053
:1056c8000060010024003700310037005b0037001c
:1056d80062003700650037006a0037006d00370048
:1056e800720037007e0037008300370086003700dd
:1056f8008b0037008e003700990037009c00370078
:105708009e003700cf003700d5003700cf003700a4
:10571800ce003700400037004400370067003700ec
:105728006b0037001e0037002300370025003700c4
:105738003500370095003700990037009c00370086
:10574800a0003700a3003700b0003700bf003700c3
:10575800b8003700b100370013c0b300820c200036
:10576800e160200070042000670a07000000eb00d9
:105778006d0307000000eb00780307000000eb0052
:10578800af0307000000eb00ba030700b5003700bd
:1057980001712200e0c5b300820a0700b10037009a
:1057a80013c0b300221c2000e1602000f005200097
:1057b800550a0700ab0037000171220000c6b3008c
:1057c800780a0700c04980000000e800c049880046
:1057d80013c0b300c22b2000d17520001006200092
:1057e800490a07000000eb004f0307000000eb0028
:1057f8005a0307000000eb00910307000000eb00cc
:105808009c0307009700370001712200a0c5b30070
:10581800640a0700930037006000b800a70a070071
:10582800b0052000530a07008e003700017d2000d4
:1058380080c4b3005b0a07008a00370013c0b300b6
:1058480022212000d1752000900420002e0a070094
:10585800f00520003403070082003700017d200096
:10586800a0c4b3004f0a07007e00370013c0b3007e
:1058780052372000e1742000b0042000220a0700fb
:105888007800370081bb2000c0c4b300450a070078
:105898007400370013c0b300c22b2000d17520005c
:1058a800d0042000180a07006e00370081bb2000d2
:1058b800c0c5b3003b0a07006a003700d0052000c6
:1058c8002c0a070020032000170307006500370093
:1058d800411f2000e0c4b300320a0700610037000e
:1058e80013c0b300c22b2000416a2000f00420003e
:1058f800050a07005b00370081bb200000c5b30024
:10590800280a0700570037008041eb00e2472000d3
:10591800416a200010052000fb09070051003700ec
:105928008138210020c5b3001e0a07004d0037004a
:10593800c04980000000e9006600b90080007800d6
:10594800e07420000080400013c0b300e24720004c
:105958008000780030052000eb090700410037007f
:1059680081bb200040c5b3000e0a07003d00370088
:1059780050052000ff0907003a00370081bb2000ce
:1059880020c6b300070a07003600370020032000ae
:10599800e502070030062000f6090700310037004d
:1059a800411f200040c6b300fe0907002d00370044
:1059b800200320002203070050062000ed090700fd
:1059c80028003700411f200060c6b300f509070012
:1059d800240037000000eb00d30207000000eb00b2
:1059e800de0207000000eb00150307000000eb00d3
:1059f8002003070013c0b300e2472000416a2000db
:105a080070062000c00907001600370081bb20007f
:105a180000c6b300e30907001200370013c0b30043
:105a2800c22b2000416a200070062000b60907003a
:105a38000c00370081bb200000c6b300d90907005d
:105a48000800370001f9070006003700600421004c
:105a580061c5b3000148780000000000010037006c
:105a6800000000000080fa00000006000000fa00b4
:105a780090168000620060000000e00003003a0019
:105a8800f00520007c02070002003700f005200026
:105a98008f0207000080fa00000006000000fa00ec
:105aa80090168000620060000000e00003003a00e9
:105ab8000000eb0070020700020037000000eb0056
