:020000040000fa
:080000000002040000000000f2
:020000040000fa
:100008009a0200009a0200009a0200009a02000078
:100018009a0200009a0200009a0200009a02000068
:100028009a0200009a0200009a02000018190000c3
:100038009a0200009a0200009a020000521b000077
:100048004c1c00009a0200009a020000f43b0000d9
:10005800383d00009a0200009a0200009a0200004f
:100068009a0200009a0200009a0200009a02000018
:100078009a0200009a0200009a0200009a02000008
:100088009a0200009a0200009a020000761d000001
:100098009a0200009a020000f83e00002c3e000080
:1000a8009a0200009a0200009a0200009a020000d8
:1000b8009a0200009a0200009a0200009a020000c8
:1000c8009a0200009a0200009a0200009a020000b8
:1000d8009a0200009a0200009a0200009a020000a8
:1000e8009a0200009a0200009a0200009a02000098
:1000f8009a0200009a0200009a0200009a02000088
:100108009a0200009a020000c01d00009a02000036
:100118009a0200009a0200009a0200009a02000067
:100128009a0200009a0200009a0200009a02000057
:100138009a0200009a0200009a0200009a02000047
:100148009a0200009a0200009a0200001a1e00009b
:100158009a0200009a0200009a0200009a02000027
:100168009a0200009a0200009a0200009a02000017
:100178009a0200009a0200009a0200009a02000007
:100188009a0200009a0200009a0200009a020000f7
:100198009a0200009a0200009a0200009a020000e7
:1001a8009a0200009a0200009a0200009a020000d7
:1001b8009a0200009a0200009a0200009a020000c7
:1001c8009a0200009a0200009a0200009a020000b7
:1001d8009a0200009a0200009a0200009a020000a7
:1001e8009a0200009a0200009a0200009a02000097
:0801f8009a0200009a020000c7
:020000040000fa
:100208009a0200009a0200009a0200009a02000076
:100218009a0200009a0200009a0200009a02000066
:100228009a0200009a0200009a02000018190000c1
:100238009a0200009a0200009a020000521b000075
:100248004c1c00009a0200009a020000f43b0000d7
:10025800383d00009a0200009a0200009a0200004d
:100268009a0200009a0200009a0200009a02000016
:100278009a0200009a0200009a0200009a02000006
:100288009a0200009a0200009a020000761d0000ff
:100298009a0200009a020000f83e00002c3e00007e
:1002a8009a0200009a0200009a0200009a020000d6
:1002b8009a0200009a0200009a0200009a020000c6
:1002c8009a0200009a0200009a0200009a020000b6
:1002d8009a0200009a0200009a0200009a020000a6
:1002e8009a0200009a0200009a0200009a02000096
:1002f8009a0200009a0200009a0200009a02000086
:100308009a0200009a020000c01d00009a02000034
:100318009a0200009a0200009a0200009a02000065
:100328009a0200009a0200009a0200009a02000055
:100338009a0200009a0200009a0200009a02000045
:100348009a0200009a0200009a0200001a1e000099
:100358009a0200009a0200009a0200009a02000025
:100368009a0200009a0200009a0200009a02000015
:100378009a0200009a0200009a0200009a02000005
:100388009a0200009a0200009a0200009a020000f5
:100398009a0200009a0200009a0200009a020000e5
:1003a8009a0200009a0200009a0200009a020000d5
:1003b8009a0200009a0200009a0200009a020000c5
:1003c8009a0200009a0200009a0200009a020000b5
:1003d8009a0200009a0200009a0200009a020000a5
:1003e8009a0200009a0200009a0200009a02000095
:0803f8009a0200009a020000c5
:020000040000fa
:100400000f0b21000e7f24000e0188000000000069
:10041000000020000000e000020032000001200087
:10042000200288000c0007002004240001002000a6
:1004300011000700000020000000e0000200320070
:100440000000020000000000522602000000000030
:100450000040da000000fe004440a9000000200037
:100460000000e0000300320000002000a00188002e
:100470004440a80000000600910188008000780038
:100480000000eb0015003700e280400032a0b4000d
:100490009101ba00e280400032a0b4009102ba009b
:1004a000e280400032a0b4000002eb00472bde00e7
:1004b000f507b200602ce10004003a000059eb009f
:1004c0008301e900fdff3e00040037006128e100e0
:1004d000010032000082eb00040007001101ba00a5
:1004e0000200e000e8ff3a00000006003159ba00bf
:1004f0008301e9000c0032002159ba008301e900b0
:10050000080032000400e00003003a00e2804000ee
:1005100032a0b400f5ff370011d9ba008301e90019
:10052000faff3a008100e800e180400032a0b40008
:10053000000006000040da000000fe0003f0a20008
:10054000889fbe008a9fbe008c1f78009f01070015
:10055000a60133006450e1004f0032006420e10046
:100560005200320003826c0007003b000905d000f6
:100570000306d000820f54000c065d000200390013
:100580000200320089017800030678008582550058
:1005900004003d000003fd008103fd008502ea0028
:1005a0008b854200840f720002003b006000100047
:1005b000e08018006011b8000005eb007a28e10027
:1005c0000a00390006007800c75ddd00f707b200b9
:1005d000878075002d003700828171000a01780044
:1005e000610560008180d1000080d3008502e900b0
:1005f000f9ff3b00060440008784480002003b00ee
:1006000060041400e0841c000988a3000700320085
:100610008a81710082817100610164008904d100c6
:100620000884d3008b05e800170037000978a30081
:1006300013003a000b00e000130034008b05e900c2
:100640000804440089844c000a4474000978a3001b
:100650000d003a000b00e000070034008b05e900b4
:100660000804440089844c0001003a000b0020007b
:100670000978a300f7ff32000001eb000200370009
:10068000828171000a017800150107000cf0a700b3
:1006900001f0a0005e0137006420e10002003a0092
:1006a000838f6c005e0133000801be000200be00b3
:1006b00057013700889fbe008a9fbe008c1f7800bc
:1006c000420107001002200002003b00904a88000f
:1006d000460137008a0062006408e10002003a0027
:1006e000904a88004e0137006108e100fcff3200ab
:1006f0000800be00030478007200070001f0a100aa
:100700000900070008f0a600040037000001be0041
:1007100091042400b0fd200088ff070009f0a70025
:1007200001f0a2003a013700889fbe008a9fbe00f8
:100730008c9fbe000004be000f0107000800be0031
:10074000890678006420e1000800390004003200c6
:100750000160a00012022000924a88005300370076
:1007600091fc2300b0fd20004e0037000006eb0096
:1007700009f0a10003f82300020020000800be00d9
:10078000920007000600340001f82300000020005a
:100790000801be004b0007000004be002c00200032
:1007a0000800be0093e82300320a230087000700f8
:1007b000120034000801be00d1fd2300703d2b0063
:1007c0005fff07000005be00b3f32300f27a2600a6
:1007d0000800be001501070003f8230002002000f6
:1007e00056ff07000801be0055ff07000a01be00c2
:1007f000340007000004be000c06e8000800be003c
:1008000001f0a10002002000039823006f00070000
:100810000800be00160035000801be0003010700f5
:100820000005be0032cd2c0043fb230044ff07002f
:10083000809fbe001269280003d52b000a00be006d
:10084000fa000700620f210013ef2b003cff0700a6
:100850000a01be00f50007004f01be0019000700a5
:100860000801be00f10007000801be0034ff0700c8
:100870000c00e0000b0032000c10a70001f0a200f9
:10088000b2fd200093fc23006260e100040032000e
:1008900022a9200063f023000c10a70063f82300b6
:1008a00027ff07000df0a70001f0a2004f06be00d1
:1008b0004f05be004f04be00000006000081eb00a3
:1008c0000e013700889fbe008a9fbe008c1f7800f3
:1008d000be000700c500330003866c006450e100d1
:1008e0002e0032006420e100330032006150e1004c
:1008f0002f0032006120e100310032008585550073
:10090000eb07b000090020000804200005003700b4
:100910000804440089844c000a00310006034300a7
:1009200087834b000001530081815b00f8ff330097
:100930000203be000800a0000804440089844c00a3
:10094000f6ff3900c639dd00830173000100320073
:10095000130020008904d1000884d3000998a30063
:10096000050032000800a7000300a0008904d100a0
:100970000884d3008b05e8008904d1000884d300e3
:100980000001eb000281d2005500070001f0a10038
:100990000cf0a70001f0a0009d0037006420e100ea
:1009a0009f0032000801be000200be00f7ff3700c2
:1009b0006120e1009a0032006000b800f3ff3700c8
:1009c0000000200001f82700f0ff3700140020008d
:1009d0006a013700f4ff2f00680137000001be00f4
:1009e000650007000470a70003f0a1006509b100cd
:1009f000160032000d0035006828e10006003500c1
:100a0000f0ff2f00f1ff27000300e00013003b0080
:100a1000010028000000050000004000818048001f
:100a20008502e900fcff3a0008003700f88f420019
:100a300002003c008000eb00000005008100d100b6
:100a40000080d3008502e800fcff3a000300e000cc
:100a500002003b0060001000e0801800000006006b
:100a60000001be00440007000470a70003f0a100cd
:100a700003f8a30013003a006509b100100032002a
:100a8000090035006928e100020035000100280056
:100a90000000050000004000818048008502e90058
:100aa000fcff3a0000000600f88f42000500350008
:100ab0008100d1000080d3008502e800fcff3a00ed
:100ac000000006008000eb00000005004f89de00fa
:100ad00082017800440137006011b80052013700ec
:100ae00081002000618055000b003d000b002000bc
:100af00061fe2f000100e1001d00340082817100c1
:100b0000610164008904d1000884d3000000e8007a
:100b1000faff3a00710020006100640003007000d9
:100b2000020060000900320061044400e0844c00cf
:100b30000988a500050032008b05e8006808e1007f
:100b400002003a008904d1000884d300f20f20008b
:100b50000258e10005003d00c75ddd00f907b20065
:100b60008980750008007800000006000bf8270057
:100b70008b00780000000500c70ade00f107b20014
:100b8000f50fb20008003200e1cf4200020032004f
:100b90000170a00024000500810f700001003200e8
:100ba0000408050044000500810f700002003a00af
:100bb000140005008502e9000000400081c04800e3
:100bc000fcff3b000170a000240005000004be00f3
:100bd000e9ff07000003be000405be000200be00de
:100be000e5ff0700844f7500000006000200be000c
:100bf0006450e100050036006420e1000200360088
:100c00000968a30001003a000800be000160a000ce
:100c10004f0678004f05be004f04be0000000600de
:100c2000f0ff2f00f1ff2700f9ff3700889fbe007b
:100c30008a9fbe008c1f7800e4ff0700ebff3300a3
:100c400003866c006450e100240032006420e1005f
:100c5000270032006150e100220032006120e100f3
:100c6000210032008b854200eb07b1000134b8004f
:100c7000003ab8000804420089844a00013ab800ea
:100c80000030b8008880400009014a0004003300a9
:100c90000000400081804800020149008b05e90006
:100ca000c909dd008301700001003200130020003b
:100cb000c814de004814dd004709de001200b2004f
:100cc000c808de000884700085ff070001f0a1005d
:100cd0000cf0a70001f0a000cdff37006120e1007b
:100ce000cfff32000801be000200be00f7ff370050
:100cf0006150e100fcff3a00c9ff3700889fbe0049
:100d00008a9fbe008c9fbe00820578000004be0052
:100d100099ff07000800be006420e10007003900c9
:100d200002003a00f1ff2700f0ff2f000160a00051
:100d300012022000924a8800550037006120e1002d
:100d400003003a000b00a70001f823005000370011
:100d500001f0a10002002100936424001bff0700a2
:100d60000800be0004003500b2fd2000930c2400f2
:100d7000dc0007000004be000005eb000b00a6002d
:100d80004f0dde0001f0a1000004be0032982f00dc
:100d900023ea2300a5ff07000001eb0003f0230076
:100da0000b00a70003f82300e5fd07000bff070079
:100db0000000a7000a00a20044ff07000b00e000ab
:100dc000030032000200200003f02300dbfd0700d7
:100dd00001f0a2000006be000200200093042400df
:100de00092ff07000801be00d5fd0700809fbe00ee
:100df0000c00be0022a22a00d3a723008bff07000d
:100e00004f01be00cefd07000004be0001f0a100ae
:100e10000200200003982300ecfe07000800be003b
:100e2000190035000001be0080ff07000006be006b
:100e3000b2c52900e36223007cff070022222b00b9
:100e4000f3942b00befd07000c01be0077ff0700e6
:100e5000e273280083c02300b9fd07000c01be0027
:100e600072ff070042aa2a00a3e22b00b4fd07008c
:100e70000c01be006dff07000801be006bff0700fc
:100e80000801be00aefd07000a00a70001f0a200a5
:100e90004f06be004f05be004f04be000000060016
:100ea0000001eb0095ff3700889fbe008a9fbe00bf
:100eb0008c1f78000004be002fff07000478a300f9
:100ec00026003a006120e1002500320009f8a30065
:100ed00025003a006420e10021003200f507b1004e
:100ee0000508a30002003200000040008180480095
:100ef0006044b80003102000020020000000400001
:100f0000818048000805440089854c000a0541009d
:100f10008b8549000a0550008b855800030033007b
:100f20000a00be0002047400838474008301d100af
:100f30000281d300830f7100f0ff3a008904d100d1
:100f40000884d3006001490082017800c1adde0051
:100f5000fb07b000e2fe07002dff37000960a0008c
:100f60000800be002aff370012022000924a8800c3
:100f7000f0ff2f00f1ff270025ff3700889fbe00fc
:100f80008a9fbe00841f780010ff07004f00780082
:100f900011003300f0ff2f00838f6c0006003b0030
:100fa000040565000a00a7000800370009f0a60044
:100fb0001000200008003700820f5400838f5c006f
:100fc000030039001000200001003e000000200056
:100fd00009f0a7000000ea004f05be004f04be0064
:100fe0000000e00000000600881f7800030478007d
:100ff0000300e00007003d0060001000e0801800e2
:1010000060011900e081190002003b0001f02d0091
:10101000030037000400070008f0a70001f0a0005b
:101020004f04780000000600889fbe008a9fbe0023
:1010300000827000040271000482710026003200f8
:101040000004be000200be006011b8006b09200061
:10105000950220000182cf000a0039000541b1004d
:101060000082cf00070039000541b1000982cf009e
:10107000040039000541b1000882cf0001003900a9
:101080000541b10005425200120032000a003b0047
:1010900082817100610164008100d1000080d30071
:1010a0008984d3000884d3008b05e8000442e8005b
:1010b000f7ff3a00070037000804440089844c0019
:1010c00000004800818048008b05e9000442e900e7
:1010d000f9ff3a0082fe07004f05be004f04be0034
:1010e000000006000400200000003700889fbe00ba
:1010f0008a9fbe008c1f78004f26dd00b3fe0700dc
:10110000bafe33006120e100430032006250e1008a
:1011100041003e003e0039006420e1003c00320006
:10112000058255000f003b000402e80038003a0039
:10113000800f5300818f5b00350034000800be0033
:1011400003f0a10001f0a60003f0a0000cf0a7003e
:10115000fbfc0700aefe37000603430087834b000d
:101160000c4646000005530081855b0002003300f9
:101170000a03be000c00a0000402e900f6ff3b00d9
:10118000850578000602430087824b0004003a0080
:101190006000b80009f0a70001f0a0009cfe370035
:1011a0000002520081825a000704e000040033006c
:1011b0000603430087834b008b05e900faff3700e5
:1011c000090578000604be000203be006011b800e5
:1011d00043fe0700e00f5200e08f5a000700350081
:1011e00002003c000c08a300040032000601be000f
:1011f00003f0a0000cf0a700d1fc07000a856800ee
:1012000001f0a1000af0a70001f0a00080fe370065
:101210000800be007efe3700100220000cf0a60081
:08122000904a88007efe3700b1
:020000040000fa
:101228002800fa00889fbe008a9fbe008c9fbe00df
:10123800804080000000e80080408800a88380008b
:10124800b983800050838000cf80de001dfe070038
:101258000001be000800be00b6fc07000001be0089
:1012680070fe07000004be00ca838000db83800094
:1012780060838000cf80de0012fe07000001be0000
:101288000a00be00abfc07000001be0065fe0700b7
:101298000001be000800be00a7fc070000ff070011
:1012a800000f9800110f980060838000cf80de0047
:1012b80004fe07000002be00c0838000d1838000c6
:1012c8000001be000400be009afc07000004be0036
:1012d80050838000cf80de00fafd07000002be00c8
:1012e800a0838000b18380000001be000400be001e
:1012f80090fc07000801be00ecfc070001f0a2000a
:10130800200f9800310f98002084800031848000dd
:101318000001be002e089000be08900085fc070062
:1013280064fd07000e0990009e0990003dfe07002d
:10133800f040880001418800f040800001418000b1
:1013480018c0b30002002000032724009dfd0700f9
:101358000000e000010035000044eb000804e00054
:101368002200320018c0b3000200200083242400a9
:101378000e0890009e08900092fd07000000e00013
:10138800010035000044eb000804e00017003200bb
:10139800f04080000141800018c0b3000200200026
:1013a80003272c0089fd07000000e00001003c0035
:1013b8000044eb000804e0000c00320018c0b30041
:1013c8000200200083242c000e0890009e08900044
:1013d8007efd07000000e00001003c000044eb0037
:1013e8000804e000010032005169a800f0408000c4
:1013f8000141800018c0b30002002000031a240035
:1014080070fd07000000e000010035000044eb001b
:101418000804e0002200320018c0b30002002000d7
:10142800832424000e0890009e08900065fd0700a4
:101438000000e000010035000044eb000804e00073
:1014480017003200f04080000141800018c0b3004e
:1014580002002000031a2c005cfd07000000e000d9
:1014680001003c000044eb000804e0000c003200de
:1014780018c0b3000200200083242c000e0890003e
:101488009e08900051fd07000000e00001003c00ac
:101498000044eb000804e000010032005189a80074
:1014a8000a8580001b8580000085800011858000ea
:1014b8000004be0009f0a200a4848000b584800066
:1014c800f0408000014180000001be000400be0021
:1014d800d4fd07000a02be000801be00d3120700af
:1014e800400f9800510f98002084800031848000bc
:1014f8000001be002e089000be0890000dfc0700f9
:1015080040079800510798004e009000de009000b8
:1015180078120700400798005107980090848000cf
:10152800610060000000e00005003a004e009000f5
:10153800de009000961207004007980051079800b7
:101548004e009000de009000de120700d0408800b8
:10155800e1408800ea848000fb848000e084800009
:10156800f18480000004be0009f0a200cc84800051
:10157800dd8480004e009000de009000e712070036
:101588000001be000c00be00a6fd07000a02be0056
:101598000801be00a5120700600f9800710f98009f
:1015a8006000b800b0408800c14088006e08900014
:1015b800fe089000410207000017980011179800d4
:1015c8000e1190009e1190006240880073408800c0
:1015d8006240800073408000028fbe00604080003f
:1015e8007140800001f0a2002007980031079800a0
:1015f8006000b8006007980071079800d04080002c
:10160800e140800018c0b300020020000308240055
:10161800ecfc07000000e000010035000044eb008e
:101628000804e00015003200d0408000e14080004e
:1016380018c0b3000200200003082c00e3fc0700d8
:101648000000e00001003c000044eb000804e0005a
:101658000a003200d0408000e1408000c11107003c
:101668000001be000000200001082400b1fb0700b3
:1016780060079800710798000400370000002000f8
:1016880001082400600798007107980002002000f4
:10169800030824006e009000fe00900087fc0700fd
:1016a8002017980031179800d0408000e140800052
:1016b80018c0b3000200200003082400c1fc070082
:1016c8000000e000010035000044eb000804e000e1
:1016d80028003200d0408000e140800018c0b300ec
:1016e8000200200003082c00b8fc07000000e000fe
:1016f80001003c000044eb000804e0001d0032003b
:101708004e089000de089000b1020700b040880043
:10171800c1408800b0408000c1408000204088005f
:101728003140880020408000314080002e11900018
:10173800be1190003bfd07000001be001e00be0068
:101748007dfb0700008fbe002040800031408000f4
:101758002e119000be11900032fd07000001be005e
:101768002e009000be00900073fb07002007980031
:10177800310798001e00be0096fc070000007800a4
:10178800704388002e009000be00900091fc070076
:1017980000007800804388005069a800e086200097
:1017a8004f06be004f05be004f04be000080fa0081
:1017b800000006001800fa00889fbe008a9fbe003d
:1017c8008c9fbe00804080000000e80080408800b8
:1017d8007283800083838000028fbe002084800093
:1017e800318480000001be001e00be0051fb0700ce
:1017f80020079800310798002e009000be00900046
:10180800bc11070020079800310798002e009000af
:10181800be0090002b120700d0408800e1408800ed
:10182800ea848000fb848000e0848000f1848000ea
:101838000004be0009f0a200cc848000dd84800092
:101848002e009000be009000341207000001be0078
:101858000c00be00f3fc07000a02be000801be002f
:10186800f21107004007980051079800d040800007
:10187800e140800018c0b3000200200003002400eb
:1018880050fc07000000e000010035000044eb00b8
:101898000804e0000c003200d0408000e1408000e5
:1018a80018c0b3000200200003002c0047fc07000a
:1018b8000000e00001003c000044eb000804e000e8
:1018c800010032005189a8006000b800b0408800cb
:1018d800c14088004e009000de00900077010700ac
:1018e80060079800710798006e019000fe01900053
:1018f8006240880073408800624080007340800026
:10190800020f9800130f980060408000714080001b
:1019180001f0a200200f9800310f98000e089000e7
:101928009e0890002bfc07000000780050438800b8
:101938002e089000be08900026fc070000007800e2
:10194800604388005089a800a08620004f06be008a
:101958004f05be004f04be000080fa0000000600dc
:101968000a00fa000000eb00000f7800d047800062
:10197800e14780004808de00804078000e80e800db
:101988001e004000014878001e0fe800d047800084
:10199800e14780004008de00804078000e80e800c3
:1019a8001e004000014878001e0fe800d047800064
:1019b800e14780004809dd004800de0000007100b2
:1019c800c808de00804078000e80e8001e00400055
:1019d800014878001e0fe800d0478000e1478000ea
:1019e800804078000e80e8001e0040000148780022
:1019f8001e0fe800d0408000e1408000f5fb0700a2
:101a0800000078004880de00804078000e80e80002
:101a18001e004000014878001e0fe800d0408000fa
:101a2800e1408000ebfb0700000078008040780070
:101a38000e80e8001e004000014878001e0fe800f4
:101a4800f040800001418000e2fb070000007800c0
:101a58004880de00804078000e80e8001e004000cc
:101a6800014878001e0fe800f04080000141800026
:101a7800d8fb070000007800804078000e80e8005e
:101a88001e004000014878001e0fe800b0408000aa
:101a9800c1408000cffb0700000078004880de00ce
:101aa800804078000e80e8001e0040000148780061
:101ab8001e0fe800b0408000c1408000c5fb070051
:101ac80000007800804078000e80e8001e0040008a
:101ad800014878001e0fe80090408000a140800077
:101ae800bcfb0700000078004880de0080407800da
:101af8000e80e8001e004000014878001e0fe80034
:101b080090408000a1408000b2fb070000007800f0
:101b1800804078000e80e8001e00400001487800f0
:101b28001e0fe8000e80e800000178009e00780093
:101b3800100a20002e0a07000080fa0000000600a4
:101b48001c00fa00889fbe00200f9800310f9800f3
:101b5800420f9800530f9800d2cc2c00c3e4230006
:101b68002e089000be0890002efc0700008fbe00d3
:101b78000200200003f023004e089000de089000c9
:101b880028fc07002007980031079800325c2f00d6
:101b980083ea23004e089000de08900021fc07002d
:101ba80040079800510798002e019000be01900050
:101bb8001e00be0041fb07006007980071079800ef
:101bc8004e019000de0190001e00be0015fc0700cb
:101bd800000f9800110f9800504a8000614a800059
:101be8006e019000fe0190000efc07001e01be0071
:101bf80051fa07000004be00504a8000614a800084
:101c08000001be000e0890009e0890002bfb070004
:101c18000001be000800be0047fa07009042880095
:101c2800a14288001e00be000004be0009f0a20008
:101c38000e0890009e0890000001be003efa0700c2
:101c48000002be00504a8000614a80000001be00c8
:101c58000400be0019fb07000001be000800be001a
:101c680034fa0700b0428800c1428800504a800018
:101c7800614a80000001be000e0890009e08900096
:101c88000efb0700d0428800e14288004f04be00e6
:101c98000080fa00000006001c00fa00889fbe00c1
:101ca800200f9800310f9800420f9800530f9800aa
:101cb8002e099000be099000028fbe004e099000c8
:101cc800de09900022079800330798006000b800ea
:101cd80040079800510798002e019000be0190001f
:101ce8001e00be00f5fa070060079800710798000b
:101cf8004e019000de0190001e00be00c9fb0700e7
:101d0800000f9800110f9800504a8000614a800027
:101d18006e019000fe019000c2fb07001e01be008c
:101d280005fa07000004be00504a8000614a80009e
:101d38000001be000e0890009e089000dffa070020
:101d48000001be000800be00fbf9070090428800b1
:101d5800a14288001e00be000004be0009f0a200d7
:101d68000e0890009e0890000001be00f2f90700de
:101d78000002be00504a8000614a80000001be0097
:101d88000400be00cdfa07000001be000800be0036
:101d9800e8f90700b0428800c1428800504a800034
:101da800614a80000001be000e0890009e08900065
:101db800c2fa0700d0428800e14288004f04be0002
:101dc8000080fa00000006001000fa00889fbe009c
:101dd80060079800710798006e019000fe0190005e
:101de800028fbe006000b8002007980031079800f5
:101df8006000b8004007980051079800504a8000da
:101e0800614a80002e019000be01900085fb07000a
:101e18001e01be00c8f907000004be00504a800039
:101e2800614a80000001be004e009000de00900074
:101e3800a2fa07000001be000800be00bef90700b4
:101e480090428800a14288001e00be000004be0027
:101e580009f0a2004e009000de0090000001be00d4
:101e6800b5f907000002be00504a8000614a8000b0
:101e78000001be000400be0090fa07000001be0089
:101e88000800be00abf90700b0428800c1428800d4
:101e9800504a8000614a80000001be004e00900058
:101ea800de00900085fa0700d0428800e1428800f1
:101eb8004f04be000080fa00000006000400fa008b
:101ec800889fbe00008fbe003041800041418000e5
:101ed8005041880061418800104180002141800004
:101ee80030418800414188001e01be00124188002f
:101ef8002341880070418000814180009041880022
:101f0800a141880014418000254180009042800052
:101f1800a14280000001be000400be0041fb070092
:101f28000002be0090418000a14180000001be0077
:101f38000400be0080f907000004be0034418000a0
:101f480045418000b0428000c14280000001be00cf
:101f58000400be0033fb07000001be000800be00fd
:101f680075f907000004be005441800065418000f7
:101f7800d0428000e14280000001be000400be00a3
:101f880028fb07000001be000800be006af9070030
:101f98007041880081418800704180008141800043
:101fa8004f04be000080fa00000006001000fa008e
:101fb800889fbe0060079800710798006e01900026
:101fc800fe019000028fbe006000b8002007980054
:101fd800310798006000b800400798005107980042
:101fe800504a8000614a80002e019000be01900096
:101ff8000cfb07001e01be004ff907000004be00dd
:10200800504a8000614a80000001be004e009000e6
:10201800de00900029fa07000001be000800be009b
:1020280045f90700f0428800014388001e00be0001
:102038000004be0009f0a2004e009000de009000ef
:102048000001be003cf907000002be00504a8000b3
:10205800614a80000001be000400be0017fa0700b4
:102068000001be000800be0032f9070010438800d6
:1020780021438800504a8000614a80000001be0068
:102088004e009000de0090000cfa070030438800f4
:10209800414388004f04be000080fa00000006009b
:1020a8001c00fa00889fbe00200f9800310f98008e
:1020b800420f9800530f98002e099000be09900017
:1020c800028fbe004e099000de099000220798009a
:1020d800330798006000b80040079800510798003f
:1020e8002e019000be0190001e00be00f3f907000b
:1020f80060079800710798004e019000de0190007b
:102108001e00be00c7fa0700000f9800110f9800c4
:10211800504a8000614a80006e019000fe019000e4
:10212800c0fa07001e01be0003f907000004be0044
:10213800504a8000614a80000001be000e089000ed
:102148009e089000ddf907000001be000800be00ef
:10215800f9f80700f0428800014388001e00be001d
:102168000004be0009f0a2000e0890009e0890002e
:102178000001be00f0f807000002be00504a8000cf
:10218800614a80000001be000400be00cbf90700d0
:102198000001be000800be00e6f8070010438800f2
:1021a80021438800504a8000614a80000001be0037
:1021b8000e0890009e089000c0f907003043880080
:1021c800414388004f04be000080fa00000006006a
:1021d8000400fa00889fbe00008fbe00f041800016
:1021e800014280001042880021428800d0418000ce
:1021f800e1418000f0418800014288001e01be00d4
:10220800d2418800e341880030428000414280008a
:102218005042880061428800d4418000e541800036
:10222800f0428000014380000001be000400be00af
:102238007cfa07000002be00504280006142800024
:102248000001be000400be00bbf807000004be0089
:10225800f441800005428000104380002143800043
:102268000001be000400be006efa07000001be00b7
:102278000800be00b0f807000004be001442800049
:102288002542800030438000414380000001be00a9
:102298000400be0063fa07000001be000800be008b
:1022a800a5f807003042880041428800304280008b
:1022b800414280004f04be000080fa000000060082
:1022c8000000fa00000e80000000a1000010a1002c
:1022d800000e8800000e80000020a1000030a10040
:1022e800000e8800000e80000040a1000050a100f0
:1022f8000060a1000070a100000e8800803e200050
:10230800200e8800c901a800c921a800c941a80059
:10231800ca41a800d521a800d501a800d561a80008
:10232800d541a800d5a1a800d581a800c1e1a80081
:102338000080fa00000006000600fa00008fbe00c8
:102348004247980002002000832c24001e00be0093
:10235800ad0e0700008fbe0002002000832c2c0069
:102368001e00be00920e0700008fbe004e40900077
:102378000000fb00e20f50000e003200e20f500098
:1023880003003c00e10f5000060032001500370042
:10239800e30f50000b003200e40f50000d00320034
:1023a800100037001e01be00f281880003828800f9
:1023b8000c0037001e01be007282880083828800ec
:1023c800080037001e01be00d2828800e382880020
:1023d800040037001e01be00128388002383880092
:1023e800000000000080fa00000006000600fa0065
:1023f800889fbe008a1f7800404798006000b80098
:10240800008fbe0090818000630060000000e00043
:102418007d003a004e4090000080fb00e20f500023
:102428002d003200e20f500003003c00e10f500085
:1024380006003200c0023700e30f500049003200a6
:10244800e40f50006b003200bb023700f0818000bf
:1024580001828000308288004182880030828000ba
:102468004182800018c0b3006011b80057f9070016
:102478000000e00001003c000044eb000804e0001c
:1024880004003200c801a900cde2a800c881a80054
:1024980003003700c881a900cdc2a800c801a80060
:1024a80030828000418280002e0e07000001be00ad
:1024b80000002000812c24001ef8070002002000e4
:1024c800031a2400d7f9070063f907000000780011
:1024d800b00e8800980237007082800081828000e8
:1024e800b0828800c1828800b0828000c1828000ea
:1024f80018c0b3006011b80034f907000000e0000c
:1025080001003c000044eb000804e0000400320035
:10251800c8a1a900cd82a800c821a80003003700df
:10252800c821a900cda2a800c8a1a800b082800037
:10253800c18280000b0e07000001be0000002000d1
:10254800812c2400fbf7070002002000031a240056
:10255800b4f9070040f9070000007800c00e8800b1
:1025680075023700d0828000e1828000f082880006
:1025780001838800f08280000183800018c0b300c6
:102588006011b80011f907000000e00001003c00ec
:102598000044eb000804e00004003200c8c1a900b0
:1025a800cd42a800c841a80003003700c841a900cf
:1025b800cd62a800c8c1a800f08280000183800015
:1025c800e80d07000001be0000002000812c240057
:1025d800d8f7070002002000031a240091f9070029
:1025e8001df9070000007800d00e880000000000e8
:1025f80051023700108380002183800030838800d7
:10260800418388004c0237004e4090000080fb0058
:10261800e20f500006013200e20f500003003c00b8
:10262800e10f50000600320043023700e30f50006c
:10263800fd013200e40f50002c0232003e02370048
:10264800a181800000102000008060000000e000f0
:10265800830032001482800025828000f08180008f
:102668000182800018c0b3000001be000400be0053
:10267800d4f807000000e000010035000044eb003a
:102688000804e0002f0032001082800021828000c0
:10269800b40d07000004be00f081800001828000b4
:1026a800b00d07001ac0b3000001be000800be004c
:1026b800c4f807000000e000010035000045eb0009
:1026c8000a04e0000a00320014828000258280009b
:1026d800b0818000c18180000001be000400be00fe
:1026e80095f7070010828800218288000b003700c8
:1026f8001882800029828000b0818000c18180001a
:102708000001be008cf707000001be000800be00f3
:1027180089f70700108288002182880010828000d3
:1027280021828000f4818000058280000001be00c3
:102738000400be00b40d07001082880021828800c2
:102748003b0037001482800025828000f0818000e1
:102758000182800018c0b3000001be000400be0062
:102768009af807000000e00001003c000044eb007c
:102778000804e0002e0032001082800021828000d0
:10278800780d07000004be00f081800001828000ff
:10279800740d07001ac0b3000001be000800be0097
:1027a80088f807000000e000010035000045eb0054
:1027b8000a04e0000a0032001482800025828000aa
:1027c800b0818000c18180000001be000400be000d
:1027d80058f7070010828800218288000b00370014
:1027e8001882800029828000b0818000c181800029
:1027f8000001be0050f707000001be000800be003f
:102808004cf707001082880021828800108280001f
:1028180021828000f4818000058280000001be00d2
:102828000400be00620d0700108288002182880023
:102838001882800029828000d0818000e181800098
:1028480002002000031224001cf807000001be004b
:102858000800be0037f70700008fbe000b003700e6
:10286800f881800009828000d0818000e1818000a9
:10287800020020000312240010f807000001be0027
:102888000800be002bf70700008fbe001e00be0028
:10289800c00e0700308288004182880030828000a4
:1028a8004182800002002000832c2400560d07007e
:1028b8003082880041828800308280004182800016
:1028c80002002000832c2c00390d0700308288007c
:1028d8004182880018c0b30002002000c3282400e9
:1028e8001e00be0039f807000000e00001003c00af
:1028f8000044eb000804e00010003200d2478000da
:10290800e347800050488000614880000001510082
:1029180081815900401f200001002000800f5100d4
:10292800818f590023003600804a80000090a00063
:1029380000a0a100804a88001e00370018c0b3001c
:1029480002002000c3282c001e00be001df807004e
:102958000000e000010035000044eb000804e0003e
:1029680010003200d2478000e347800050488000c2
:10297800614880000001510081815900401f2000fa
:1029880001002000800f5100818f59000900360096
:10299800804a80000090a10000a0a000804a880022
:1029a80004003700d0478000e14780005048880085
:1029b80061488800308280004182800018c0b300de
:1029c8006011b80001f807000000e00001003c00b9
:1029d8000044eb000804e00004003200c801a9002c
:1029e800cde2a800c881a80003003700c881a9006b
:1029f800cdc2a800c801a8003082800041828000b2
:102a0800d80c07000001be0000002000812c240023
:102a1800c8f6070002002000031a240081f8070006
:102a28000df8070000007800b00e8800420137005a
:102a3800a181800000102000008060000000e000fc
:102a48008300320094828000a5828000708280001a
:102a58008182800018c0b3000001be000400be00df
:102a6800d8f707000000e000010035000044eb0043
:102a78000804e0002f00320090828000a1828000cc
:102a8800b80c07000004be007082800081828000bc
:102a9800b40c07001ac0b3000001be000800be0055
:102aa800c8f707000000e000010035000045eb0012
:102ab8000a04e0000a00320094828000a5828000a7
:102ac800b0818000c18180000001be000400be000a
:102ad80099f6070090828800a18288000b003700d1
:102ae80098828000a9828000b0818000c181800026
:102af8000001be0090f607000001be000800be00fd
:102b08008df6070090828800a1828800908280005c
:102b1800a182800074828000858280000001be004e
:102b28000400be00b80c070090828800a1828800cb
:102b38003b00370094828000a5828000708280006c
:102b48008182800018c0b3000001be000400be00ee
:102b58009ef707000000e00001003c000044eb0085
:102b68000804e0002e00320090828000a1828000dc
:102b78007c0c07000004be00708280008182800007
:102b8800780c07001ac0b3000001be000800be00a0
:102b98008cf707000000e000010035000045eb005d
:102ba8000a04e0000a00320094828000a5828000b6
:102bb800b0818000c18180000001be000400be0019
:102bc8005cf6070090828800a18288000b0037001d
:102bd80098828000a9828000b0818000c181800035
:102be8000001be0054f607000001be000800be0048
:102bf80050f6070090828800a182880090828000a9
:102c0800a182800074828000858280000001be005d
:102c18000400be00660c070090828800a18288002c
:102c280098828000a98280005082800061828000a2
:102c3800020020000312240020f707000001be0054
:102c48000800be003bf60700008fbe000b003700ef
:102c580078828000898280005082800061828000b2
:102c6800020020000312240014f707000001be0030
:102c78000800be002ff60700008fbe001e00be0031
:102c8800000e0700b0828800c1828800b0828000f0
:102c9800c182800002002000832c24005a0c070007
:102ca800b0828800c1828800b0828000c182800022
:102cb80002002000832c2c003d0c0700b082880005
:102cc800c1828800b0828000c182800018c0b30031
:102cd80002002000c32824003cf707000000e000a1
:102ce80001003c000044eb000804e0001000320042
:102cf800d2478000e3478000704880008148800008
:102d08000001510081815900401f2000010020006e
:102d1800800f5100818f590024003600804a8000be
:102d28000070a0000080a100804a88001f003700c2
:102d3800b0828000c182800018c0b3000200200069
:102d4800c3282c001ff707000000e0000100350031
:102d58000044eb000804e00010003200d247800075
:102d6800e3478000704880008148800000015100de
:102d780081815900401f200001002000800f510070
:102d8800818f590009003600804a80000070a10038
:102d98000080a000804a880004003700d0478000e7
:102da800e14780007048880081488800b082800030
:102db800c182800018c0b3006011b80003f7070093
:102dc8000000e00001003c000044eb000804e000c3
:102dd80004003200c8a1a900cd82a800c821a8001b
:102de80003003700c821a900cda2a800c8a1a800e7
:102df800b0828000c1828000da0b07000001be00ab
:102e080000002000812c2400caf5070002002000e1
:102e1800031a240083f707000ff707000000780063
:102e2800c00e880044003700d0828000e182800014
:102e3800f082880001838800f0828000018380008e
:102e480002002000832c2400ef0b0700f08288008a
:102e580001838800f0828000018380000200200046
:102e6800832c2c00d20b0700f08288000183880095
:102e7800f08280000183800018c0b3006011b800a0
:102e8800d2f607000000e00001003c000044eb001f
:102e98000804e00004003200c8c1a900cd42a8001f
:102ea800c841a80003003700c841a900cd62a800a6
:102eb800c8c1a800f082800001838000a90b070028
:102ec8000001be0000002000812c240099f50700b5
:102ed80002002000031a240052f70700def607005c
:102ee80000007800d00e880013003700108380009f
:102ef80021838000308388004183880030838000ec
:102f08004183800002002000832c2400be0b0700b0
:102f180030838800418388003083800041838000ab
:102f280002002000832c2c00a10b070030838800ae
:102f380041838800000000005049a8004f05780030
:102f48004f04be000080fa00000006001200fa00dc
:102f58000000eb00000f7800d0478000e1478000b8
:102f68004808de00804078000e80e8001e0040001f
:102f7800014878001e0fe800d0478000e147800034
:102f88004008de00804078000e80e8001e00400007
:102f9800014878001e0fe800d0478000e147800014
:102fa8004809dd004800de0000007100c808de00a6
:102fb800804078000e80e8001e004000014878003c
:102fc8001e0fe800d0478000e1478000804078006d
:102fd8000e80e8001e004000014878001e0fe8003f
:102fe800f0818000018280007af6070000007800f6
:102ff8004880de00804078000e80e8001e00400017
:10300800014878001e0fe800f081800001828000ee
:1030180070f6070000007800804078000e80e80015
:103028001e004000014878001e0fe800d081800093
:10303800e181800002002000031224001ff607002f
:1030480064f60700000078004880de0080407800c1
:103058000e80e8001e004000014878001e0fe800be
:10306800d0818000e181800002002000031224004a
:1030780012f6070057f60700000078008040780035
:103088000e80e8001e004000014878001e0fe8008e
:1030980030828000418280004ef6070000007800f0
:1030a8004880de00804078000e80e8001e00400066
:1030b800014878001e0fe8003082800041828000bd
:1030c80044f6070000007800804078000e80e80091
:1030d8001e004000014878001e0fe8007082800042
:1030e800818280003bf60700000078004880de00ff
:1030f800804078000e80e8001e00400001487800fb
:103108001e0fe800708280008182800031f607007f
:1031180000007800804078000e80e8001e00400023
:10312800014878001e0fe80050828000618280000c
:103138000200200003122400e0f5070025f607002e
:10314800000078004880de00804078000e80e800ab
:103158001e004000014878001e0fe80050828000e1
:10316800618280000200200003122400d3f50700ca
:1031780018f6070000007800804078000e80e8000c
:103188001e004000014878001e0fe800b082800051
:10319800c18280000ff60700000078004880de003a
:1031a800804078000e80e8001e004000014878004a
:1031b8001e0fe800b0828000c182800005f607007b
:1031c80000007800804078000e80e8001e00400073
:1031d800014878001e0fe8000e80e8000001780022
:1031e8009e007800200a2000810407000080fa0071
:1031f800000006000000fa0005e1a90005a1a900e9
:1032080004c1a9000421a9008460a9009460a80051
:1032180000002000a13724003d00070005e1a800b8
:103228000080fa00000006003600f800809fbe000b
:10323800829fbe00849fbe00869fbe000400fa00e5
:103248008460a9008b020700908180006300600001
:10325800e20f50000e003a00f1f70700000f780067
:103268001e00780010007800cf80de0015f60700f9
:1032780012c0b30030fc07001e80e8001000780080
:10328800cf80de000ff6070022c0b3002afc07003b
:103298009081800063006000e30f50000f003a0047
:1032a80044f90700100798001e00900010007800ed
:1032b800cf80de0003f6070012c0b3001efc070033
:1032c8001e0090000080e80010007800cf80de002b
:1032d800fcf5070022c0b30017fc070010c0b300bc
:1032e80042fc070020c0b30040fc070030c0b30018
:1032f8003efc07000080fa004f03be004f02be00ec
:103308004f01be004f00be003600f9000040060025
:103318000400fa00881f7800008fbe002008800093
:103328000040a1000050a100200888001e01be0036
:103338000068290081c1240060f5070018c0b300a7
:1033480002f02f00f3772400a0f507000000e0004a
:1033580001003c000044eb000804e0004d0032008e
:10336800200880000040a0000050a100200888002c
:103378001e01be000068290081c124004ff5070026
:1033880002002000031024004cf5070018c0b30009
:1033980002f02f00f37724008cf507000000e0000e
:1033a80001003c000044eb000804e0002e0032005d
:1033b800200880000040a1000050a00020088800dc
:1033c8001e01be000068290081c124003bf50700ea
:1033d800020020000328240038f5070018c0b300b5
:1033e80002f02f00f377240078f507000000e000d2
:1033f80001003c000044eb000804e0000f0032002c
:10340800200880000040a0000050a000200888008c
:103418001e01be000068290081c1240027f50700ad
:10342800020020000338240024f5070069f507008e
:1034380000007800100888001d0037001e01be003b
:103448000068290081c124001cf507000200200043
:103458000328240019f507005ef50700000078002e
:1034680010088800120037001e01be0000682900fd
:1034780081c1240011f50700020020000310240078
:103488000ef5070053f507000000780010088800c3
:10349800070037001e01be000068290081c1240012
:1034a80006f507004bf507000000780010088800b3
:1034b8004f0478000080fa00000006000000fa00bf
:1034c80011e1a90011a1a90010c1a9001021a900aa
:1034d80000002000011224000500070084e0a90074
:1034e80094e0a80011e1a8000080fa00000006009e
:1034f8000400fa00881f7800008fbe008008800052
:103508000040a1000050a100800888001e01be00f4
:103518000068290081c12400e8f4070018c0b3003e
:1035280002f02f00f377240028f507000000e000e0
:1035380001003c000044eb000804e0004d003200ac
:10354800800880000040a0000050a100800888008a
:103558001e01be000068290081c12400d7f40700bd
:103568000200200003102400d4f4070018c0b300a0
:1035780002f02f00f377240014f507000000e000a4
:1035880001003c000044eb000804e0002e0032007b
:10359800800880000040a1000050a000800888003a
:1035a8001e01be000068290081c12400c3f4070081
:1035b8000200200003282400c0f4070018c0b3004c
:1035c80002f02f00f377240000f507000000e00068
:1035d80001003c000044eb000804e0000f0032004a
:1035e800800880000040a0000050a00080088800eb
:1035f8001e01be000068290081c12400aff4070045
:103608000200200003382400acf40700f1f407009e
:1036180000007800600888001d0037001e01be0009
:103628000068290081c12400a4f4070002002000da
:1036380003282400a1f40700e6f40700000078003e
:1036480060088800120037001e01be0000682900cb
:1036580081c1240099f4070002002000031024000f
:1036680096f40700dbf40700000078006008880083
:10367800070037001e01be000068290081c1240030
:103688008ef40700d3f40700000078006008880073
:103698004f0478000080fa00000006000000fa00dd
:1036a80084e0a90050a9a8000080fa0000400600a4
:1036b8000000fa0013e1a90013a1a90012c1a90092
:1036c8001221a90000002400c161240005000700a0
:1036d8008500a9009500a80013e1a8000080fa0061
:1036e800000006000400fa00881f7800008fbe0062
:1036f800900880000040a1000050a10090088800b8
:103708001e01be000068290081c124006bf4070077
:1037180018c0b30002f02f00f3772400abf40700c1
:103728000000e00001003c000044eb000804e00059
:103738004d003200900880000040a0000050a10019
:10374800900888001e01be000068290081c124007d
:103758005af40700020020000310240057f4070061
:1037680018c0b30002f02f00f377240097f4070085
:103778000000e00001003c000044eb000804e00009
:103788002e003200900880000040a1000050a000e8
:10379800900888001e01be000068290081c124002d
:1037a80046f40700020020000328240043f4070021
:1037b80018c0b30002f02f00f377240083f4070049
:1037c8000000e00001003c000044eb000804e000b9
:1037d8000f003200900880000040a0000050a000b8
:1037e800900888001e01be000068290081c12400dd
:1037f80032f4070002002000033824002ff40700e9
:1038080074f4070000007800700888001d00370075
:103818001e01be000068290081c1240027f40700aa
:10382800020020000328240024f4070069f407009c
:103838000000780070088800120037001e01be00e2
:103848000068290081c124001cf407000200200040
:103858000310240019f407005ef407000000780044
:1038680070088800070037001e01be0000682900a4
:1038780081c1240011f4070056f407000000780005
:10388800700888004f0478000080fa0000000600e5
:103898003600f800809fbe00829fbe00849fbe0055
:1038a800869fbe000000fa008500a900170c0700db
:1038b8009b07070000c9bf000040e80000e9b70007
:1038c80000c9bf00e94f500007003600d04780000c
:1038d800e147800061004000e0804800d047880050
:1038e800e14788000069ef000080fa004f03be003e
:1038f8004f02be004f01be004f00be003600f90067
:10390800004006000000fa001fe1a9001fa1a9005d
:103918001ec1a9001e21a9008760a9009760a80000
:1039280000002000a1472400030007001fe1a800b1
:103938000080fa00000006000400fa00881f7800e2
:10394800008fbe00f00880000040a1000050a100d8
:10395800f00888001e01be000068290081c124000b
:10396800d6f3070018c0b30002f02f00f377240045
:1039780016f407000000e00001003c000044eb00e2
:103988000804e0004d003200f00880000040a0006c
:103998000050a100f00888001e01be000068290040
:1039a80081c12400c5f30700020020000310240091
:1039b800c2f3070018c0b30002f02f00f377240009
:1039c80002f407000000e00001003c000044eb00a6
:1039d8000804e0002e003200f00880000040a1003a
:1039e8000050a000f00888001e01be0000682900f1
:1039f80081c12400b1f3070002002000032824003d
:103a0800aef3070018c0b30002f02f00f3772400cc
:103a1800eef307000000e00001003c000044eb006a
:103a28000804e0000f003200f00880000040a00009
:103a38000050a000f00888001e01be0000682900a0
:103a480081c124009df307000200200003382400f0
:103a58009af30700dff3070000007800d008880019
:103a68001d0037001e01be000068290081c1240026
:103a780092f3070002002000032824008ff30700b8
:103a8800d4f3070000007800d0088800120037003f
:103a98001e01be000068290081c1240087f30700c9
:103aa800020020000310240084f30700c9f3070074
:103ab80000007800d0088800070037001e01be000b
:103ac8000068290081c124007cf30700c1f30700c6
:103ad80000007800d00888004f0478000080fa00c1
:103ae800000006003600f800809fbe00829fbe00de
:103af800849fbe00869fbe000000fa008760a90070
:103b08000a0507000080fa004f03be004f02be00fe
:103b18004f01be004f00be003600f900004006000d
:103b28000000fa00000f80000080a1000090a100b2
:103b380000a0a100000f8800e1e1a900e0e1a900d0
:103b4800e0c1a900e041a900e421ef000080eb00fa
:103b5800300f8800000f80000080a0000090a000b7
:103b680000a0a000000f88008b40a9009b40a8007f
:103b78000080fa0000000600809fbe000000fa00e6
:103b88008b40a900010f80000080200000806000a9
:103b98000000e00004003200704580000000e800ea
:103ba8007045880003003700704580000000e90078
:103bb800704588000080fa004f00be0000400600f3
:103bc8000000fa00800f80000080a1000090a10092
:103bd80000a0a100800f8800f1e1a900f0e1a90090
:103be800f0c1a900f041a900f421ef000080eb002a
:103bf800b00f8800800f80000080a0000090a00017
:103c080000a0a000800f88008d60a9009d60a8001a
:103c1800c0458000cf80de00aaf30700d0458800a9
:103c2800e14588000080fa0000000600809fbe0081
:103c38000000fa008d60a900810f8000008020003c
:103c4800008060000000e00004003200c0458000f1
:103c58000000e800c045880003003700c045800028
:103c68000000e900c04588000080fa004f00be004f
:103c7800004006000000fa00889fbe0080458000d2
:103c880091458000a0458800b1458800d045800056
:103c9800e1458000f04588000146880070458000b5
:103ca800cf80de00c001dd0002002000200f800070
:103cb8008000eb00020040008380480081f3070089
:103cc8008045880091458800c0458000cf80de008f
:103cd800c001dd0002002000a00f80008000eb0082
:103ce800020040008380480076f30700d045880032
:103cf800e14588008045800091458000d25d2b0019
:103d080043c82300c7f30700804588009145880011
:103d1800d0458000e1458000d25d2b0043c82b00d0
:103d2800c0f30700d0458800e1458800844580003d
:103d380095458000a0458000b14580000001be0087
:103d48000400be00fbf1070018c0b3000200200009
:103d5800832c24001df307000000e00001003c0054
:103d68000044eb000804e00010003a00844580009d
:103d780095458000a0458000b14580000001be0047
:103d88000400be00ebf1070018c0b30002002000d9
:103d9800832c2c000bf307000000e0000100350025
:103da8000044eb000804e00004003200a045800055
:103db800b14580008045880091458800d445800041
:103dc800e5458000f0458000014680000001be0006
:103dd8000400be00d7f1070018c0b300020020009d
:103de800832c2400f9f207000000e00001003c00e9
:103df8000044eb000804e00010003a00d4458000bd
:103e0800e5458000f0458000014680000001be00c5
:103e18000400be00c7f1070018c0b300020020006c
:103e2800832c2c00e7f207000000e00001003500b9
:103e38000044eb000804e00004003200f045800074
:103e480001468000d0458800e1458800844580000f
:103e580095458000a0458000b14580000001be0066
:103e68000400be00b3f1070002002000a3372400bd
:103e78006cf30700d0818800e1818800d445800078
:103e8800e5458000f0458000014680000001be0045
:103e98000400be00a7f1070002002000a337240099
:103ea80060f30700508288006182880084458000a2
:103eb80095458000a0458000b14580000001be0006
:103ec8000400be009bf107001046880021468800c8
:103ed800d4458000e5458000f0458000014680001b
:103ee8000001be000400be0092f1070030468800c1
:103ef80041468800144680002546800030468000f0
:103f0800414680000001be000400be0089f10700a0
:103f1800a2992900c338240068f2070000f20700bc
:103f28005046880061468800144680002546800077
:103f380030468000414680000001be000400be00fb
:103f48007df1070002002000030024005bf2070057
:103f5800704688008146880070468000814680004f
:103f680018c0b30002002000031f240097f20700c6
:103f78000000e00001003c000044eb000804e00001
:103f8800030032006000b80070468800814688004f
:103f9800a0838000b1838000e0838800f1838800db
:103fa800c0838000d1838000008488001184880049
:103fb80020848000318480004084880051848800f7
:103fc800e8838000f98380002084800031848000a9
:103fd800b1f307000002be0005f0a20070468000a1
:103fe800814680000001be000400be000df30700fa
:103ff8000001be000800be004ff10700a083880042
:10400800b18388000884800019848000208480009f
:104018003184800027f207000002be00704680004d
:10402800814680000001be000400be00fdf20700ca
:104038000001be000800be003ff10700c0838800f1
:10404800d1838800448480005584800050468000d5
:10405800614680000001be000400be0036f1070082
:104068002084880031848800208480003184800086
:1040780018c0b300b2fd20009304240053f20700d7
:104088000000e00001003c000044eb000804e000f0
:10409800070032002084800031848000b2fd2000b7
:1040a800930c240023f107002084880031848800c1
:1040b800208480003184800018c0b300b2fd200045
:1040c80093042c003ff207000000e00001003500d7
:1040d8000044eb000804e000070032002084800060
:1040e80031848000b2fd2000930c240012f10700f7
:1040f80020848800318488005009a8005029a8002d
:104108004f04be000080fa00000006000000fa001c
:104118000001eb008000eb000000eb00020007004c
:104128000080fa00000006000600fa00000f780080
:104138001107980022079800ae28ef00b828ef0072
:10414800e421ef00f421ef006000b800a0458800ea
:10415800b14588006000b800f04588000146880035
:104168006000b80080458800914588006000b8006c
:10417800d0458800e14588001e007800cf80de0029
:1041880050f20700a0838800b18388009016800051
:10419800620060000000e00008003200a083800098
:1041a800b18380000001be0000002000a14f240060
:1041b800e0f00700a0838800b18388001e0090000b
:1041c800cf80de003ff20700c0838800d1838800db
:1041d8002e009000cf80de003af20700c4070700e7
:1041e8002084880031848800901680006200600076
:1041f8000000e00005003200208480003184800047
:1042080001f0a20020848800318488000080fa0030
:10421800000006001200fa00881f78000000eb007a
:10422800000f780031003700310020001e84500054
:104238008045800091458000e6f107008000780005
:104248001e0078004300dd000088de008040780012
:104258000800470021409800710020001e8450008b
:10426800d0458000e1458000daf107008000780041
:104278001e0078004300dd000088de0080407800e2
:104288000800470021409800b10020001e8450001b
:10429800d0818000e1818000cef1070080007800a5
:1042a8001e0078004300dd000088de0080407800b2
:1042b8000800470021409800f10020001e845000ab
:1042c8005082800061828000c2f10700800078007f
:1042d8001e0078004300dd000088de008040780082
:1042e80008004700214098001e0fe8001e007800d3
:1042f800e30f5000ccff34000e80e8000001780086
:104308000101200000062000390007004f04780052
:104318000080fa00000006000e00fa00881f7800ee
:104328000000eb00000f7800260037003100200065
:104338001e845000a0838000b1838000a5f107008f
:10434800800078001e0078004300dd000088de0051
:104358008040780008004700214098007100200044
:104368001e845000c0838000d183800099f107002b
:10437800800078001e0078004300dd000088de0021
:10438800804078000800470021409800b1002000d4
:104398001e84500020848000318480004907070073
:1043a8008cf10700800078001e0078004300dd00d3
:1043b8000088de008040780008004700214098000f
:1043c8001e0fe8001e007800e30f5000d7ff3400ee
:1043d8000e80e80000017800c100200010062000cf
:1043e800030007004f0478000080fa000000060070
:1043f8000e00fa00889fbe004007980051079800f9
:10440800620798000f0478000f0078008004780095
:104418005e009000660040008000e90021079800d7
:104428000000e8000000e8000000d1008000400023
:104438000f007800818747000000e8000000d100e5
:1044480000004000300798000000eb00000f7800e3
:104458000000eb00100798003e0090001e0040008e
:10446800e1cfb300014878001e0fe8004e0090002d
:104478004880de00804078003e0090001e0040002a
:10448800014878001e0fe8004e0090008040780038
:104498003e0090001e004000014878001e0fe80012
:1044a8005e0090004880de00804078003e0090006a
:1044b8001e004000014878001e0fe8005e009000d2
:1044c800804078003e0090001e00400001487800bf
:1044d8001e0fe8000000eb00100798000b003700e3
:1044e8001e009000ee009000008040009040780090
:1044f8003e0090001e004000014878001e0fe800b2
:104508001e0090000000e800100798009e00900030
:104518005e009000808f5000f1ff35006e01900022
:10452800de0090004e009000ec000700be009000f6
:104538009e804000804878005e009000e6004000c1
:104548003e009000030d070089077800880778006f
:104558004f04be000080fa00000006000400fa00c4
:1045680020479800e0c8bf000080fb00e30f500020
:1045780022003200e30f500007003c00e10f50001a
:1045880012003200e10f500014003c000000e0006f
:104598000800320059003700e50f500032003200a1
:1045a800e50f50001c003500e60f50003f003200b8
:1045b800520037002e409000e24f400052003a006f
:1045c80010c0b300e0e8b70052003700e168ef0020
:1045d80020c0b300e0e8b7004e003700118e20007d
:1045e800914078002e40900000c04000e1e8b700fc
:1045f80030c0b300e0e8b700460037002e40900016
:104608000080fb004800dd001047880040c0b30070
:10461800e0e8b7003f0037002e4090008080fb00a4
:104628001047800000804000104788001147800034
:1046380000082000808f500002003600e068ef007c
:1046480034003700104780000000e00003003a0003
:1046580060c0b300e0e8b7002e00370050c0b300d8
:10466800e0e8b7002b003700e4c8bf000080fb007b
:10467800c1ca20002e41900082707800e4c8bf00b3
:104688000040e800e4e8b700e4c8bf008080fb0011
:1046980010478000808f50001d003a00e468ef004a
:1046a80060c0b300e0e8b7001a0037001047800088
:1046b80080007800e1c8bf000080fb00c2ca20006b
:1046c80086000700004f7800ae4090001147980020
:1046d8001e4090009e40780080cf500005003a00b0
:1046e8001047800080407800e1c8bf00c2ca20009f
:1046f800a4000700e068ef0006003700e068ef005c
:10470800000000000300370000000000010037002f
:10471800000000000080fa00000006000400fa0013
:1047280020479800e5c8bf000080fb00e30f500059
:1047380022003200e30f500007003c00e10f500058
:1047480012003200e10f500014003c000000e000ad
:104758000800320059003700e50f500032003200df
:10476800e50f50001c003500e60f50003f003200f6
:10477800520037002e409000e24f400052003a00ad
:1047880010c0b300e5e8b70052003700e668ef0054
:1047980020c0b300e5e8b7004e003700618e200066
:1047a800914078002e40900000c04000e6e8b70035
:1047b80030c0b300e5e8b700460037002e4090004f
:1047c8000080fb004800dd004047880040c0b3007f
:1047d800e5e8b7003f0037002e4090008080fb00de
:1047e80040478000008040004047880041478000e3
:1047f80000082000808f500002003600e568ef00b6
:1048080034003700404780000000e00003003a0011
:1048180060c0b300e5e8b7002e00370050c0b30011
:10482800e5e8b7002b003700eac8bf000080fb00ae
:10483800c1d220002e41900082707800eac8bf00e3
:104848000040e800eae8b700eac8bf008080fb0043
:1048580040478000808f50001d003a00ea68ef0052
:1048680060c0b300e5e8b7001a0037004047800091
:1048780080007800e6c8bf000080fb00c2d220009c
:1048880016000700004f7800ae40900011479800ce
:104898001e4090009e40780080cf500005003a00ee
:1048a8004047800080407800e6c8bf00c2d22000a0
:1048b80034000700e568ef0006003700e568ef0000
:1048c800000000000300370000000000010037006e
:1048d800000000000080fa00000006000a00fa004c
:1048e8002007980031079800420798000040eb0025
:1048f800004f78000000eb0010079800e0cfb300ed
:104908001e4f68002e0090004880de0000407800ae
:104918001e4f68002e009000004078001e4f68006f
:104928003e0090004880de00004078001e4f68007e
:104938003e009000004078001e4f68000000eb0029
:1049480010079800080037001e009000ce00900065
:1049580000804000104078001e4f68001e00900044
:104968000000e800100798009e0090003e009000ac
:10497800808f5000f4ff35001e4078000080fa0058
:10498800000006001400fa0000579800115798001c
:10499800120f98000e5090000080fb0021062000a6
:1049a800810f50001f00320021062000810f5000a7
:1049b8000a003c0021052000810f5000150032003c
:1049c80031052000810f50004300320011052000fe
:1049d800810f50000b003200ae0037002109200083
:1049e800810f500077003200010a2000810f50002b
:1049f8005000320011072000810f5000690032007a
:104a0800a40037001e089000104078003702070005
:104a1800a00037001e08900010407800230207000d
:104a28009c0037001e509000e64f500090003a005e
:104a38000000eb00000f78000000eb001007980062
:104a48000000eb00200798001e0890001040780036
:104a58000080fb00c800dd001e0890000000e80090
:104a6800104078000080fb00008f40001e08900076
:104a78000080e800104078000080fb00c800dd00de
:104a88001e08900063004000104078000080fb0082
:104a980000804000100798001e0890006400400045
:104aa800104078000080fb00c800dd001e08900060
:104ab80065004000104078000080fb000080400046
:104ac800200798002e0190009e0090001e0078009c
:104ad80095fd07006f0037001e509000e24f500010
:104ae80065003a00908180000000a0000010a1003d
:104af800908188001e089000104078000080fb001c
:104b08008000eb00f2ef070012c0b3000af60700be
:104b18001e0890000000e800104078000080fb00ac
:104b28008000eb00eaef070022c0b30002f607009e
:104b3800580037001e509000e44f500050003a00d3
:104b48001e089000104078000080fb00c800dd00bf
:104b58001e0890000000e800104078000080fb006c
:104b680000804000300798001e0890000080e80090
:104b7800104078000080fb00c800dd001e0890008f
:104b880063004000104078000080fb000080400077
:104b980040079800ce0090003e0090004f0e07009e
:104ba8003c0037001e509000e14f500036003a009c
:104bb8001e089000904078002007210001487800e6
:104bc800340037001e509000ea4f500030003a0081
:104bd8001e08900064004000104078000080fb0030
:104be800c800dd001e0890006500400010407800f5
:104bf8000080fb0000804000500798001e089000cd
:104c080066004000104078000080fb00c800dd000e
:104c18001e08900067004000104078000080fb00ec
:104c280000804000600798001e089000680040005f
:104c3800104078000080fb00c800dd001e089000ce
:104c480069004000104078000080fb0000804000b0
:104c580070079800de00900061848800ee009000e4
:104c680071848800fe009000818488000900370064
:104c780000000000070037000000000005003700b2
:104c880000000000030037000000000001003700aa
:104c9800000000000080fa00000006000800fa008a
:104ca8005b0e07005b0d070052f9070003fa0700c7
:104cb8007ffa070013fb070081f50700880c07003f
:104cc800c60c070096fb0700bdfb07008d01070017
:104cd800780e0700fb060700380607000269ef0098
:104ce800d2cc2c00c3d423000000200001042400ef
:104cf800150507000000200001122400a084880088
:104d0800b184880000002000a14f2400008588009d
:104d1800118588000000200001182400c084880044
:104d2800d184880000002000f14a2400e084880033
:104d3800f1848800f026210031c0230022f4070006
:104d4800a0702d0031c2230098f40700d0cc2c00ad
:104d5800c1ec2300b0818800c1818800a081800057
:104d68000080a000a0818800c4e2a900c522a90093
:104d7800c542a9000000eb00000f78000000eb001e
:104d8800100798000000eb00200798000000eb00d7
:104d98003007980075020700e14f500006003a00fe
:104da8005801070000902000d1032000620e070080
:104db800020607006902070090168000804a8000fa
:104dc800610060000000e0000c0032005009a900fa
:104dd80010c0b3009e007800f88f500001003c001e
:104de8000040eb001e0fe8000004e0000300320062
:104df80008fd07000000eb00000f7800804a8000e3
:104e0800620060000000e0000e0032005029a90096
:104e180010c0b3009e009000f88f500001003c00c5
:104e28000040eb009e0090008100e8001107980008
:104e38000004e0000300320037fd07000000eb002b
:104e480010079800804a8000640060000000e000bd
:104e58000e0032005049a90010c0b300be009000f7
:104e6800f88f500001003c000040eb00be009000ad
:104e78008100e800310798000004e00003003200d8
:104e880032f807000000eb0030079800804a8000e5
:104e9800680060000000e0000e0032005069a900c0
:104ea80010c0b300ae009000f88f500001003c0025
:104eb8000040eb00ae0090008100e8002107980058
:104ec8000004e00003003200a5f207000000eb0038
:104ed80020079800814a80000002200000806000be
:104ee8000000e0000300320050a9a900e205070015
:104ef800210607000d000700020037001a0a070004
:104f080096fd07002c0a07000004e000fbff3a00aa
:104f1800020037009a0b070000fe0700a80b0700e5
:104f28000004e000fbff3a009aff37000200fa0095
:104f380002c9bf000080fb00cf80de009200200085
:104f480003002000820f5000838f580049003e0064
:104f580000600100090037000d0037001600370017
:104f6800180037002b0037003000370031003700b9
:104f780036003700370037003c0037008040eb0030
:104f88000040eb007a0d070010c0b30002e9b7003b
:104f9800d2478000e3478000803e200001002000c7
:104fa800800f5100818f59003500360020c0b300b2
:104fb80002e9b7003300370030c0b30002e9b70098
:104fc80030003700208580006300b90000007800b9
:104fd8006a0050008000eb00bdee07000001be0033
:104fe80000002000c1282400870307000001be003c
:104ff8006000b8006e03070076ee0700004f7800e7
:105008009e4078001e407800590d07001f000700d9
:105018001c003700e1c1b3000040eb00540d07004d
:1050280050c0b30002e9b7001600370017000700a8
:10503800140037008040eb00e0c1b3004c0d0700be
:1050480070c0b30002e9b7000e0037000f00070078
:105058000c003700e1c1b30020ceb300440d0700b7
:1050680090c0b30002e9b700060037000700070048
:10507800040037000269ef0000000000010037005b
:10508800000000000080fa00000006000200fa009c
:105098000040eb00004f780040858000fd0f500075
:1050a80009003e0020858000fe0f500006003600f3
:1050b80030858000fe0f50000300360020c0b3008a
:1050c800004f78001d00370040858000fe0f50001b
:1050d8000900360020858000fe0f500006003600cb
:1050e80030858000fd0f500003003e0010c0b30063
:1050f800004f78001100370020858000fd0f500018
:1051080003003e0030c0b300004f78000b003700aa
:1051180040858000fe0f5000080036002085800082
:10512800fe0f50000500360030858000fe0f50004d
:10513800020036000040eb00004f78001e40780067
:105148000004e00003003a0020c0b30003e9b70000
:10515800110037001e407800e24f500003003a006b
:1051680040c0b30003e9b7000b0037001e407800c9
:10517800e14f500003003a0060c0b30003e9b700f4
:10518800050037001e407800e34f500002003a0047
:1051980080c0b30003e9b70003c9bf008080fb00eb
:1051a80002c9bf000080fb000000e900808f5000aa
:1051b8000200320003c9bf0002e9b7000080fa000c
:1051c800000006000c00fa000040eb00004f7800d9
:1051d8000000eb0010079800120037001e81fb004a
:1051e800d0478000e14780009e019000c319dd0090
:1051f800030278000402e900030033008100d100b3
:105208000080d300fbff3700804078000200470091
:10521800414098001e4fe8001e0090000000e80082
:10522800100798001e009000e30f5000ebff3400b9
:105238001e80fb002190200091407800000047006c
:10524800414098001e4fe8001e80fb0041032100ea
:105258009140780000004700414098001e4fe80048
:105268001e80fb00410321009140780000004700a8
:10527800414098001e4fe8001e80fb0041032100ba
:105288009140780000004700414098001e4fe80018
:10529800640047000001780051002000000520004c
:1052a80053fc07000080fa00000006000200fa0024
:1052b800004f78001e80fb000000ea004f00de006f
:1052c8000040780007e9b70007c9bf000004e00004
:1052d800040032000040eb0004000700fa28ef0049
:1052e800fc28ef000080fa00000006000200fa0027
:1052f800004f78001e40780002e9b7000080fa00ed
:10530800000006000000fa00901820002010880015
:1053180070e7a90007e2a900c8a2a900c8c2a900ad
:10532800cca2a900ccc2a900803e20000100200028
:10533800010d0700cca2a800ccc2a80007a2a800b3
:105348000782a8000762a9000742a9000722a9004e
:105358000702a90006e2a90006c2a90006a2a90040
:1053680007e2a8009620a9009600a90003010700fb
:105378000080fa00000006000800fa0020479800a4
:1053880031479800220798003307980007e2a800e1
:10539800fa0007000602a800e70007000000000066
:1053a80030108000610060000000e000040032005e
:1053b800314a8000703e2000808f5000f8ff360090
:1053c800314a8000703e2000808f50000100360076
:1053d800dd000700ae409000e0cfb30000c06000e1
:1053e800720007003e409000700007000622a800e7
:1053f800d10007000000000030108000620060004b
:105408000000e00004003200314a8000703e2000b5
:10541800808f5000f8ff3600314a8000703e20002f
:10542800808f500001003600c70007002e40900012
:105438000004a0005d0007000000eb00000f7800ea
:10544800120037009e0078003e0090000000e9003e
:10545800808f5000050032000000eb007800070044
:10546800ae0090008048780004003700100020004b
:1054780073000700ae009000804878002e0090006e
:105488000000e800200798001e0fe8009e00780042
:105498003e009000808f5000eaff39000642a800c5
:1054a800a5000700000000003010800064006000c4
:1054b8000000e00004003200314a8000703e200005
:1054c800808f5000f8ff3600314a8000703e20007f
:1054d800808f5000010036009b000700a7000700de
:1054e8000080fa00000006000400fa00004f78006f
:1054f800114798002247980007e2a8009f0007007c
:105508000602a8008c000700000000003010800090
:10551800610060000000e00004003200314a8000b1
:10552800703e2000808f5000f8ff3600314a80001e
:10553800703e2000808f5000010036008200070076
:10554800e0cfb3001e406000180007001e40900026
:10555800160007002e409000140007000642a8001d
:105568007500070000000000301080006400600033
:105578000000e00004003200314a8000703e200044
:10558800808f5000f8ff3600314a8000703e2000be
:10559800808f5000010036006b000700770007007d
:1055a8000040eb000080fa00000006000200fa004c
:1055b800004f78001e80fb00101088005e00070076
:1055c8000000000040108000610060000000e00062
:1055d80004003200314a8000703e2000808f500065
:1055e800f8ff3600314a8000703e2000808f50005e
:1055f80001003600540007004f00070000000000bb
:105608004110800000002400008060000000e000dd
:1056180004003200314a8000703e2000808f500024
:10562800f7ff3600314a8000703e2000808f50001e
:1056380001003600440007000080fa000000060060
:105648000400fa0010079800003a80004500de00c8
:1056580061406000004f7800480007000662a8001b
:105668003500070000000000401080006200600064
:105678000000e00004003a00314a8000703e20003b
:10568800808f5000f8ff3600314a8000703e2000bd
:10569800808f5000010036002b00070000108000aa
:1056a80010479800350007001e0090000040780061
:1056b800614060000080fb00610060004500dd0083
:1056c80032108000f1fd2f008100610001007000a0
:1056d800301088000682a8001700070000000000ac
:1056e80030108000700060000000e000040032000c
:1056f800314a8000703e2000808f5000f8ff36004d
:10570800314a8000703e2000808f50000100360032
:105718000d0007001e4090000080fa0000000600ff
:105728000000fa00304a80000000e800304a880093
:105738000080fa00000006000000fa004629ef0089
:105748000080fa00000006000000fa0010c0b30054
:1057580048e9b7000080fa00000006000000fa00df
:105768004869ef000080fa00000006000000fa0017
:1057780048c9bf000080fa00000006000000fa00d7
:10578800edff07000000000030108000610060009d
:105798000000e00015003a0030108000640060004e
:1057a8000000e00011003a0030108000680060003e
:1057b8000000e0000d003a00301080006200600038
:1057c8000000e00009003a0030108000700060001e
:1057d8000000e00005003a004110800000002400ad
:1057e800008060000000e00004003200314a8000c0
:1057f800703e2000808f5000e3ff3600314a800061
:10580800703e2000808f500001003600ceff070058
:105818000080fa00000006000000fa00e0602000a6
:10582800f0488800800c2000004988000080fa00b9
:10583800000006000000fa004003210090407800b4
:1058480070c5b30080cf500002003a0010c0b3000a
:10585800010037000040eb000080fa00000006005d
:105868000000fa00c002210081c2b300014878009c
:105878004003210061c4b300014878000080fa00a9
:10588800000006000000fa004003210010407800e4
:105898000080fb006101b900a0fb2f00f1ff2f0081
:1058a80002004000838048004202200003002000dc
:1058b800820f5000838f5800e3003e000060010013
:1058c80024003700310037005b00370062003700e2
:1058d800650037006a0037006d0037007200370036
:1058e8007e00370083003700860037008b003700c2
:1058f8008e003700990037009c0037009e00370063
:10590800cf003700d5003700cf003700ce00370072
:105918004000370044003700670037006b0037004d
:105928001e003700230037002500370035003700f8
:1059380095003700990037009c003700a000370019
:10594800a3003700b0003700bf003700b8003700a9
:10595800b100370013c0b300820c2000e1602000c2
:1059680070042000870a07000000eb0041040700cc
:105978000000eb004c0407000000eb008304070064
:105988000000eb008e040700b5003700017122000b
:10599800e0c5b300a20a0700b100370013c0b30086
:1059a800221c2000e1602000f0052000750a070095
:1059b800ab0037000171220000c6b300980a070047
:1059c800104980000000e8001049880013c0b300a7
:1059d800c22b2000d175200010062000690a07009c
:1059e8000000eb00230407000000eb002e04070072
:1059f8000000eb00650407000000eb0070040700de
:105a08009700370001712200a0c5b300840a07007f
:105a1800930037006000b800c70a0700b0052000ef
:105a2800730a07008e003700017d200080c4b30090
:105a38007b0a07008a00370013c0b3002221200028
:105a4800d1752000900420004e0a0700f0052000c0
:105a58000804070082003700017d2000a0c4b300bd
:105a68006f0a07007e00370013c0b30052372000ca
:105a7800e1742000b0042000420a070078003700d3
:105a880081bb2000c0c4b300650a0700740037005a
:105a980013c0b300c22b2000d1752000d004200011
:105aa800380a07006e00370081bb2000c0c5b3006c
:105ab8005b0a07006a003700d00520004c0a07007f
