:020000040000fa
:080000000002040000000000f2
:020000040000fa
:100008009a0200009a0200009a0200009a02000078
:100018009a0200009a0200009a0200009a02000068
:100028009a0200009a0200009a020000101d0000c7
:100038009a0200009a0200009a0200004a1f00007b
:10004800442000009a0200009a020000363c00009a
:100058007a3d00009a0200009a0200009a0200000d
:100068009a0200009a0200009a0200009a02000018
:100078009a0200009a0200009a0200009a02000008
:100088009a0200009a0200009a0200006e21000005
:100098009a0200009a0200001a4000006e3e00001a
:1000a8009a0200009a0200009a0200009a020000d8
:1000b8009a0200009a0200009a0200009a020000c8
:1000c8009a0200009a0200009a0200009a020000b8
:1000d8009a0200009a0200009a0200009a020000a8
:1000e8009a0200009a0200009a0200009a02000098
:1000f8009a0200009a0200009a0200009a02000088
:100108009a0200009a020000b82100009a0200003a
:100118009a0200009a0200009a0200009a02000067
:100128009a0200009a0200009a0200009a02000057
:100138009a0200009a0200009a0200009a02000047
:100148009a0200009a0200009a020000122200009f
:100158009a0200009a0200009a0200009a02000027
:100168009a0200009a0200009a0200009a02000017
:100178009a0200009a0200009a0200009a02000007
:100188009a0200009a0200009a0200009a020000f7
:100198009a0200009a0200009a0200009a020000e7
:1001a8009a0200009a0200009a0200009a020000d7
:1001b8009a0200009a0200009a0200009a020000c7
:1001c8009a0200009a0200009a0200009a020000b7
:1001d8009a0200009a0200009a0200009a020000a7
:1001e8009a0200009a0200009a0200009a02000097
:0801f8009a0200009a020000c7
:020000040000fa
:100208009a0200009a0200009a0200009a02000076
:100218009a0200009a0200009a0200009a02000066
:100228009a0200009a0200009a020000101d0000c5
:100238009a0200009a0200009a0200004a1f000079
:10024800442000009a0200009a020000363c000098
:100258007a3d00009a0200009a0200009a0200000b
:100268009a0200009a0200009a0200009a02000016
:100278009a0200009a0200009a0200009a02000006
:100288009a0200009a0200009a0200006e21000003
:100298009a0200009a0200001a4000006e3e000018
:1002a8009a0200009a0200009a0200009a020000d6
:1002b8009a0200009a0200009a0200009a020000c6
:1002c8009a0200009a0200009a0200009a020000b6
:1002d8009a0200009a0200009a0200009a020000a6
:1002e8009a0200009a0200009a0200009a02000096
:1002f8009a0200009a0200009a0200009a02000086
:100308009a0200009a020000b82100009a02000038
:100318009a0200009a0200009a0200009a02000065
:100328009a0200009a0200009a0200009a02000055
:100338009a0200009a0200009a0200009a02000045
:100348009a0200009a0200009a020000122200009d
:100358009a0200009a0200009a0200009a02000025
:100368009a0200009a0200009a0200009a02000015
:100378009a0200009a0200009a0200009a02000005
:100388009a0200009a0200009a0200009a020000f5
:100398009a0200009a0200009a0200009a020000e5
:1003a8009a0200009a0200009a0200009a020000d5
:1003b8009a0200009a0200009a0200009a020000c5
:1003c8009a0200009a0200009a0200009a020000b5
:1003d8009a0200009a0200009a0200009a020000a5
:1003e8009a0200009a0200009a0200009a02000095
:0803f8009a0200009a020000c5
:020000040000fa
:100400004f0b21000e7f24000e0188000000000029
:10041000000020000000e000020032000001200087
:10042000200288000c000700401624000100200074
:1004300011000700000020000000e0000200320070
:1004400000000200000000000a1802000000000086
:100450000040da000000fe004440a9000000200037
:100460000000e0000300320000002000a00188002e
:100470004440a80000000600910188008000780038
:100480000000eb0015003700e280400032a0b4000d
:100490009101ba00e280400032a0b4009102ba009b
:1004a000e280400032a0b4000002eb00472bde00e7
:1004b000f507b200602ce10004003a000059eb009f
:1004c0008301e900fdff3e00040037006128e100e0
:1004d000010032000082eb00040007001101ba00a5
:1004e0000200e000e8ff3a00000006003159ba00bf
:1004f0008301e9000c0032002159ba008301e900b0
:10050000080032000400e00003003a00e2804000ee
:1005100032a0b400f5ff370011d9ba008301e90019
:10052000faff3a008100e800e180400032a0b40008
:10053000000006000040da000000fe0003f0a20008
:10054000889fbe008a9fbe008c1f78009f01070015
:10055000a60133006450e1004f0032006420e10046
:100560005200320003826c0007003b000905d000f6
:100570000306d000820f54000c065d000200390013
:100580000200320089017800030678008582550058
:1005900004003d000003fd008103fd008502ea0028
:1005a0008b854200840f720002003b006000100047
:1005b000e08018006011b8000005eb007a28e10027
:1005c0000a00390006007800c75ddd00f707b200b9
:1005d000878075002d003700828171000a01780044
:1005e000610560008180d1000080d3008502e900b0
:1005f000f9ff3b00060440008784480002003b00ee
:1006000060041400e0841c000988a3000700320085
:100610008a81710082817100610164008904d100c6
:100620000884d3008b05e800170037000978a30081
:1006300013003a000b00e000130034008b05e900c2
:100640000804440089844c000a4474000978a3001b
:100650000d003a000b00e000070034008b05e900b4
:100660000804440089844c0001003a000b0020007b
:100670000978a300f7ff32000001eb000200370009
:10068000828171000a017800150107000cf0a700b3
:1006900001f0a0005e0137006420e10002003a0092
:1006a000838f6c005e0133000801be000200be00b3
:1006b00057013700889fbe008a9fbe008c1f7800bc
:1006c000420107001002200002003b00b04a8800ef
:1006d000460137008a0062006408e10002003a0027
:1006e000b04a88004e0137006108e100fcff32008b
:1006f0000800be00030478007200070001f0a100aa
:100700000900070008f0a600040037000001be0041
:1007100091042400b0fd200088ff070009f0a70025
:1007200001f0a2003a013700889fbe008a9fbe00f8
:100730008c9fbe000004be000f0107000800be0031
:10074000890678006420e1000800390004003200c6
:100750000160a00012022000b24a88005300370056
:1007600091fc2300b0fd20004e0037000006eb0096
:1007700009f0a10003f82300020020000800be00d9
:10078000920007000600340001f82300000020005a
:100790000801be004b0007000004be002c00200032
:1007a0000800be0093e82300320a230087000700f8
:1007b000120034000801be00d1fd2300703d2b0063
:1007c0005fff07000005be00b3f32300f27a2600a6
:1007d0000800be001501070003f8230002002000f6
:1007e00056ff07000801be0055ff07000a01be00c2
:1007f000340007000004be000c06e8000800be003c
:1008000001f0a10002002000039823006f00070000
:100810000800be00160035000801be0003010700f5
:100820000005be0032cd2c0043fb230044ff07002f
:10083000809fbe001269280003d52b000a00be006d
:10084000fa000700620f210013ef2b003cff0700a6
:100850000a01be00f50007004f01be0019000700a5
:100860000801be00f10007000801be0034ff0700c8
:100870000c00e0000b0032000c10a70001f0a200f9
:10088000b2fd200093fc23006260e100040032000e
:1008900022a9200063f023000c10a70063f82300b6
:1008a00027ff07000df0a70001f0a2004f06be00d1
:1008b0004f05be004f04be00000006000081eb00a3
:1008c0000e013700889fbe008a9fbe008c1f7800f3
:1008d000be000700c500330003866c006450e100d1
:1008e0002e0032006420e100330032006150e1004c
:1008f0002f0032006120e100310032008585550073
:10090000eb07b000090020000804200005003700b4
:100910000804440089844c000a00310006034300a7
:1009200087834b000001530081815b00f8ff330097
:100930000203be000800a0000804440089844c00a3
:10094000f6ff3900c639dd00830173000100320073
:10095000130020008904d1000884d3000998a30063
:10096000050032000800a7000300a0008904d100a0
:100970000884d3008b05e8008904d1000884d300e3
:100980000001eb000281d2005500070001f0a10038
:100990000cf0a70001f0a0009d0037006420e100ea
:1009a0009f0032000801be000200be00f7ff3700c2
:1009b0006120e1009a0032006000b800f3ff3700c8
:1009c0000000200001f82700f0ff3700140020008d
:1009d0006a013700f4ff2f00680137000001be00f4
:1009e000650007000470a70003f0a1006509b100cd
:1009f000160032000d0035006828e10006003500c1
:100a0000f0ff2f00f1ff27000300e00013003b0080
:100a1000010028000000050000004000818048001f
:100a20008502e900fcff3a0008003700f88f420019
:100a300002003c008000eb00000005008100d100b6
:100a40000080d3008502e800fcff3a000300e000cc
:100a500002003b0060001000e0801800000006006b
:100a60000001be00440007000470a70003f0a100cd
:100a700003f8a30013003a006509b100100032002a
:100a8000090035006928e100020035000100280056
:100a90000000050000004000818048008502e90058
:100aa000fcff3a0000000600f88f42000500350008
:100ab0008100d1000080d3008502e800fcff3a00ed
:100ac000000006008000eb00000005004f89de00fa
:100ad00082017800440137006011b80052013700ec
:100ae00081002000618055000b003d000b002000bc
:100af00061fe2f000100e1001d00340082817100c1
:100b0000610164008904d1000884d3000000e8007a
:100b1000faff3a00710020006100640003007000d9
:100b2000020060000900320061044400e0844c00cf
:100b30000988a500050032008b05e8006808e1007f
:100b400002003a008904d1000884d300f20f20008b
:100b50000258e10005003d00c75ddd00f907b20065
:100b60008980750008007800000006000bf8270057
:100b70008b00780000000500c70ade00f107b20014
:100b8000f50fb20008003200e1cf4200020032004f
:100b90000170a00024000500810f700001003200e8
:100ba0000408050044000500810f700002003a00af
:100bb000140005008502e9000000400081c04800e3
:100bc000fcff3b000170a000240005000004be00f3
:100bd000e9ff07000003be000405be000200be00de
:100be000e5ff0700844f7500000006000200be000c
:100bf0006450e100050036006420e1000200360088
:100c00000968a30001003a000800be000160a000ce
:100c10004f0678004f05be004f04be0000000600de
:100c2000f0ff2f00f1ff2700f9ff3700889fbe007b
:100c30008a9fbe008c1f7800e4ff0700ebff3300a3
:100c400003866c006450e100240032006420e1005f
:100c5000270032006150e100220032006120e100f3
:100c6000210032008b854200eb07b1000134b8004f
:100c7000003ab8000804420089844a00013ab800ea
:100c80000030b8008880400009014a0004003300a9
:100c90000000400081804800020149008b05e90006
:100ca000c909dd008301700001003200130020003b
:100cb000c814de004814dd004709de001200b2004f
:100cc000c808de000884700085ff070001f0a1005d
:100cd0000cf0a70001f0a000cdff37006120e1007b
:100ce000cfff32000801be000200be00f7ff370050
:100cf0006150e100fcff3a00c9ff3700889fbe0049
:100d00008a9fbe008c9fbe00820578000004be0052
:100d100099ff07000800be006420e10007003900c9
:100d200002003a00f1ff2700f0ff2f000160a00051
:100d300012022000b24a8800550037006120e1000d
:100d400003003a000b00a70001f823005000370011
:100d500001f0a10002002100936424001bff0700a2
:100d60000800be0004003500b2fd2000930c2400f2
:100d7000dc0007000004be000005eb000b00a6002d
:100d80004f0dde0001f0a1000004be0032982f00dc
:100d900023ea2300a5ff07000001eb0003f0230076
:100da0000b00a70003f82300e5fd07000bff070079
:100db0000000a7000a00a20044ff07000b00e000ab
:100dc000030032000200200003f02300dbfd0700d7
:100dd00001f0a2000006be000200200093042400df
:100de00092ff07000801be00d5fd0700809fbe00ee
:100df0000c00be0022a22a00d3a723008bff07000d
:100e00004f01be00cefd07000004be0001f0a100ae
:100e10000200200003982300ecfe07000800be003b
:100e2000190035000001be0080ff07000006be006b
:100e3000b2c52900e36223007cff070022222b00b9
:100e4000f3942b00befd07000c01be0077ff0700e6
:100e5000e273280083c02300b9fd07000c01be0027
:100e600072ff070042aa2a00a3e22b00b4fd07008c
:100e70000c01be006dff07000801be006bff0700fc
:100e80000801be00aefd07000a00a70001f0a200a5
:100e90004f06be004f05be004f04be000000060016
:100ea0000001eb0095ff3700889fbe008a9fbe00bf
:100eb0008c1f78000004be002fff07000478a300f9
:100ec00026003a006120e1002500320009f8a30065
:100ed00025003a006420e10021003200f507b1004e
:100ee0000508a30002003200000040008180480095
:100ef0006044b80003102000020020000000400001
:100f0000818048000805440089854c000a0541009d
:100f10008b8549000a0550008b855800030033007b
:100f20000a00be0002047400838474008301d100af
:100f30000281d300830f7100f0ff3a008904d100d1
:100f40000884d3006001490082017800c1adde0051
:100f5000fb07b000e2fe07002dff37000960a0008c
:100f60000800be002aff370012022000b24a8800a3
:100f7000f0ff2f00f1ff270025ff3700889fbe00fc
:100f80008a9fbe00841f780010ff07004f00780082
:100f900011003300f0ff2f00838f6c0006003b0030
:100fa000040565000a00a7000800370009f0a60044
:100fb0001000200008003700820f5400838f5c006f
:100fc000030039001000200001003e000000200056
:100fd00009f0a7000000ea004f05be004f04be0064
:100fe0000000e00000000600881f7800030478007d
:100ff0000300e00007003d0060001000e0801800e2
:1010000060011900e081190002003b0001f02d0091
:10101000030037000400070008f0a70001f0a0005b
:101020004f04780000000600889fbe008a9fbe0023
:1010300000827000040271000482710026003200f8
:101040000004be000200be006011b8006b09200061
:10105000950220000182cf000a0039000541b1004d
:101060000082cf00070039000541b1000982cf009e
:10107000040039000541b1000882cf0001003900a9
:101080000541b10005425200120032000a003b0047
:1010900082817100610164008100d1000080d30071
:1010a0008984d3000884d3008b05e8000442e8005b
:1010b000f7ff3a00070037000804440089844c0019
:1010c00000004800818048008b05e9000442e900e7
:1010d000f9ff3a0082fe07004f05be004f04be0034
:1010e000000006000400200000003700889fbe00ba
:1010f0008a9fbe008c1f78004f26dd00b3fe0700dc
:10110000bafe33006120e100430032006250e1008a
:1011100041003e003e0039006420e1003c00320006
:10112000058255000f003b000402e80038003a0039
:10113000800f5300818f5b00350034000800be0033
:1011400003f0a10001f0a60003f0a0000cf0a7003e
:10115000fbfc0700aefe37000603430087834b000d
:101160000c4646000005530081855b0002003300f9
:101170000a03be000c00a0000402e900f6ff3b00d9
:10118000850578000602430087824b0004003a0080
:101190006000b80009f0a70001f0a0009cfe370035
:1011a0000002520081825a000704e000040033006c
:1011b0000603430087834b008b05e900faff3700e5
:1011c000090578000604be000203be006011b800e5
:1011d00043fe0700e00f5200e08f5a000700350081
:1011e00002003c000c08a300040032000601be000f
:1011f00003f0a0000cf0a700d1fc07000a856800ee
:1012000001f0a1000af0a70001f0a00080fe370065
:101210000800be007efe3700100220000cf0a60081
:08122000b04a88007efe370091
:020000040000fa
:101228002800fa00889fbe008a9fbe008c9fbe00df
:10123800804080000000e80080408800c88380006b
:10124800d983800070838000cf80de001dfe0700f8
:101258000001be000800be00b6fc07000001be0089
:1012680070fe07000004be00ea838000fb83800054
:1012780080838000cf80de0012fe07000001be00e0
:101288000a00be00abfc07000001be0065fe0700b7
:101298000001be000800be00a7fc070000ff070011
:1012a800000f9800110f980080838000cf80de0027
:1012b80004fe07000002be00e0838000f183800086
:1012c8000001be000400be009afc07000004be0036
:1012d80070838000cf80de00fafd07000002be00a8
:1012e800c0838000d18380000001be000400be00de
:1012f80090fc07000801be00ecfc070001f0a2000a
:10130800200f9800310f980040848000518480009d
:101318000001be002e089000be08900085fc070062
:1013280064fd07000e0990009e0990003dfe07002d
:10133800f040880001418800f040800001418000b1
:1013480018c0b30002002000032724009dfd0700f9
:101358000000e000010035000044eb000804e00054
:101368002200320018c0b3000200200083242400a9
:101378000e0890009e08900092fd07000000e00013
:10138800010035000044eb000804e00017003200bb
:10139800f04080000141800018c0b3000200200026
:1013a80003272c0089fd07000000e00001003c0035
:1013b8000044eb000804e0000c00320018c0b30041
:1013c8000200200083242c000e0890009e08900044
:1013d8007efd07000000e00001003c000044eb0037
:1013e8000804e000010032004d69a800f0408000c8
:1013f8000141800018c0b30002002000031a240035
:1014080070fd07000000e000010035000044eb001b
:101418000804e0002200320018c0b30002002000d7
:10142800832424000e0890009e08900065fd0700a4
:101438000000e000010035000044eb000804e00073
:1014480017003200f04080000141800018c0b3004e
:1014580002002000031a2c005cfd07000000e000d9
:1014680001003c000044eb000804e0000c003200de
:1014780018c0b3000200200083242c000e0890003e
:101488009e08900051fd07000000e00001003c00ac
:101498000044eb000804e000010032004d89a80078
:1014a8002a8580003b85800020858000318580006a
:1014b8000004be0009f0a200c4848000d584800026
:1014c800f0408000014180000001be000400be0021
:1014d800d4fd07000a02be000801be00db110700a8
:1014e800400f9800510f980040848000518480007c
:1014f8000001be002e089000be0890000dfc0700f9
:1015080040079800510798004e009000de009000b8
:10151800801107004007980051079800b0848000a8
:10152800610060000000e00005003a004e009000f5
:10153800de0090009e1107004007980051079800b0
:101548004e009000de009000e6110700d0408800b1
:10155800e14088000a8580001b85800000858000a6
:10156800118580000004be0009f0a200ec84800010
:10157800fd8480004e009000de009000ef1107000f
:101588000001be000c00be00a6fd07000a02be0056
:101598000801be00ad110700600f9800710f980098
:1015a8006000b800b0408800c14088006e08900014
:1015b800fe089000410207000017980011179800d4
:1015c8000e1190009e1190006240880073408800c0
:1015d8006240800073408000028fbe00604080003f
:1015e8007140800001f0a2002007980031079800a0
:1015f8006000b8006007980071079800d04080002c
:10160800e140800018c0b300020020000308240055
:10161800ecfc07000000e000010035000044eb008e
:101628000804e00015003200d0408000e14080004e
:1016380018c0b3000200200003082c00e3fc0700d8
:101648000000e00001003c000044eb000804e0005a
:101658000a003200d0408000e1408000c910070035
:101668000001be000000200001082400b1fb0700b3
:1016780060079800710798000400370000002000f8
:1016880001082400600798007107980002002000f4
:10169800030824006e009000fe00900087fc0700fd
:1016a8002017980031179800d0408000e140800052
:1016b80018c0b3000200200003082400c1fc070082
:1016c8000000e000010035000044eb000804e000e1
:1016d80028003200d0408000e140800018c0b300ec
:1016e8000200200003082c00b8fc07000000e000fe
:1016f80001003c000044eb000804e0001d0032003b
:101708004e089000de089000b1020700b040880043
:10171800c1408800b0408000c1408000204088005f
:101728003140880020408000314080002e11900018
:10173800be1190003bfd07000001be001e00be0068
:101748007dfb0700008fbe002040800031408000f4
:101758002e119000be11900032fd07000001be005e
:101768002e009000be00900073fb07002007980031
:10177800310798001e00be0096fc070000007800a4
:10178800704388002e009000be00900091fc070076
:1017980000007800804388004c69a800e08620009b
:1017a8004f06be004f05be004f04be000080fa0081
:1017b800000006001800fa00889fbe008a9fbe003d
:1017c8008c9fbe00804080000000e80080408800b8
:1017d80092838000a3838000028fbe004084800033
:1017e800518480000001be001e00be0051fb0700ae
:1017f80020079800310798002e009000be00900046
:10180800c410070020079800310798002e009000a8
:10181800be00900033110700d0408800e1408800e6
:101828000a8580001b858000008580001185800066
:101838000004be0009f0a200ec848000fd84800052
:101848002e009000be0090003c1107000001be0071
:101858000c00be00f3fc07000a02be000801be002f
:10186800fa1007004007980051079800d040800000
:10187800e140800018c0b3000200200003002400eb
:1018880050fc07000000e000010035000044eb00b8
:101898000804e0000c003200d0408000e1408000e5
:1018a80018c0b3000200200003002c0047fc07000a
:1018b8000000e00001003c000044eb000804e000e8
:1018c800010032004d89a8006000b800b0408800cf
:1018d800c14088004e009000de00900077010700ac
:1018e80060079800710798006e019000fe01900053
:1018f8006240880073408800624080007340800026
:10190800020f9800130f980060408000714080001b
:1019180001f0a200200f9800310f98000e089000e7
:101928009e0890002bfc07000000780050438800b8
:101938002e089000be08900026fc070000007800e2
:10194800604388004c89a800a08620004f06be008e
:101958004f05be004f04be000080fa0000000600dc
:101968000a00fa000000eb00000f78002048800011
:10197800314880004808de00804078000e80e8008a
:101988001e004000014878001e0fe8002048800033
:10199800314880004008de00804078000e80e80072
:1019a8001e004000014878001e0fe8002048800013
:1019b800314880004809dd004800de000000710061
:1019c800c808de00804078000e80e8001e00400055
:1019d800014878001e0fe800204880003148800048
:1019e800804078000e80e8001e0040000148780022
:1019f8001e0fe800d0408000e1408000f5fb0700a2
:101a0800000078004880de00804078000e80e80002
:101a18001e004000014878001e0fe800d0408000fa
:101a2800e1408000ebfb0700000078008040780070
:101a38000e80e8001e004000014878001e0fe800f4
:101a4800f040800001418000e2fb070000007800c0
:101a58004880de00804078000e80e8001e004000cc
:101a6800014878001e0fe800f04080000141800026
:101a7800d8fb070000007800804078000e80e8005e
:101a88001e004000014878001e0fe800b0408000aa
:101a9800c1408000cffb0700000078004880de00ce
:101aa800804078000e80e8001e0040000148780061
:101ab8001e0fe800b0408000c1408000c5fb070051
:101ac80000007800804078000e80e8001e0040008a
:101ad800014878001e0fe80090408000a140800077
:101ae800bcfb0700000078004880de0080407800da
:101af8000e80e8001e004000014878001e0fe80034
:101b080090408000a1408000b2fb070000007800f0
:101b1800804078000e80e8001e00400001487800f0
:101b28001e0fe8000e80e800000178009e00780093
:101b3800100a2000150c07000080fa0000000600bb
:101b48001c00fa00889fbe00200f9800310f9800f3
:101b5800420f9800530f9800d2cc2c00c3e4230006
:101b68002e089000be0890002efc0700008fbe00d3
:101b78000200200003f023004e089000de089000c9
:101b880028fc07002007980031079800325c2f00d6
:101b980083ea23004e089000de08900021fc07002d
:101ba80040079800510798002e019000be01900050
:101bb8001e00be0041fb07006007980071079800ef
:101bc8004e019000de0190001e00be0015fc0700cb
:101bd800000f9800110f9800804a8000914a8000f9
:101be8006e019000fe0190000efc07001e01be0071
:101bf80051fa07000004be00804a8000914a800024
:101c08000001be000e0890009e0890002bfb070004
:101c18000001be000800be0047fa07009042880095
:101c2800a14288001e00be000004be0009f0a20008
:101c38000e0890009e0890000001be003efa0700c2
:101c48000002be00804a8000914a80000001be0068
:101c58000400be0019fb07000001be000800be001a
:101c680034fa0700b0428800c1428800804a8000e8
:101c7800914a80000001be000e0890009e08900066
:101c88000efb0700d0428800e14288004f04be00e6
:101c98000080fa00000006001c00fa00889fbe00c1
:101ca800200f9800310f9800420f9800530f9800aa
:101cb8002e099000be099000028fbe004e099000c8
:101cc800de09900022079800330798006000b800ea
:101cd80040079800510798002e019000be0190001f
:101ce8001e00be00f5fa070060079800710798000b
:101cf8004e019000de0190001e00be00c9fb0700e7
:101d0800000f9800110f9800804a8000914a8000c7
:101d18006e019000fe019000c2fb07001e01be008c
:101d280005fa07000004be00804a8000914a80003e
:101d38000001be000e0890009e089000dffa070020
:101d48000001be000800be00fbf9070090428800b1
:101d5800a14288001e00be000004be0009f0a200d7
:101d68000e0890009e0890000001be00f2f90700de
:101d78000002be00804a8000914a80000001be0037
:101d88000400be00cdfa07000001be000800be0036
:101d9800e8f90700b0428800c1428800804a800004
:101da800914a80000001be000e0890009e08900035
:101db800c2fa0700d0428800e14288004f04be0002
:101dc8000080fa00000006001000fa00889fbe009c
:101dd80060079800710798006e019000fe0190005e
:101de800028fbe006000b8002007980031079800f5
:101df8006000b8004007980051079800804a8000aa
:101e0800914a80002e019000be01900085fb0700da
:101e18001e01be00c8f907000004be00804a800009
:101e2800914a80000001be004e009000de00900044
:101e3800a2fa07000001be000800be00bef90700b4
:101e480090428800a14288001e00be000004be0027
:101e580009f0a2004e009000de0090000001be00d4
:101e6800b5f907000002be00804a8000914a800050
:101e78000001be000400be0090fa07000001be0089
:101e88000800be00abf90700b0428800c1428800d4
:101e9800804a8000914a80000001be004e009000f8
:101ea800de00900085fa0700d0428800e1428800f1
:101eb8004f04be000080fa00000006000400fa008b
:101ec800889fbe00008fbe003041800041418000e5
:101ed8005041880061418800104180002141800004
:101ee80030418800414188001e01be00124188002f
:101ef8002341880070418000814180009041880022
:101f0800a141880014418000254180009042800052
:101f1800a14280000001be000400be0041fb070092
:101f28000002be0090418000a14180000001be0077
:101f38000400be0080f907000004be0034418000a0
:101f480045418000b0428000c14280000001be00cf
:101f58000400be0033fb07000001be000800be00fd
:101f680075f907000004be005441800065418000f7
:101f7800d0428000e14280000001be000400be00a3
:101f880028fb07000001be000800be006af9070030
:101f98007041880081418800704180008141800043
:101fa8004f04be000080fa00000006001000fa008e
:101fb800889fbe0060079800710798006e01900026
:101fc800fe019000028fbe006000b8002007980054
:101fd800310798006000b800400798005107980042
:101fe800804a8000914a80002e019000be01900036
:101ff8000cfb07001e01be004ff907000004be00dd
:10200800804a8000914a80000001be004e00900086
:10201800de00900029fa07000001be000800be009b
:1020280045f90700f0428800014388001e00be0001
:102038000004be0009f0a2004e009000de009000ef
:102048000001be003cf907000002be00804a800083
:10205800914a80000001be000400be0017fa070084
:102068000001be000800be0032f9070010438800d6
:1020780021438800804a8000914a80000001be0008
:102088004e009000de0090000cfa070030438800f4
:10209800414388004f04be000080fa00000006009b
:1020a8001c00fa00889fbe00200f9800310f98008e
:1020b800420f9800530f98002e099000be09900017
:1020c800028fbe004e099000de099000220798009a
:1020d800330798006000b80040079800510798003f
:1020e8002e019000be0190001e00be00f3f907000b
:1020f80060079800710798004e019000de0190007b
:102108001e00be00c7fa0700000f9800110f9800c4
:10211800804a8000914a80006e019000fe01900084
:10212800c0fa07001e01be0003f907000004be0044
:10213800804a8000914a80000001be000e0890008d
:102148009e089000ddf907000001be000800be00ef
:10215800f9f80700f0428800014388001e00be001d
:102168000004be0009f0a2000e0890009e0890002e
:102178000001be00f0f807000002be00804a80009f
:10218800914a80000001be000400be00cbf90700a0
:102198000001be000800be00e6f8070010438800f2
:1021a80021438800804a8000914a80000001be00d7
:1021b8000e0890009e089000c0f907003043880080
:1021c800414388004f04be000080fa00000006006a
:1021d8000400fa00889fbe00008fbe00f041800016
:1021e800014280001042880021428800d0418000ce
:1021f800e1418000f0418800014288001e01be00d4
:10220800d2418800e341880030428000414280008a
:102218005042880061428800d4418000e541800036
:10222800f0428000014380000001be000400be00af
:102238007cfa07000002be00504280006142800024
:102248000001be000400be00bbf807000004be0089
:10225800f441800005428000104380002143800043
:102268000001be000400be006efa07000001be00b7
:102278000800be00b0f807000004be001442800049
:102288002542800030438000414380000001be00a9
:102298000400be0063fa07000001be000800be008b
:1022a800a5f807003042880041428800304280008b
:1022b800414280004f04be000080fa000000060082
:1022c8000000fa00000e80000000a1000010a1002c
:1022d800000e8800000e80000020a1000030a10040
:1022e800000e8800000e80000040a1000050a100f0
:1022f8000060a1000070a100000e8800803e200050
:10230800200e8800c901a800c921a800c941a80059
:10231800ca41a800d521a800d501a800d561a80008
:10232800d541a800d5a1a800d581a800c1e1a80081
:102338000080fa00000006000600fa00008fbe00c8
:102348004247980002002000832c24001e00be0093
:10235800b50d0700008fbe0002002000832c2c0062
:102368001e00be009a0d0700008fbe004e40900070
:102378000000fb00e20f50000e003200e20f500098
:1023880003003c00e10f5000060032001500370042
:10239800e30f50000b003200e40f50000d00320034
:1023a800100037001e01be001282880023828800b8
:1023b8000c0037001e01be0092828800a3828800ac
:1023c800080037001e01be00f282880003838800df
:1023d800040037001e01be00328388004383880052
:1023e800000000000080fa00000006000600fa0065
:1023f800889fbe008a1f7800404798006000b80098
:10240800008fbe00b0818000630060000000e00023
:102418004e003a004e4090000080fb00e10f500053
:1024280003003200e20f5000250032004802370056
:10243800108280002182800050828800618288009a
:10244800508280006182800018c0b3006011b8001b
:102458005ef907000000e00001003c000044eb00ca
:102468000804e00004003200c801a900cde2a80079
:10247800c881a80003003700c881a900cdc2a80000
:10248800c801a80050828000618280003d0d0700cd
:102498000001be0000002000812c240025f8070060
:1024a80002002000031a2400def907006af9070079
:1024b80000007800b00e88000000000024023700f9
:1024c80090828000a1828000d0828800e18288000a
:1024d800d0828000e182800018c0b3006011b8008b
:1024e8003af907000000e00001003c000044eb005e
:1024f8000804e00004003200c8a1a900cd82a800a9
:10250800c821a80003003700c821a900cda2a8004f
:10251800c8a1a800d0828000e1828000190d0700c0
:102528000001be0000002000812c240001f80700f3
:1025380002002000031a2400baf9070046f9070030
:1025480000007800c00e8800010237004e4090005d
:102558000080fb00e10f500003003200e20f500042
:10256800fd003200fa013700c18180000010200010
:10257800008060000000e0008300320034828000a8
:1025880045828000108280002182800018c0b3003c
:102598000001be000400be000af907000000e000c8
:1025a800010035000044eb000804e0002f00320071
:1025b8003082800041828000f20c07000004be00d7
:1025c8001082800021828000ee0c07001ac0b30040
:1025d8000001be000800be00faf807000000e00095
:1025e800010035000045eb000a04e0000a00320053
:1025f8003482800045828000d0818000e1818000a3
:102608000001be000400be00cbf70700308288003e
:10261800418288000b0037003882800049828000a0
:10262800d0818000e18180000001be00c2f7070070
:102638000001be000800be00bff707003082880016
:1026480041828800308280004182800014828000ac
:10265800258280000001be000400be00f20c0700c5
:1026680030828800418288003b0037003482800035
:1026780045828000108280002182800018c0b3004b
:102688000001be000400be00d0f807000000e00012
:1026980001003c000044eb000804e0002e0032007a
:1026a8003082800041828000b60c07000004be0022
:1026b8001082800021828000b20c07001ac0b3008b
:1026c8000001be000800be00bef807000000e000e0
:1026d800010035000045eb000a04e0000a00320062
:1026e8003482800045828000d0818000e1818000b2
:1026f8000001be000400be008ef70700308288008b
:10270800418288000b0037003882800049828000af
:10271800d0818000e18180000001be0086f70700bb
:102728000001be000800be0082f707003082880062
:1027380041828800308280004182800014828000bb
:10274800258280000001be000400be00a00c070026
:102758003082880041828800388280004982800067
:10276800f081800001828000020020000312240012
:1027780052f807000001be000800be006df7070010
:10278800008fbe000b00370018828000298280006d
:10279800f0818000018280000200200003122400e2
:1027a80046f807000001be000800be0061f70700f8
:1027b800008fbe001e00be001c0f0700508288005c
:1027c80061828800508280006182800002002000bf
:1027d800832c2400940c07005082880061828800b2
:1027e800508280006182800002002000832c2c002f
:1027f800770c0700508288006182880018c0b300f7
:1028080002002000c32824001e00be006ff8070045
:102818000000e00001003c000044eb000804e00078
:102828001000320022488000334880006048800051
:10283800714880000001510081815900401f20002b
:1028480001002000800f5100818f590023003600bd
:10285800604a80000090a00000a0a100604a8800a3
:102868001e00370018c0b30002002000c3282c0047
:102878001e00be0053f807000000e000010035000c
:102888000044eb000804e0001000320022488000f9
:102898003348800060488000714880000001510082
:1028a80081815900401f200001002000800f510045
:1028b800818f590009003600604a80000090a1000d
:1028c80000a0a000604a880004003700204880006b
:1028d8003148800060488800714888005082800034
:1028e8006182800018c0b3006011b80037f8070093
:1028f8000000e00001003c000044eb000804e00098
:1029080004003200c801a900cde2a800c881a800cf
:1029180003003700c881a900cdc2a800c801a800db
:102928005082800061828000160c07000001be0002
:1029380000002000812c2400fef607000200200081
:10294800031a2400b7f8070043f8070000007800ce
:10295800b00e8800fe003700c18180000010200002
:10296800008060000000e00083003200b482800034
:10297800c582800090828000a182800018c0b300c8
:102988000001be000400be000ef807000000e000d1
:10299800010035000044eb000804e0002f0032007d
:1029a800b0828000c1828000f60b07000004be00e0
:1029b80090828000a1828000f20b07001ac0b30049
:1029c8000001be000800be00fef707000000e0009e
:1029d800010035000045eb000a04e0000a0032005f
:1029e800b4828000c5828000d0818000e1818000af
:1029f8000001be000400be00cff60700b0828800c8
:102a0800c18288000b003700b8828000c98280002c
:102a1800d0818000e18180000001be00c6f6070079
:102a28000001be000800be00c3f60700b08288009f
:102a3800c1828800b0828000c182800094828000b8
:102a4800a58280000001be000400be00f60b07004e
:102a5800b0828800c18288003b003700b4828000c1
:102a6800c582800090828000a182800018c0b300d7
:102a78000001be000400be00d4f707000000e0001b
:102a880001003c000044eb000804e0002e00320086
:102a9800b0828000c1828000ba0b07000004be002b
:102aa80090828000a1828000b60b07001ac0b30094
:102ab8000001be000800be00c2f707000000e000e9
:102ac800010035000045eb000a04e0000a0032006e
:102ad800b4828000c5828000d0818000e1818000be
:102ae8000001be000400be0092f60700b082880014
:102af800c18288000b003700b8828000c98280003c
:102b0800d0818000e18180000001be008af60700c4
:102b18000001be000800be0086f60700b0828800eb
:102b2800c1828800b0828000c182800094828000c7
:102b3800a58280000001be000400be00a40b0700af
:102b4800b0828800c1828800b8828000c982800073
:102b5800708280008182800002002000031224001d
:102b680056f707000001be000800be0071f6070016
:102b7800008fbe000b00370098828000a982800079
:102b880070828000818280000200200003122400ed
:102b98004af707000001be000800be0065f60700fe
:102ba800008fbe001e00be005c0e0700d0828800a9
:102bb800e1828800d0828000e1828000020020004b
:102bc800832c2400980b0700d0828800e1828800bb
:102bd800d0828000e182800002002000832c2c003b
:102be8007b0b0700d0828800e1828800d0828000b9
:102bf800e182800018c0b30002002000c32824002e
:102c080072f707000000e00001003c000044eb0000
:102c18000804e00010003200224880003348800099
:102c2800804880009148800000015100818159004e
:102c3800401f200001002000800f5100818f5900a3
:102c480024003600604a80000070a0000080a100c7
:102c5800604a88001f003700d0828000e18280002f
:102c680018c0b30002002000c3282c0055f7070045
:102c78000000e000010035000044eb000804e0001b
:102c880010003200224880003348800080488000cd
:102c9800914880000001510081815900401f2000a7
:102ca80001002000800f5100818f59000900360073
:102cb800604a80000070a1000080a000604a88007f
:102cc8000400370020488000314880008048880090
:102cd80091488800d0828000e182800018c0b3004b
:102ce8006011b80039f707000000e00001003c005f
:102cf8000044eb000804e00004003200c8a1a90069
:102d0800cd82a800c821a80003003700c821a90067
:102d1800cda2a800c8a1a800d0828000e1828000ce
:102d2800180b07000001be0000002000812c2400c1
:102d380000f6070002002000031a2400b9f7070074
:102d480045f7070000007800c00e8800000000006a
:102d58004c49a8004f0578004f04be000080fa00d7
:102d6800000006001200fa000000eb00000f7800d7
:102d780020488000314880004808de008040780004
:102d88000e80e8001e004000014878001e0fe80091
:102d980020488000314880004008de0080407800ec
:102da8000e80e8001e004000014878001e0fe80071
:102db80020488000314880004809dd004800de00d6
:102dc80000007100c808de00804078000e80e8002e
:102dd8001e004000014878001e0fe80020488000cf
:102de80031488000804078000e80e8001e004000d6
:102df800014878001e0fe8001082800021828000c0
:102e0800f4f60700000078004880de008040780073
:102e18000e80e8001e004000014878001e0fe80000
:102e28001082800021828000eaf607000000780006
:102e3800804078000e80e8001e00400001487800bd
:102e48001e0fe800f081800001828000020020004f
:102e58000312240099f60700def607000000780048
:102e68004880de00804078000e80e8001e004000a8
:102e7800014878001e0fe800f08180000182800080
:102e880002002000031224008cf60700d1f6070088
:102e980000007800804078000e80e8001e004000a6
:102ea800014878001e0fe80050828000618280008f
:102eb800c8f60700000078004880de0080407800ef
:102ec8000e80e8001e004000014878001e0fe80050
:102ed8005082800061828000bef607000000780002
:102ee800804078000e80e8001e004000014878000d
:102ef8001e0fe80090828000a1828000b5f60700ce
:102f0800000078004880de00804078000e80e800ed
:102f18001e004000014878001e0fe80090828000e3
:102f2800a1828000abf6070000007800804078009e
:102f38000e80e8001e004000014878001e0fe800df
:102f48007082800081828000020020000312240029
:102f58005af607009ff60700000078004880de0058
:102f6800804078000e80e8001e004000014878008c
:102f78001e0fe8007082800081828000020020001d
:102f8800031224004df6070092f6070000007800af
:102f9800804078000e80e8001e004000014878005c
:102fa8001e0fe800d0828000e182800089f60700c9
:102fb800000078004880de00804078000e80e8003d
:102fc8001e004000014878001e0fe800d0828000f3
:102fd800e18280007ff607000000780080407800da
:102fe8000e80e8001e004000014878001e0fe8002f
:102ff8000e80e800000178009e007800200a20007a
:10300800e20607000080fa00000006000800fa0047
:10301800e115070067130700720207002303070082
:103028009f03070033040700a5fc07003d140700b1
:103038007b140700b6040700dd040700e508070055
:10304800fe150700600e0700820d0700f868ef0004
:10305800d2cc2c00c3d4230000002000010424009b
:103068005f0c07000000200001122400c0848800c3
:10307800d184880000002000a14f2400208588000a
:10308800318588000000200001182400e0848800b1
:10309800f184880000002000f14a2400008588009f
:1030a80011858800f026210031c0230046fb070067
:1030b800a0702d0031c22300bcfb0700d0cc2c002f
:1030c800c1ec2300d0818800e1818800c0818000a4
:1030d8000080a000c0818800c4e2a900c522a90020
:1030e800c542a9000000eb00000f78000000eb00cb
:1030f800100798000000eb00200798000000eb0084
:1031080030079800cd090700e14f500006003a004b
:10311800b008070000902000d1032000e815070040
:103128004c0d0700c1090700704a8000610060006b
:103138000000e00002003200621507004e09a900f5
:103148005116800000042000008060000000e000ac
:1031580001003a0050168000501680007000600090
:103168000000e000010032004de9a800614a80003b
:1031780000002400008060000000e000050032002c
:10318800c542a80040c6b300f8e8b7004dc9a90079
:1031980001003700c542a9001016800070006000c9
:1031a8000000e00003003a00c522a800f868ef001c
:1031b80001003700c522a900604a80006100600054
:1031c8000000e0000c0032004c09a90010c0b30058
:1031d8009e007800f88f500001003c000040eb0092
:1031e8001e0fe8000004e00003003200f0050700ad
:1031f8000000eb00000f7800604a80006200600069
:103208000000e0000e0032004c29a90010c0b300f5
:103218009e009000f88f500001003c000040eb0039
:103228009e0090008100e800110798000004e0006b
:10323800030032001f0607000000eb00100798008b
:10324800604a8000640060000000e0000e00320068
:103258004c49a90010c0b300be009000f88f500080
:1032680001003c000040eb00be0090008100e80037
:10327800310798000004e00003003200b9fe07009f
:103288000000eb0030079800604a8000680060008a
:103298000000e0000e0032004c69a90010c0b30025
:1032a800ae009000f88f500001003c000040eb0099
:1032b800ae0090008100e800210798000004e000bb
:1032c80003003200a6f907000000eb002007980071
:1032d800614a800000022000008060000000e000d9
:1032e800030032004ca9a900090d0700630d07006f
:1032f800614a800000002800008060000000e000b3
:1033080005003200e0c0b300f8e8b700c4e2a80046
:103318004de9a90001003700c4e2a9000d0007002b
:103328000200370031110700730607004311070038
:103338000004e000fbff3a000200370021130700f9
:10334800dd0607002f1307000004e000fbff3a002a
:103358006cff37000400fa00889fbe008a1f7800bf
:10336800f8c8bf000080fb00cf80de0052062000b6
:1033780003002000820f5000838f5800ef003e00aa
:1033880000600100650037006c00370072003700ec
:1033980074003700ad003700b2003700b3003700c3
:1033a800b8003700b9003700be003700e300370027
:1033b800e2003700e1003700e0003700bb003700cb
:1033c800c4003700dd003700dc003700db003700c1
:1033d800da003700d9003700d8003700d7003700a7
:1033e800d6003700d5003700d4003700d3003700a7
:1033f800d2003700d1003700d0003700cf003700a7
:10340800ce003700cd003700cc003700cb003700a6
:10341800ca003700c9003700c8003700c7003700a6
:10342800c6003700c5003700c4003700c3003700a6
:10343800c2003700c1003700c0003700bf003700a6
:10344800be003700bd003700bc003700bb003700a6
:10345800ba003700b9003700b8003700b7003700a6
:10346800b6003700b5003700b4003700b3003700a6
:10347800b2003700b1003700b0003700af003700a6
:10348800ae003700ad003700ac003700ab003700a6
:10349800aa003700a9003700a8003700a7003700a6
:1034a800a6003700a5003700a4003700a3003700a6
:1034b800a2003700a1003700a00037009f003700a6
:1034c8009e0037009d0037009c0037009b003700a6
:1034d8009a003700990037009800370097003700a6
:1034e80096003700950037009400370093003700a6
:1034f8009200370091003700900037008f003700a6
:103508008e0037008d0037008c0037008b003700a5
:103518008a0037007d0037008b0037008040eb00c1
:103528000040eb005314070010c0b300f8e8b700e0
:103538004de9a9004dc9a9004ca9a90010168000a1
:10354800700060000000e0008100320020c0b3007d
:10355800f8e8b7008100370030c0b300f8e8b700da
:103568007e003700a0848000cf80de0055f507007c
:10357800dd08070017f50700000f78004085800078
:103588006300b900000078006a0050008000eb007a
:103598004ff507000001be0000002000c1282400ec
:1035a800210907000001be000000200001122400cc
:1035b8000709070007f50700204798002e409000ec
:1035c8000000fb00cf80de003ef507000004be00cf
:1035d8001e007800cf80de003af5070002002000c8
:1035e80003f023008ff507000001be000800be00ad
:1035f800d1f30700f7f40700004578002e4090004b
:103608000000fb00cf80de002ef507000004be009e
:103618001e007800cf80de002af507000200200097
:1036280003f023007ff507000001be000800be007c
:10363800c0f30700e7f40700004078008a407800ec
:103648000c1407004900070044003700e1c1b3002b
:103658000040eb000714070050c0b300f8e8b700bb
:103668003e003700410007003c0037008040eb0077
:10367800e0c1b300ff13070070c0b300f8e8b7005b
:10368800360037003900070034003700e1c1b300c5
:1036980020ceb300f713070090c0b300f8e8b700d6
:1036a8002e003700310007002c00370021ceb30070
:1036b80020ceb300ef130700f0c0b300f8e8b7005e
:1036c8002048800031488000f04788000148880081
:1036d800220037002248800033488000f0478000ed
:1036e800014880000001510081815900401f2000dd
:1036f80001002000800f5100818f5900160036000c
:1037080020c0b300f8e8b700140037002048800054
:1037180031488000f0478800014888008040eb006d
:103728000040eb00d313070010c0b300980d07004a
:1037380050c6b300f8e8b70008003700f868ef0093
:1037480000000000050037000000000003003700fb
:103758000000000001003700000000004f0578005d
:103768004f04be000080fa00000006000200fa00c4
:103778000040eb00004f780060858000fd0f50008e
:1037880009003e0040858000fe0f5000060036000c
:1037980050858000fe0f50000300360020c0b300a3
:1037a800004f78001d00370060858000fe0f500034
:1037b8000900360040858000fe0f500006003600e4
:1037c80050858000fd0f500003003e0010c0b3007c
:1037d800004f78001100370040858000fd0f500031
:1037e80003003e0030c0b300004f78000b003700e4
:1037f80060858000fe0f500008003600408580007c
:10380800fe0f50000500360050858000fe0f500066
:10381800020036000040eb00004f78001e407800a0
:103828000004e00003003a0020c0b300f9e8b70044
:10383800110037001e407800e24f500003003a00a4
:1038480040c0b300f9e8b7000b0037001e4078000d
:10385800e14f500003003a0060c0b300f9e8b70038
:10386800050037001e407800e34f500002003a0080
:1038780080c0b300f9e8b700f9c8bf008080fb003a
:10388800f8c8bf000080fb000000e900808f5000ee
:1038980002003200f9c8bf00f8e8b7000080fa005b
:1038a800000006000c00fa000040eb00004f780012
:1038b8000000eb0010079800120037001e81fb0083
:1038c80020488000314880009e019000c319dd0027
:1038d800030278000402e900030033008100d100ec
:1038e8000080d300fbff37008040780002004700cb
:1038f800414098001e4fe8001e0090000000e800bc
:10390800100798001e009000e30f5000ebff3400f2
:103918001e80fb00818f2000914078000000470046
:10392800414098001e4fe8001e80fb0081032100e3
:103938009140780000004700414098001e4fe80081
:103948001e80fb00810321009140780000004700a1
:10395800414098001e4fe8001e80fb0081032100b3
:103968009140780000004700414098001e4fe80051
:103978006400470000017800510020000005200085
:10398800820407000080fa00000006000200fa0026
:10399800004f78001e80fb000000ea004f00de00a8
:1039a80000407800fde8b700fdc8bf000004e00053
:1039b800040032000040eb00040007000429ef0077
:1039c8000629ef000080fa00000006000200fa0055
:1039d800004f78001e407800f8e8b7000080fa0031
:1039e800000006000000fa0005e1a90005a1a900f1
:1039f80004c1a9000421a9008460a9009460a8005a
:103a080000002000a13724003d00070005e1a800c0
:103a18000080fa00000006003600f800809fbe0013
:103a2800829fbe00849fbe00869fbe000400fa00ed
:103a38008460a9008b020700b081800063006000e9
:103a4800e20f50000e003a00f5f50700000f78006d
:103a58001e00780010007800cf80de0019f40700ff
:103a680012c0b30034fa07001e80e8001000780086
:103a7800cf80de0013f4070022c0b3002efa07003f
:103a8800b081800063006000e30f50000f003a002f
:103a980048f70700100798001e00900010007800f3
:103aa800cf80de0007f4070012c0b30022fa070037
:103ab8001e0090000080e80010007800cf80de0033
:103ac80000f4070022c0b3001bfa070010c0b300bf
:103ad80046fa070020c0b30044fa070030c0b3001c
:103ae80042fa07000080fa004f03be004f02be00f2
:103af8004f01be004f00be003600f900004006002e
:103b08000400fa00881f7800008fbe00200880009b
:103b18000040a1000050a100200888001e01be003e
:103b28000068290081c1240064f3070018c0b300ad
:103b380002f02f00f3772400a4f307000000e00050
:103b480001003c000044eb000804e0004d00320096
:103b5800200880000040a0000050a1002008880034
:103b68001e01be000068290081c1240053f307002c
:103b7800020020000310240050f3070018c0b3000f
:103b880002f02f00f377240090f307000000e00014
:103b980001003c000044eb000804e0002e00320065
:103ba800200880000040a1000050a00020088800e4
:103bb8001e01be000068290081c124003ff30700f0
:103bc80002002000032824003cf3070018c0b300bb
:103bd80002f02f00f37724007cf307000000e000d8
:103be80001003c000044eb000804e0000f00320034
:103bf800200880000040a0000050a0002008880095
:103c08001e01be000068290081c124002bf30700b3
:103c1800020020000338240028f307006df3070092
:103c280000007800100888001d0037001e01be0043
:103c38000068290081c1240020f307000200200049
:103c4800032824001df3070062f307000000780032
:103c580010088800120037001e01be000068290005
:103c680081c1240015f3070002002000031024007e
:103c780012f3070057f307000000780010088800c7
:103c8800070037001e01be000068290081c124001a
:103c98000af307004ff307000000780010088800b7
:103ca8004f0478000080fa00000006000000fa00c7
:103cb80011e1a90011a1a90010c1a9001021a900b2
:103cc80000002000011224000500070084e0a9007c
:103cd80094e0a80011e1a8000080fa0000000600a6
:103ce8000400fa00881f7800008fbe00800880005a
:103cf8000040a1000050a100800888001e01be00fd
:103d08000068290081c12400ecf2070018c0b30044
:103d180002f02f00f37724002cf307000000e000e6
:103d280001003c000044eb000804e0004d003200b4
:103d3800800880000040a0000050a1008008880092
:103d48001e01be000068290081c12400dbf20700c3
:103d58000200200003102400d8f2070018c0b300a6
:103d680002f02f00f377240018f307000000e000aa
:103d780001003c000044eb000804e0002e00320083
:103d8800800880000040a1000050a0008008880042
:103d98001e01be000068290081c12400c7f2070087
:103da8000200200003282400c4f2070018c0b30052
:103db80002f02f00f377240004f307000000e0006e
:103dc80001003c000044eb000804e0000f00320052
:103dd800800880000040a0000050a00080088800f3
:103de8001e01be000068290081c12400b3f207004b
:103df8000200200003382400b0f20700f5f20700a3
:103e080000007800600888001d0037001e01be0011
:103e18000068290081c12400a8f2070002002000e0
:103e280003282400a5f20700eaf207000000780042
:103e380060088800120037001e01be0000682900d3
:103e480081c124009df20700020020000310240015
:103e58009af20700dff20700000078006008880087
:103e6800070037001e01be000068290081c1240038
:103e780092f20700d7f20700000078006008880077
:103e88004f0478000080fa00000006000000fa00e5
:103e980084e0a9004ca9a8000080fa0000400600b0
:103ea8000000fa0013e1a90013a1a90012c1a9009a
:103eb8001221a90000002400c161240005000700a8
:103ec8008500a9009500a80013e1a8000080fa0069
:103ed800000006000400fa00881f7800008fbe006a
:103ee800900880000040a1000050a10090088800c0
:103ef8001e01be000068290081c124006ff207007e
:103f080018c0b30002f02f00f3772400aff20700c7
:103f18000000e00001003c000044eb000804e00061
:103f28004d003200900880000040a0000050a10021
:103f3800900888001e01be000068290081c1240085
:103f48005ef2070002002000031024005bf2070065
:103f580018c0b30002f02f00f37724009bf207008b
:103f68000000e00001003c000044eb000804e00011
:103f78002e003200900880000040a1000050a000f0
:103f8800900888001e01be000068290081c1240035
:103f98004af20700020020000328240047f2070025
:103fa80018c0b30002f02f00f377240087f207004f
:103fb8000000e00001003c000044eb000804e000c1
:103fc8000f003200900880000040a0000050a000c0
:103fd800900888001e01be000068290081c12400e5
:103fe80036f20700020020000338240033f20700ed
:103ff80078f2070000007800700888001d0037007c
:104008001e01be000068290081c124002bf20700b0
:10401800020020000328240028f207006df20700a0
:104028000000780070088800120037001e01be00ea
:104038000068290081c1240020f207000200200046
:10404800031024001df2070062f207000000780048
:1040580070088800070037001e01be0000682900ac
:1040680081c1240015f207005af207000000780009
:10407800700888004f0478000080fa0000000600ed
:104088003600f800809fbe00829fbe00849fbe005d
:10409800869fbe000000fa008500a900150b0700e6
:1040a800d30507000ac9bf000040e8000ae9b700c5
:1040b8000ac9bf00e94f50000700360020488000b9
:1040c8003148800061004000e080480020488800b6
:1040d800314888000a69ef000080fa004f03be00eb
:1040e8004f02be004f01be004f00be003600f9006f
:1040f800004006000000fa001fe1a9001fa1a90066
:104108001ec1a9001e21a9008760a9009760a80008
:1041180000002000a1472400030007001fe1a800b9
:104128000080fa00000006000400fa00881f7800ea
:10413800008fbe00f00880000040a1000050a100e0
:10414800f00888001e01be000068290081c1240013
:10415800daf1070018c0b30002f02f00f37724004b
:104168001af207000000e00001003c000044eb00e8
:104178000804e0004d003200f00880000040a00074
:104188000050a100f00888001e01be000068290048
:1041980081c12400c9f10700020020000310240097
:1041a800c6f1070018c0b30002f02f00f37724000f
:1041b80006f207000000e00001003c000044eb00ac
:1041c8000804e0002e003200f00880000040a10042
:1041d8000050a000f00888001e01be0000682900f9
:1041e80081c12400b5f10700020020000328240043
:1041f800b2f1070018c0b30002f02f00f3772400d3
:10420800f2f107000000e00001003c000044eb0070
:104218000804e0000f003200f00880000040a00011
:104228000050a000f00888001e01be0000682900a8
:1042380081c12400a1f107000200200003382400f6
:104248009ef10700e3f1070000007800d00888001d
:104258001d0037001e01be000068290081c124002e
:1042680096f10700020020000328240093f10700bc
:10427800d8f1070000007800d00888001200370045
:104288001e01be000068290081c124008bf10700cf
:10429800020020000310240088f10700cdf1070078
:1042a80000007800d0088800070037001e01be0013
:1042b8000068290081c1240080f10700c5f10700ca
:1042c80000007800d00888004f0478000080fa00c9
:1042d800000006003600f800809fbe00829fbe00e6
:1042e800849fbe00869fbe000000fa008760a90078
:1042f80018fc07000080fa004f03be004f02be0002
:104308004f01be004f00be003600f9000040060015
:104318000000fa00000f80000080a1000090a100ba
:1043280000a0a100000f8800e1e1a900e0e1a900d8
:10433800e0c1a900e041a900e421ef000080eb0002
:10434800300f8800000f80000080a0000090a000bf
:1043580000a0a000000f88008b40a9009b40a80087
:104368000080fa0000000600809fbe000000fa00ee
:104378008b40a900010f80000080200000806000b1
:104388000000e00004003200704580000000e800f2
:104398007045880003003700704580000000e90080
:1043a800704588000080fa004f00be0000400600fb
:1043b8000000fa00800f80000080a1000090a1009a
:1043c80000a0a100800f8800f1e1a900f0e1a90098
:1043d800f0c1a900f041a900f421ef000080eb0032
:1043e800b00f8800800f80000080a0000090a0001f
:1043f80000a0a000800f88008d60a9009d60a80023
:10440800c0458000cf80de00aef10700d0458800af
:10441800e14588000080fa0000000600809fbe0089
:104428000000fa008d60a900810f80000080200044
:10443800008060000000e00004003200c0458000f9
:104448000000e800c045880003003700c045800030
:104458000000e900c04588000080fa004f00be0057
:10446800004006000000fa00889fbe0080458000da
:1044780091458000a0458800b1458800d04580005e
:10448800e1458000f04588000146880070458000bd
:10449800cf80de00c001dd0002002000200f800078
:1044a8008000eb00020040008380480085f107008f
:1044b8008045880091458800c0458000cf80de0097
:1044c800c001dd0002002000a00f80008000eb008a
:1044d80002004000838048007af10700d045880038
:1044e800e14588008045800091458000d25d2b0021
:1044f80043c82300cbf10700804588009145880018
:10450800d0458000e1458000d25d2b0043c82b00d8
:10451800c4f10700d0458800e14588008445800043
:1045280095458000a0458000b14580000001be008f
:104538000400be00ffef070018c0b300020020000f
:10454800832c240021f107000000e00001003c005a
:104558000044eb000804e00010003a0084458000a5
:1045680095458000a0458000b14580000001be004f
:104578000400be00efef070018c0b30002002000df
:10458800832c2c000ff107000000e000010035002b
:104598000044eb000804e00004003200a04580005d
:1045a800b14580008045880091458800d445800049
:1045b800e5458000f0458000014680000001be000e
:1045c8000400be00dbef070018c0b30002002000a3
:1045d800832c2400fdf007000000e00001003c00ef
:1045e8000044eb000804e00010003a00d4458000c5
:1045f800e5458000f0458000014680000001be00ce
:104608000400be00cbef070018c0b3000200200072
:10461800832c2c00ebf007000000e00001003500bf
:104628000044eb000804e00004003200f04580007c
:1046380001468000d0458800e14588008445800017
:1046480095458000a0458000b14580000001be006e
:104658000400be00b7ef070002002000a3372400c3
:1046680070f10700f081880001828800d44580003d
:10467800e5458000f0458000014680000001be004d
:104688000400be00abef070002002000a33724009f
:1046980064f1070070828800818288008445800068
:1046a80095458000a0458000b14580000001be000e
:1046b8000400be009fef07001046880021468800ce
:1046c800d4458000e5458000f04580000146800023
:1046d8000001be000400be0096ef070030468800c7
:1046e80041468800144680002546800030468000f8
:1046f800414680000001be000400be008def0700a7
:10470800a2992900c33824006cf0070004f00700c0
:10471800504688006146880014468000254680007f
:1047280030468000414680000001be000400be0003
:1047380081ef070002002000030024005ff007005b
:104748007046880081468800704680008146800057
:1047580018c0b30002002000031f24009bf00700cc
:104768000000e00001003c000044eb000804e00009
:10477800030032006000b800704688008146880057
:10478800c0838000d1838000008488001184880061
:10479800e0838000f18380002084880031848800d1
:1047a800408480005184800060848800718488007f
:1047b800088480001984800040848000518480002f
:1047c800b5f107000002be0005f0a20070468000a7
:1047d800814680000001be000400be0011f1070000
:1047e8000001be000800be0053ef0700c083880028
:1047f800d183880028848000398480004084800028
:10480800518480002bf007000002be007046800033
:10481800814680000001be000400be0001f10700cf
:104828000001be000800be0043ef0700e0838800d7
:10483800f18388006484800075848000504680007d
:10484800614680000001be000400be003aef070088
:10485800408488005184880040848000518480000e
:1048680018c0b300b2fd20009304240057f00700dd
:104878000000e00001003c000044eb000804e000f8
:10488800070032004084800051848000b2fd20007f
:10489800930c240027ef0700408488005184880087
:1048a800408480005184800018c0b300b2fd20000d
:1048b80093042c0043f007000000e00001003500dd
:1048c8000044eb000804e000070032004084800048
:1048d80051848000b2fd2000930c240016ef0700dd
:1048e80040848800518488004c09a8004c29a800fd
:1048f8004f04be000080fa00000006000000fa0025
:104908000001eb008000eb000000eb000200070054
:104918000080fa00000006000600fa00000f780088
:104928001107980022079800ae28ef00b828ef007a
:10493800e421ef00f421ef006000b800a0458800f2
:10494800b14588006000b800f0458800014688003d
:104958006000b80080458800914588006000b80074
:10496800d0458800e14588001e007800cf80de0031
:1049780054f00700c0838800d18388001e0090008f
:10498800cf80de004ff00700e0838800f1838800c5
:104998002e009000cf80de004af00700dc040700fc
:1049a80040848800518488000080fa0000000600d6
:1049b8001200fa00881f78000000eb00000f780052
:1049c80031003700310020001e84500080458000ef
:1049d80091458000ffef0700800078001e007800f6
:1049e8004300dd000088de008040780008004700b2
:1049f80021409800710020001e845000d04580009e
:104a0800e1458000f3ef0700800078001e00780081
:104a18004300dd000088de00804078000800470081
:104a280021409800b10020001e845000f0818000d1
:104a380001828000e7ef0700800078001e00780000
:104a48004300dd000088de00804078000800470051
:104a580021409800f10020001e84500070828000e0
:104a680081828000dbef0700800078001e0078005c
:104a78004300dd000088de00804078000800470021
:104a8800214098001e0fe8001e007800e30f500038
:104a9800ccff34000e80e8000001780001012000fe
:104aa80000062000390007004f0478000080fa0053
:104ab800000006000e00fa00881f78000000eb00d6
:104ac800000f780026003700310020001e845000b7
:104ad800c0838000d1838000beef0700800078008b
:104ae8001e0078004300dd000088de00804078006a
:104af8000800470021409800710020001e845000e3
:104b0800e0838000f1838000b2ef07008000780026
:104b18001e0078004300dd000088de008040780039
:104b28000800470021409800b10020001e84500072
:104b380040848000518480006a040700a5ef0700c4
:104b4800800078001e0078004300dd000088de0049
:104b58008040780008004700214098001e0fe800b8
:104b68001e007800e30f5000d7ff34000e80e800e5
:104b780000017800c1002000100620000300070093
:104b88004f0478000080fa00000006000e00fa00ca
:104b9800889fbe0040079800510798006207980058
:104ba8000f0478000f007800800478005e00900001
:104bb800660040008000e900210798000000e80036
:104bc8000000e8000000d100800040000f007800dd
:104bd800818747000000e8000000d1000000400085
:104be800300798000000eb00000f78000000eb0091
:104bf800100798003e0090001e004000e1cfb3006f
:104c0800014878001e0fe8004e0090004880de0042
:104c1800804078003e0090001e0040000148780067
:104c28001e0fe8004e009000804078003e00900083
:104c38001e004000014878001e0fe8005e0090004a
:104c48004880de00804078003e0090001e00400052
:104c5800014878001e0fe8005e0090008040780050
:104c68003e0090001e004000014878001e0fe8003a
:104c78000000eb00100798000b0037001e009000a2
:104c8800ee00900000804000904078003e009000c8
:104c98001e004000014878001e0fe8001e0090002a
:104ca8000000e800100798009e0090005e00900049
:104cb800808f5000f1ff35006e019000de009000fb
:104cc8004e009000ec000700be0090009e8040005f
:104cd800804878005e009000e60040003e009000aa
:104ce8003d0b070089077800880778004f04be004d
:104cf8000080fa00000006000400fa00204798002f
:104d0800e0c8bf000080fb00e30f50002200320023
:104d1800e30f500007003c00e10f50001200320082
:104d2800e10f500014003c000000e00008003200d1
:104d380059003700e50f500032003200e50f5000ef
:104d48001c003500e60f50003f00320052003700cb
:104d58002e409000e24f400052003a0010c0b300cd
:104d6800e0e8b70052003700e168ef0020c0b30068
:104d7800e0e8b7004e003700118e2000914078001f
:104d88002e40900000c04000e1e8b70030c0b300fa
:104d9800e0e8b700460037002e4090000080fb0096
:104da8004800dd001047880040c0b300e0e8b700c5
:104db8003f0037002e4090008080fb0010478000a5
:104dc800008040001047880011478000000820003c
:104dd800808f500002003600e068ef003400370092
:104de800104780000000e00003003a0060c0b300f4
:104df800e0e8b7002e00370050c0b300e0e8b70085
:104e08002b003700e4c8bf000080fb0001cb200066
:104e18002e41900082707800e4c8bf000040e8008e
:104e2800e4e8b700e4c8bf008080fb0010478000ba
:104e3800808f50001d003a00e468ef0060c0b300a6
:104e4800e0e8b7001a0037001047800080007800bb
:104e5800e1c8bf000080fb0002cb200086000700ed
:104e6800004f7800ae409000114798001e40900017
:104e78009e40780080cf500005003a00104780001f
:104e880080407800e1c8bf0002cb2000a4000700e2
:104e9800e068ef0006003700e068ef00000000005f
:104ea8000300370000000000010037000000000088
:104eb8000080fa00000006000400fa00204798006d
:104ec800e5c8bf000080fb00e30f5000220032005d
:104ed800e30f500007003c00e10f500012003200c1
:104ee800e10f500014003c000000e0000800320010
:104ef80059003700e50f500032003200e50f50002e
:104f08001c003500e60f50003f0032005200370009
:104f18002e409000e24f400052003a0010c0b3000b
:104f2800e5e8b70052003700e668ef0020c0b3009c
:104f3800e5e8b7004e003700618e20009140780008
:104f48002e40900000c04000e6e8b70030c0b30033
:104f5800e5e8b700460037002e4090000080fb00cf
:104f68004800dd004047880040c0b300e5e8b700ce
:104f78003f0037002e4090008080fb0040478000b3
:104f8800008040004047880041478000000820001a
:104f9800808f500002003600e568ef0034003700cb
:104fa800404780000000e00003003a0060c0b30002
:104fb800e5e8b7002e00370050c0b300e5e8b700b9
:104fc8002b003700eac8bf000080fb0001d3200097
:104fd8002e41900082707800eac8bf000040e800c7
:104fe800eae8b700eac8bf008080fb0040478000bd
:104ff800808f50001d003a00ea68ef0060c0b300df
:10500800e5e8b7001a0037004047800080007800c4
:10501800e6c8bf000080fb0002d32000160007008e
:10502800004f7800ae409000114798001e40900055
:105038009e40780080cf500005003a00404780002d
:1050480080407800e6c8bf0002d320003400070083
:10505800e568ef0006003700e568ef000000000093
:1050680003003700000000000100370000000000c6
:105078000080fa00000006000a00fa0020079800e5
:1050880031079800420798000040eb00004f780075
:105098000000eb0010079800e0cfb3001e4f680037
:1050a8002e0090004880de00004078001e4f680007
:1050b8002e009000004078001e4f68003e009000cf
:1050c8004880de00004078001e4f68003e009000d7
:1050d800004078001e4f68000000eb0010079800a1
:1050e800080037001e009000ce00900000804000ad
:1050f800104078001e4f68001e0090000000e80075
:10510800100798009e0090003e009000808f50008d
:10511800f4ff35001e4078000080fa000000060009
:105128001000fa00404f9800514f980072079800fd
:105138004e4890000080fb0021062000810f50009f
:105148001f00320021062000810f50000a003c0099
:1051580021052000810f5000150032003105200084
:10516800810f50004300320011052000810f5000cc
:105178000b0032009500370021092000810f5000f4
:1051880077003200010a2000810f500050003200e1
:1051980011072000810f5000690032008b00370092
:1051a8007e0090001040780008fa0700870037005a
:1051b8007e00900010407800f4f907008300370063
:1051c8005e489000e64f500077003a000000eb0080
:1051d800000f78000000eb00100798000000eb00bb
:1051e800200798007e009000104078000080fb00a7
:1051f800c800dd007e0090000000e8001040780044
:105208000080fb00008f40007e0090000080e800d6
:10521800104078000080fb00c800dd007e00900090
:1052280063004000104078000080fb0000804000d0
:10523800100798007e00900064004000104078003d
:105248000080fb00c800dd007e0090006500400083
:10525800104078000080fb00008040002007980084
:105268002e0190009e0090001e007800aafd070005
:10527800560037005e489000e24f50004c003a005c
:10528800b08180000000a0000010a100b08188005b
:105298007e009000104078000080fb008000eb004a
:1052a8000bee070012c0b30023f407007e00900045
:1052b8000000e800104078000080fb008000eb0050
:1052c80003ee070022c0b3001bf407003f003700bd
:1052d8005e489000e44f500037003a007e0090008e
:1052e800104078000080fb00c800dd007e009000c0
:1052f8000000e800104078000080fb0000804000bb
:10530800300798007e0090000080e8001040780088
:105318000080fb00c800dd007e00900063004000b4
:10532800104078000080fb00008040004007980093
:10533800ce0090003e0090009d0c0700230037002f
:105348005e489000e14f50001d003a007e0090003a
:105358009040780060072100014878001b00370062
:105368005e489000ea4f500017003a007e00900017
:105378006d004000104078000080fb00c800dd0090
:105388007e0090006e004000104078000080fb0016
:105398000080400050079800de009000a18488003b
:1053a8004e09a80009003700000000000700370078
:1053b800000000000500370000000000030037006f
:1053c8000000000001003700000000000080fa0023
:1053d800000006000000fa00901820002010880045
:1053e80070e7a90007e2a900c8a2a900c8c2a900dd
:1053f800cca2a900ccc2a900803e20000100200058
:105408002f0d0700cca2a800ccc2a80007a2a800b4
:105418000782a8000762a9000742a9000722a9007d
:105428000702a90006e2a90006c2a90006a2a9006f
:1054380007e2a8009620a9009600a900030107002a
:105448000080fa00000006000800fa0020479800d3
:1054580031479800220798003307980007e2a80010
:10546800fa0007000602a800e70007000000000095
:1054780030108000610060000000e000040032008d
:10548800414a8000703e2000808f5000f8ff3600af
:10549800414a8000703e2000808f50000100360095
:1054a800dd000700ae409000e0cfb30000c0600010
:1054b800720007003e409000700007000622a80016
:1054c800d10007000000000030108000620060007a
:1054d8000000e00004003200414a8000703e2000d5
:1054e800808f5000f8ff3600414a8000703e20004f
:1054f800808f500001003600c70007002e40900042
:105508000004a0005d0007000000eb00000f780019
:10551800120037009e0078003e0090000000e9006d
:10552800808f5000050032000000eb007800070073
:10553800ae0090008048780004003700100020007a
:1055480073000700ae009000804878002e0090009d
:105558000000e800200798001e0fe8009e00780071
:105568003e009000808f5000eaff39000642a800f4
:10557800a5000700000000003010800064006000f3
:105588000000e00004003200414a8000703e200024
:10559800808f5000f8ff3600414a8000703e20009e
:1055a800808f5000010036009b000700a70007000d
:1055b8000080fa00000006000400fa00004f78009e
:1055c800114798002247980007e2a8009f000700ab
:1055d8000602a8008c0007000000000030108000c0
:1055e800610060000000e00004003200414a8000d1
:1055f800703e2000808f5000f8ff3600414a80003e
:10560800703e2000808f50000100360082000700a5
:10561800e0cfb3001e406000180007001e40900055
:10562800160007002e409000140007000642a8004c
:105638007500070000000000301080006400600062
:105648000000e00004003200414a8000703e200063
:10565800808f5000f8ff3600414a8000703e2000dd
:10566800808f5000010036006b00070077000700ac
:105678000040eb000080fa00000006000200fa007b
:10568800004f78001e80fb00101088005e000700a5
:105698000000000040108000610060000000e00091
:1056a80004003200414a8000703e2000808f500084
:1056b800f8ff3600414a8000703e2000808f50007d
:1056c80001003600540007004f00070000000000ea
:1056d8004110800000002400008060000000e0000d
:1056e80004003200414a8000703e2000808f500044
:1056f800f7ff3600414a8000703e2000808f50003e
:1057080001003600440007000080fa00000006008f
:105718000400fa0010079800003a80004500de00f7
:1057280061406000004f7800480007000662a8004a
:105738003500070000000000401080006200600093
:105748000000e00004003a00414a8000703e20005a
:10575800808f5000f8ff3600414a8000703e2000dc
:10576800808f5000010036002b00070000108000d9
:1057780010479800350007001e0090000040780090
:10578800614060000080fb00610060004500dd00b2
:1057980032108000f1fd2f008100610001007000cf
:1057a800301088000682a8001700070000000000db
:1057b80030108000700060000000e000040032003b
:1057c800414a8000703e2000808f5000f8ff36006c
:1057d800414a8000703e2000808f50000100360052
:1057e8000d0007001e4090000080fa00000006002f
:1057f8000000fa00404a80000000e800404a8800a3
:105808000080fa00000006000000fa004829ef00b6
:105818000080fa00000006000000fa0010c0b30083
:105828004ae9b7000080fa00000006000000fa000c
:105838004a69ef000080fa00000006000000fa0044
:105848004ac9bf000080fa00000006000000fa0004
:10585800edff0700000000003010800061006000cc
:105868000000e00015003a0030108000640060007d
:105878000000e00011003a0030108000680060006d
:105888000000e0000d003a00301080006200600067
:105898000000e00009003a0030108000700060004d
:1058a8000000e00005003a004110800000002400dc
:1058b800008060000000e00004003200414a8000df
:1058c800703e2000808f5000e3ff3600414a800080
:1058d800703e2000808f500001003600ceff070088
:1058e8000080fa00000006000400fa00881f780013
:1058f800008fbe000500370002002000433b240053
:105908001e00be000beb0700008fbe0018c0b300de
:1059180002002000433324001e00be002bec0700c9
:105928000000e00001003c000044eb000804e00037
:10593800f1ff3a000500370002002000433b240035
:105948001e00be00fcea0700008fbe0018c0b300ae
:105958000200200043332c001e00be0019ec070093
:105968000000e000010035000044eb000804e000fe
:10597800f1ff3a001e00be004f0478000080fa00d4
:10598800000006000400fa00881f7800008fbe009f
:1059980018c0b3006011b8001e00be000bec070071
:1059a8000000e00001003d000044eb000804e000b6
:1059b800020032001e00be00020037001e00be00ba
:1059c80001f0a2004f0478000080fa0000000600f1
:1059d8000800fa00881f7800008fbe002207980090
:1059e8003307980018c0b3002e019000be01900044
:1059f8001e00be00f5eb07000000e00001003c00bf
:105a08000044eb000804e000020032001e00be0063
:105a1800020037002e009000be0090004f0478006e
:105a28000080fa00000006000800fa00881f7800cd
:105a3800008fbe00220798003307980018c0b300f3
:105a48002e019000be0190001e00be00ddeb070095
:105a58000000e000010035000044eb000804e0000d
:105a6800020032001e00be00020037002e00900027
:105a7800be0090004f0478000080fa000000060085
:105a88000400fa00889fbe008a1f7800008fbe00bd
:105a9800b08480000000a100b0848800e883800002
:105aa800f9838000408480005184800081eb0700e6
:105ab8001e01be005bec07000001be000800be002e
