:020000040000fa
:080000000002040000000000f2
:020000040000fa
:100008009a0200009a0200009a0200009a02000078
:100018009a0200009a0200009a0200009a02000068
:100028009a0200009a0200009a02000018190000c3
:100038009a0200009a0200009a020000521b000077
:100048004c1c00009a0200009a0200004c3c000080
:10005800903d00009a0200009a0200009a020000f7
:100068009a0200009a0200009a0200009a02000018
:100078009a0200009a0200009a0200009a02000008
:100088009a0200009a0200009a020000761d000001
:100098009a0200009a020000503f0000843e0000cf
:1000a8009a0200009a0200009a0200009a020000d8
:1000b8009a0200009a0200009a0200009a020000c8
:1000c8009a0200009a0200009a0200009a020000b8
:1000d8009a0200009a0200009a0200009a020000a8
:1000e8009a0200009a0200009a0200009a02000098
:1000f8009a0200009a0200009a0200009a02000088
:100108009a0200009a020000c01d00009a02000036
:100118009a0200009a0200009a0200009a02000067
:100128009a0200009a0200009a0200009a02000057
:100138009a0200009a0200009a0200009a02000047
:100148009a0200009a0200009a0200001a1e00009b
:100158009a0200009a0200009a0200009a02000027
:100168009a0200009a0200009a0200009a02000017
:100178009a0200009a0200009a0200009a02000007
:100188009a0200009a0200009a0200009a020000f7
:100198009a0200009a0200009a0200009a020000e7
:1001a8009a0200009a0200009a0200009a020000d7
:1001b8009a0200009a0200009a0200009a020000c7
:1001c8009a0200009a0200009a0200009a020000b7
:1001d8009a0200009a0200009a0200009a020000a7
:1001e8009a0200009a0200009a0200009a02000097
:0801f8009a0200009a020000c7
:020000040000fa
:100208009a0200009a0200009a0200009a02000076
:100218009a0200009a0200009a0200009a02000066
:100228009a0200009a0200009a02000018190000c1
:100238009a0200009a0200009a020000521b000075
:100248004c1c00009a0200009a0200004c3c00007e
:10025800903d00009a0200009a0200009a020000f5
:100268009a0200009a0200009a0200009a02000016
:100278009a0200009a0200009a0200009a02000006
:100288009a0200009a0200009a020000761d0000ff
:100298009a0200009a020000503f0000843e0000cd
:1002a8009a0200009a0200009a0200009a020000d6
:1002b8009a0200009a0200009a0200009a020000c6
:1002c8009a0200009a0200009a0200009a020000b6
:1002d8009a0200009a0200009a0200009a020000a6
:1002e8009a0200009a0200009a0200009a02000096
:1002f8009a0200009a0200009a0200009a02000086
:100308009a0200009a020000c01d00009a02000034
:100318009a0200009a0200009a0200009a02000065
:100328009a0200009a0200009a0200009a02000055
:100338009a0200009a0200009a0200009a02000045
:100348009a0200009a0200009a0200001a1e000099
:100358009a0200009a0200009a0200009a02000025
:100368009a0200009a0200009a0200009a02000015
:100378009a0200009a0200009a0200009a02000005
:100388009a0200009a0200009a0200009a020000f5
:100398009a0200009a0200009a0200009a020000e5
:1003a8009a0200009a0200009a0200009a020000d5
:1003b8009a0200009a0200009a0200009a020000c5
:1003c8009a0200009a0200009a0200009a020000b5
:1003d8009a0200009a0200009a0200009a020000a5
:1003e8009a0200009a0200009a0200009a02000095
:0803f8009a0200009a020000c5
:020000040000fa
:100400002f0b21000e7f24000e0188000000000049
:10041000000020000000e000020032000001200087
:10042000200288000c000700a00924000100200021
:1004300011000700000020000000e0000200320070
:100440000000020000000000f4250200000000008f
:100450000040da000000fe004440a9000000200037
:100460000000e0000300320000002000a00188002e
:100470004440a80000000600910188008000780038
:100480000000eb0015003700e280400032a0b4000d
:100490009101ba00e280400032a0b4009102ba009b
:1004a000e280400032a0b4000002eb00472bde00e7
:1004b000f507b200602ce10004003a000059eb009f
:1004c0008301e900fdff3e00040037006128e100e0
:1004d000010032000082eb00040007001101ba00a5
:1004e0000200e000e8ff3a00000006003159ba00bf
:1004f0008301e9000c0032002159ba008301e900b0
:10050000080032000400e00003003a00e2804000ee
:1005100032a0b400f5ff370011d9ba008301e90019
:10052000faff3a008100e800e180400032a0b40008
:10053000000006000040da000000fe0003f0a20008
:10054000889fbe008a9fbe008c1f78009f01070015
:10055000a60133006450e1004f0032006420e10046
:100560005200320003826c0007003b000905d000f6
:100570000306d000820f54000c065d000200390013
:100580000200320089017800030678008582550058
:1005900004003d000003fd008103fd008502ea0028
:1005a0008b854200840f720002003b006000100047
:1005b000e08018006011b8000005eb007a28e10027
:1005c0000a00390006007800c75ddd00f707b200b9
:1005d000878075002d003700828171000a01780044
:1005e000610560008180d1000080d3008502e900b0
:1005f000f9ff3b00060440008784480002003b00ee
:1006000060041400e0841c000988a3000700320085
:100610008a81710082817100610164008904d100c6
:100620000884d3008b05e800170037000978a30081
:1006300013003a000b00e000130034008b05e900c2
:100640000804440089844c000a4474000978a3001b
:100650000d003a000b00e000070034008b05e900b4
:100660000804440089844c0001003a000b0020007b
:100670000978a300f7ff32000001eb000200370009
:10068000828171000a017800150107000cf0a700b3
:1006900001f0a0005e0137006420e10002003a0092
:1006a000838f6c005e0133000801be000200be00b3
:1006b00057013700889fbe008a9fbe008c1f7800bc
:1006c000420107001002200002003b00a04a8800ff
:1006d000460137008a0062006408e10002003a0027
:1006e000a04a88004e0137006108e100fcff32009b
:1006f0000800be00030478007200070001f0a100aa
:100700000900070008f0a600040037000001be0041
:1007100091042400b0fd200088ff070009f0a70025
:1007200001f0a2003a013700889fbe008a9fbe00f8
:100730008c9fbe000004be000f0107000800be0031
:10074000890678006420e1000800390004003200c6
:100750000160a00012022000a24a88005300370066
:1007600091fc2300b0fd20004e0037000006eb0096
:1007700009f0a10003f82300020020000800be00d9
:10078000920007000600340001f82300000020005a
:100790000801be004b0007000004be002c00200032
:1007a0000800be0093e82300320a230087000700f8
:1007b000120034000801be00d1fd2300703d2b0063
:1007c0005fff07000005be00b3f32300f27a2600a6
:1007d0000800be001501070003f8230002002000f6
:1007e00056ff07000801be0055ff07000a01be00c2
:1007f000340007000004be000c06e8000800be003c
:1008000001f0a10002002000039823006f00070000
:100810000800be00160035000801be0003010700f5
:100820000005be0032cd2c0043fb230044ff07002f
:10083000809fbe001269280003d52b000a00be006d
:10084000fa000700620f210013ef2b003cff0700a6
:100850000a01be00f50007004f01be0019000700a5
:100860000801be00f10007000801be0034ff0700c8
:100870000c00e0000b0032000c10a70001f0a200f9
:10088000b2fd200093fc23006260e100040032000e
:1008900022a9200063f023000c10a70063f82300b6
:1008a00027ff07000df0a70001f0a2004f06be00d1
:1008b0004f05be004f04be00000006000081eb00a3
:1008c0000e013700889fbe008a9fbe008c1f7800f3
:1008d000be000700c500330003866c006450e100d1
:1008e0002e0032006420e100330032006150e1004c
:1008f0002f0032006120e100310032008585550073
:10090000eb07b000090020000804200005003700b4
:100910000804440089844c000a00310006034300a7
:1009200087834b000001530081815b00f8ff330097
:100930000203be000800a0000804440089844c00a3
:10094000f6ff3900c639dd00830173000100320073
:10095000130020008904d1000884d3000998a30063
:10096000050032000800a7000300a0008904d100a0
:100970000884d3008b05e8008904d1000884d300e3
:100980000001eb000281d2005500070001f0a10038
:100990000cf0a70001f0a0009d0037006420e100ea
:1009a0009f0032000801be000200be00f7ff3700c2
:1009b0006120e1009a0032006000b800f3ff3700c8
:1009c0000000200001f82700f0ff3700140020008d
:1009d0006a013700f4ff2f00680137000001be00f4
:1009e000650007000470a70003f0a1006509b100cd
:1009f000160032000d0035006828e10006003500c1
:100a0000f0ff2f00f1ff27000300e00013003b0080
:100a1000010028000000050000004000818048001f
:100a20008502e900fcff3a0008003700f88f420019
:100a300002003c008000eb00000005008100d100b6
:100a40000080d3008502e800fcff3a000300e000cc
:100a500002003b0060001000e0801800000006006b
:100a60000001be00440007000470a70003f0a100cd
:100a700003f8a30013003a006509b100100032002a
:100a8000090035006928e100020035000100280056
:100a90000000050000004000818048008502e90058
:100aa000fcff3a0000000600f88f42000500350008
:100ab0008100d1000080d3008502e800fcff3a00ed
:100ac000000006008000eb00000005004f89de00fa
:100ad00082017800440137006011b80052013700ec
:100ae00081002000618055000b003d000b002000bc
:100af00061fe2f000100e1001d00340082817100c1
:100b0000610164008904d1000884d3000000e8007a
:100b1000faff3a00710020006100640003007000d9
:100b2000020060000900320061044400e0844c00cf
:100b30000988a500050032008b05e8006808e1007f
:100b400002003a008904d1000884d300f20f20008b
:100b50000258e10005003d00c75ddd00f907b20065
:100b60008980750008007800000006000bf8270057
:100b70008b00780000000500c70ade00f107b20014
:100b8000f50fb20008003200e1cf4200020032004f
:100b90000170a00024000500810f700001003200e8
:100ba0000408050044000500810f700002003a00af
:100bb000140005008502e9000000400081c04800e3
:100bc000fcff3b000170a000240005000004be00f3
:100bd000e9ff07000003be000405be000200be00de
:100be000e5ff0700844f7500000006000200be000c
:100bf0006450e100050036006420e1000200360088
:100c00000968a30001003a000800be000160a000ce
:100c10004f0678004f05be004f04be0000000600de
:100c2000f0ff2f00f1ff2700f9ff3700889fbe007b
:100c30008a9fbe008c1f7800e4ff0700ebff3300a3
:100c400003866c006450e100240032006420e1005f
:100c5000270032006150e100220032006120e100f3
:100c6000210032008b854200eb07b1000134b8004f
:100c7000003ab8000804420089844a00013ab800ea
:100c80000030b8008880400009014a0004003300a9
:100c90000000400081804800020149008b05e90006
:100ca000c909dd008301700001003200130020003b
:100cb000c814de004814dd004709de001200b2004f
:100cc000c808de000884700085ff070001f0a1005d
:100cd0000cf0a70001f0a000cdff37006120e1007b
:100ce000cfff32000801be000200be00f7ff370050
:100cf0006150e100fcff3a00c9ff3700889fbe0049
:100d00008a9fbe008c9fbe00820578000004be0052
:100d100099ff07000800be006420e10007003900c9
:100d200002003a00f1ff2700f0ff2f000160a00051
:100d300012022000a24a8800550037006120e1001d
:100d400003003a000b00a70001f823005000370011
:100d500001f0a10002002100936424001bff0700a2
:100d60000800be0004003500b2fd2000930c2400f2
:100d7000dc0007000004be000005eb000b00a6002d
:100d80004f0dde0001f0a1000004be0032982f00dc
:100d900023ea2300a5ff07000001eb0003f0230076
:100da0000b00a70003f82300e5fd07000bff070079
:100db0000000a7000a00a20044ff07000b00e000ab
:100dc000030032000200200003f02300dbfd0700d7
:100dd00001f0a2000006be000200200093042400df
:100de00092ff07000801be00d5fd0700809fbe00ee
:100df0000c00be0022a22a00d3a723008bff07000d
:100e00004f01be00cefd07000004be0001f0a100ae
:100e10000200200003982300ecfe07000800be003b
:100e2000190035000001be0080ff07000006be006b
:100e3000b2c52900e36223007cff070022222b00b9
:100e4000f3942b00befd07000c01be0077ff0700e6
:100e5000e273280083c02300b9fd07000c01be0027
:100e600072ff070042aa2a00a3e22b00b4fd07008c
:100e70000c01be006dff07000801be006bff0700fc
:100e80000801be00aefd07000a00a70001f0a200a5
:100e90004f06be004f05be004f04be000000060016
:100ea0000001eb0095ff3700889fbe008a9fbe00bf
:100eb0008c1f78000004be002fff07000478a300f9
:100ec00026003a006120e1002500320009f8a30065
:100ed00025003a006420e10021003200f507b1004e
:100ee0000508a30002003200000040008180480095
:100ef0006044b80003102000020020000000400001
:100f0000818048000805440089854c000a0541009d
:100f10008b8549000a0550008b855800030033007b
:100f20000a00be0002047400838474008301d100af
:100f30000281d300830f7100f0ff3a008904d100d1
:100f40000884d3006001490082017800c1adde0051
:100f5000fb07b000e2fe07002dff37000960a0008c
:100f60000800be002aff370012022000a24a8800b3
:100f7000f0ff2f00f1ff270025ff3700889fbe00fc
:100f80008a9fbe00841f780010ff07004f00780082
:100f900011003300f0ff2f00838f6c0006003b0030
:100fa000040565000a00a7000800370009f0a60044
:100fb0001000200008003700820f5400838f5c006f
:100fc000030039001000200001003e000000200056
:100fd00009f0a7000000ea004f05be004f04be0064
:100fe0000000e00000000600881f7800030478007d
:100ff0000300e00007003d0060001000e0801800e2
:1010000060011900e081190002003b0001f02d0091
:10101000030037000400070008f0a70001f0a0005b
:101020004f04780000000600889fbe008a9fbe0023
:1010300000827000040271000482710026003200f8
:101040000004be000200be006011b8006b09200061
:10105000950220000182cf000a0039000541b1004d
:101060000082cf00070039000541b1000982cf009e
:10107000040039000541b1000882cf0001003900a9
:101080000541b10005425200120032000a003b0047
:1010900082817100610164008100d1000080d30071
:1010a0008984d3000884d3008b05e8000442e8005b
:1010b000f7ff3a00070037000804440089844c0019
:1010c00000004800818048008b05e9000442e900e7
:1010d000f9ff3a0082fe07004f05be004f04be0034
:1010e000000006000400200000003700889fbe00ba
:1010f0008a9fbe008c1f78004f26dd00b3fe0700dc
:10110000bafe33006120e100430032006250e1008a
:1011100041003e003e0039006420e1003c00320006
:10112000058255000f003b000402e80038003a0039
:10113000800f5300818f5b00350034000800be0033
:1011400003f0a10001f0a60003f0a0000cf0a7003e
:10115000fbfc0700aefe37000603430087834b000d
:101160000c4646000005530081855b0002003300f9
:101170000a03be000c00a0000402e900f6ff3b00d9
:10118000850578000602430087824b0004003a0080
:101190006000b80009f0a70001f0a0009cfe370035
:1011a0000002520081825a000704e000040033006c
:1011b0000603430087834b008b05e900faff3700e5
:1011c000090578000604be000203be006011b800e5
:1011d00043fe0700e00f5200e08f5a000700350081
:1011e00002003c000c08a300040032000601be000f
:1011f00003f0a0000cf0a700d1fc07000a856800ee
:1012000001f0a1000af0a70001f0a00080fe370065
:101210000800be007efe3700100220000cf0a60081
:08122000a04a88007efe3700a1
:020000040000fa
:101228002800fa00889fbe008a9fbe008c9fbe00df
:10123800804080000000e80080408800b88380007b
:10124800c983800060838000cf80de001dfe070018
:101258000001be000800be00b6fc07000001be0089
:1012680070fe07000004be00da838000eb83800074
:1012780070838000cf80de0012fe07000001be00f0
:101288000a00be00abfc07000001be0065fe0700b7
:101298000001be000800be00a7fc070000ff070011
:1012a800000f9800110f980070838000cf80de0037
:1012b80004fe07000002be00d0838000e1838000a6
:1012c8000001be000400be009afc07000004be0036
:1012d80060838000cf80de00fafd07000002be00b8
:1012e800b0838000c18380000001be000400be00fe
:1012f80090fc07000801be00ecfc070001f0a2000a
:10130800200f9800310f98003084800041848000bd
:101318000001be002e089000be08900085fc070062
:1013280064fd07000e0990009e0990003dfe07002d
:10133800f040880001418800f040800001418000b1
:1013480018c0b30002002000032724009dfd0700f9
:101358000000e000010035000044eb000804e00054
:101368002200320018c0b3000200200083242400a9
:101378000e0890009e08900092fd07000000e00013
:10138800010035000044eb000804e00017003200bb
:10139800f04080000141800018c0b3000200200026
:1013a80003272c0089fd07000000e00001003c0035
:1013b8000044eb000804e0000c00320018c0b30041
:1013c8000200200083242c000e0890009e08900044
:1013d8007efd07000000e00001003c000044eb0037
:1013e8000804e000010032005369a800f0408000c2
:1013f8000141800018c0b30002002000031a240035
:1014080070fd07000000e000010035000044eb001b
:101418000804e0002200320018c0b30002002000d7
:10142800832424000e0890009e08900065fd0700a4
:101438000000e000010035000044eb000804e00073
:1014480017003200f04080000141800018c0b3004e
:1014580002002000031a2c005cfd07000000e000d9
:1014680001003c000044eb000804e0000c003200de
:1014780018c0b3000200200083242c000e0890003e
:101488009e08900051fd07000000e00001003c00ac
:101498000044eb000804e000010032005389a80072
:1014a8001a8580002b8580001085800021858000aa
:1014b8000004be0009f0a200b4848000c584800046
:1014c800f0408000014180000001be000400be0021
:1014d800d4fd07000a02be000801be00eb11070098
:1014e800400f9800510f980030848000418480009c
:1014f8000001be002e089000be0890000dfc0700f9
:1015080040079800510798004e009000de009000b8
:10151800901107004007980051079800a0848000a8
:10152800610060000000e00005003a004e009000f5
:10153800de009000ae1107004007980051079800a0
:101548004e009000de009000f6110700d0408800a1
:10155800e1408800fa8480000b858000f0848000d8
:10156800018580000004be0009f0a200dc84800030
:10157800ed8480004e009000de009000ff1107000f
:101588000001be000c00be00a6fd07000a02be0056
:101598000801be00bd110700600f9800710f980088
:1015a8006000b800b0408800c14088006e08900014
:1015b800fe089000410207000017980011179800d4
:1015c8000e1190009e1190006240880073408800c0
:1015d8006240800073408000028fbe00604080003f
:1015e8007140800001f0a2002007980031079800a0
:1015f8006000b8006007980071079800d04080002c
:10160800e140800018c0b300020020000308240055
:10161800ecfc07000000e000010035000044eb008e
:101628000804e00015003200d0408000e14080004e
:1016380018c0b3000200200003082c00e3fc0700d8
:101648000000e00001003c000044eb000804e0005a
:101658000a003200d0408000e1408000d910070025
:101668000001be000000200001082400b1fb0700b3
:1016780060079800710798000400370000002000f8
:1016880001082400600798007107980002002000f4
:10169800030824006e009000fe00900087fc0700fd
:1016a8002017980031179800d0408000e140800052
:1016b80018c0b3000200200003082400c1fc070082
:1016c8000000e000010035000044eb000804e000e1
:1016d80028003200d0408000e140800018c0b300ec
:1016e8000200200003082c00b8fc07000000e000fe
:1016f80001003c000044eb000804e0001d0032003b
:101708004e089000de089000b1020700b040880043
:10171800c1408800b0408000c1408000204088005f
:101728003140880020408000314080002e11900018
:10173800be1190003bfd07000001be001e00be0068
:101748007dfb0700008fbe002040800031408000f4
:101758002e119000be11900032fd07000001be005e
:101768002e009000be00900073fb07002007980031
:10177800310798001e00be0096fc070000007800a4
:10178800704388002e009000be00900091fc070076
:1017980000007800804388005269a800e086200095
:1017a8004f06be004f05be004f04be000080fa0081
:1017b800000006001800fa00889fbe008a9fbe003d
:1017c8008c9fbe00804080000000e80080408800b8
:1017d8008283800093838000028fbe003084800063
:1017e800418480000001be001e00be0051fb0700be
:1017f80020079800310798002e009000be00900046
:10180800d410070020079800310798002e00900098
:10181800be00900043110700d0408800e1408800d6
:10182800fa8480000b858000f084800001858000a8
:101838000004be0009f0a200dc848000ed84800072
:101848002e009000be0090004c1107000001be0061
:101858000c00be00f3fc07000a02be000801be002f
:101868000a1107004007980051079800d0408000ef
:10187800e140800018c0b3000200200003002400eb
:1018880050fc07000000e000010035000044eb00b8
:101898000804e0000c003200d0408000e1408000e5
:1018a80018c0b3000200200003002c0047fc07000a
:1018b8000000e00001003c000044eb000804e000e8
:1018c800010032005389a8006000b800b0408800c9
:1018d800c14088004e009000de00900077010700ac
:1018e80060079800710798006e019000fe01900053
:1018f8006240880073408800624080007340800026
:10190800020f9800130f980060408000714080001b
:1019180001f0a200200f9800310f98000e089000e7
:101928009e0890002bfc07000000780050438800b8
:101938002e089000be08900026fc070000007800e2
:10194800604388005289a800a08620004f06be0088
:101958004f05be004f04be000080fa0000000600dc
:101968000a00fa000000eb00000f78002048800011
:10197800314880004808de00804078000e80e8008a
:101988001e004000014878001e0fe8002048800033
:10199800314880004008de00804078000e80e80072
:1019a8001e004000014878001e0fe8002048800013
:1019b800314880004809dd004800de000000710061
:1019c800c808de00804078000e80e8001e00400055
:1019d800014878001e0fe800204880003148800048
:1019e800804078000e80e8001e0040000148780022
:1019f8001e0fe800d0408000e1408000f5fb0700a2
:101a0800000078004880de00804078000e80e80002
:101a18001e004000014878001e0fe800d0408000fa
:101a2800e1408000ebfb0700000078008040780070
:101a38000e80e8001e004000014878001e0fe800f4
:101a4800f040800001418000e2fb070000007800c0
:101a58004880de00804078000e80e8001e004000cc
:101a6800014878001e0fe800f04080000141800026
:101a7800d8fb070000007800804078000e80e8005e
:101a88001e004000014878001e0fe800b0408000aa
:101a9800c1408000cffb0700000078004880de00ce
:101aa800804078000e80e8001e0040000148780061
:101ab8001e0fe800b0408000c1408000c5fb070051
:101ac80000007800804078000e80e8001e0040008a
:101ad800014878001e0fe80090408000a140800077
:101ae800bcfb0700000078004880de0080407800da
:101af8000e80e8001e004000014878001e0fe80034
:101b080090408000a1408000b2fb070000007800f0
:101b1800804078000e80e8001e00400001487800f0
:101b28001e0fe8000e80e800000178009e00780093
:101b3800100a2000190a07000080fa0000000600b9
:101b48001c00fa00889fbe00200f9800310f9800f3
:101b5800420f9800530f9800d2cc2c00c3e4230006
:101b68002e089000be0890002efc0700008fbe00d3
:101b78000200200003f023004e089000de089000c9
:101b880028fc07002007980031079800325c2f00d6
:101b980083ea23004e089000de08900021fc07002d
:101ba80040079800510798002e019000be01900050
:101bb8001e00be0041fb07006007980071079800ef
:101bc8004e019000de0190001e00be0015fc0700cb
:101bd800000f9800110f9800604a8000714a800039
:101be8006e019000fe0190000efc07001e01be0071
:101bf80051fa07000004be00604a8000714a800064
:101c08000001be000e0890009e0890002bfb070004
:101c18000001be000800be0047fa07009042880095
:101c2800a14288001e00be000004be0009f0a20008
:101c38000e0890009e0890000001be003efa0700c2
:101c48000002be00604a8000714a80000001be00a8
:101c58000400be0019fb07000001be000800be001a
:101c680034fa0700b0428800c1428800604a800008
:101c7800714a80000001be000e0890009e08900086
:101c88000efb0700d0428800e14288004f04be00e6
:101c98000080fa00000006001c00fa00889fbe00c1
:101ca800200f9800310f9800420f9800530f9800aa
:101cb8002e099000be099000028fbe004e099000c8
:101cc800de09900022079800330798006000b800ea
:101cd80040079800510798002e019000be0190001f
:101ce8001e00be00f5fa070060079800710798000b
:101cf8004e019000de0190001e00be00c9fb0700e7
:101d0800000f9800110f9800604a8000714a800007
:101d18006e019000fe019000c2fb07001e01be008c
:101d280005fa07000004be00604a8000714a80007e
:101d38000001be000e0890009e089000dffa070020
:101d48000001be000800be00fbf9070090428800b1
:101d5800a14288001e00be000004be0009f0a200d7
:101d68000e0890009e0890000001be00f2f90700de
:101d78000002be00604a8000714a80000001be0077
:101d88000400be00cdfa07000001be000800be0036
:101d9800e8f90700b0428800c1428800604a800024
:101da800714a80000001be000e0890009e08900055
:101db800c2fa0700d0428800e14288004f04be0002
:101dc8000080fa00000006001000fa00889fbe009c
:101dd80060079800710798006e019000fe0190005e
:101de800028fbe006000b8002007980031079800f5
:101df8006000b8004007980051079800604a8000ca
:101e0800714a80002e019000be01900085fb0700fa
:101e18001e01be00c8f907000004be00604a800029
:101e2800714a80000001be004e009000de00900064
:101e3800a2fa07000001be000800be00bef90700b4
:101e480090428800a14288001e00be000004be0027
:101e580009f0a2004e009000de0090000001be00d4
:101e6800b5f907000002be00604a8000714a800090
:101e78000001be000400be0090fa07000001be0089
:101e88000800be00abf90700b0428800c1428800d4
:101e9800604a8000714a80000001be004e00900038
:101ea800de00900085fa0700d0428800e1428800f1
:101eb8004f04be000080fa00000006000400fa008b
:101ec800889fbe00008fbe003041800041418000e5
:101ed8005041880061418800104180002141800004
:101ee80030418800414188001e01be00124188002f
:101ef8002341880070418000814180009041880022
:101f0800a141880014418000254180009042800052
:101f1800a14280000001be000400be0041fb070092
:101f28000002be0090418000a14180000001be0077
:101f38000400be0080f907000004be0034418000a0
:101f480045418000b0428000c14280000001be00cf
:101f58000400be0033fb07000001be000800be00fd
:101f680075f907000004be005441800065418000f7
:101f7800d0428000e14280000001be000400be00a3
:101f880028fb07000001be000800be006af9070030
:101f98007041880081418800704180008141800043
:101fa8004f04be000080fa00000006001000fa008e
:101fb800889fbe0060079800710798006e01900026
:101fc800fe019000028fbe006000b8002007980054
:101fd800310798006000b800400798005107980042
:101fe800604a8000714a80002e019000be01900076
:101ff8000cfb07001e01be004ff907000004be00dd
:10200800604a8000714a80000001be004e009000c6
:10201800de00900029fa07000001be000800be009b
:1020280045f90700f0428800014388001e00be0001
:102038000004be0009f0a2004e009000de009000ef
:102048000001be003cf907000002be00604a8000a3
:10205800714a80000001be000400be0017fa0700a4
:102068000001be000800be0032f9070010438800d6
:1020780021438800604a8000714a80000001be0048
:102088004e009000de0090000cfa070030438800f4
:10209800414388004f04be000080fa00000006009b
:1020a8001c00fa00889fbe00200f9800310f98008e
:1020b800420f9800530f98002e099000be09900017
:1020c800028fbe004e099000de099000220798009a
:1020d800330798006000b80040079800510798003f
:1020e8002e019000be0190001e00be00f3f907000b
:1020f80060079800710798004e019000de0190007b
:102108001e00be00c7fa0700000f9800110f9800c4
:10211800604a8000714a80006e019000fe019000c4
:10212800c0fa07001e01be0003f907000004be0044
:10213800604a8000714a80000001be000e089000cd
:102148009e089000ddf907000001be000800be00ef
:10215800f9f80700f0428800014388001e00be001d
:102168000004be0009f0a2000e0890009e0890002e
:102178000001be00f0f807000002be00604a8000bf
:10218800714a80000001be000400be00cbf90700c0
:102198000001be000800be00e6f8070010438800f2
:1021a80021438800604a8000714a80000001be0017
:1021b8000e0890009e089000c0f907003043880080
:1021c800414388004f04be000080fa00000006006a
:1021d8000400fa00889fbe00008fbe00f041800016
:1021e800014280001042880021428800d0418000ce
:1021f800e1418000f0418800014288001e01be00d4
:10220800d2418800e341880030428000414280008a
:102218005042880061428800d4418000e541800036
:10222800f0428000014380000001be000400be00af
:102238007cfa07000002be00504280006142800024
:102248000001be000400be00bbf807000004be0089
:10225800f441800005428000104380002143800043
:102268000001be000400be006efa07000001be00b7
:102278000800be00b0f807000004be001442800049
:102288002542800030438000414380000001be00a9
:102298000400be0063fa07000001be000800be008b
:1022a800a5f807003042880041428800304280008b
:1022b800414280004f04be000080fa000000060082
:1022c8000000fa00000e80000000a1000010a1002c
:1022d800000e8800000e80000020a1000030a10040
:1022e800000e8800000e80000040a1000050a100f0
:1022f8000060a1000070a100000e8800803e200050
:10230800200e8800c901a800c921a800c941a80059
:10231800ca41a800d521a800d501a800d561a80008
:10232800d541a800d5a1a800d581a800c1e1a80081
:102338000080fa00000006000600fa00008fbe00c8
:102348004247980002002000832c24001e00be0093
:10235800c50d0700008fbe0002002000832c2c0052
:102368001e00be00aa0d0700008fbe004e40900060
:102378000000fb00e20f50000e003200e20f500098
:1023880003003c00e10f5000060032001500370042
:10239800e30f50000b003200e40f50000d00320034
:1023a800100037001e01be000282880013828800d8
:1023b8000c0037001e01be008282880093828800cc
:1023c800080037001e01be00e2828800f382880000
:1023d800040037001e01be00228388003383880072
:1023e800000000000080fa00000006000600fa0065
:1023f800889fbe008a1f7800404798006000b80098
:10240800008fbe00a0818000630060000000e00033
:102418007d003a004e4090000080fb00e20f500023
:102428002d003200e20f500003003c00e10f500085
:1024380006003200c0023700e30f500049003200a6
:10244800e40f50006b003200bb02370000828000ae
:10245800118280004082880051828800408280007a
:102468005182800018c0b3006011b80057f9070006
:102478000000e00001003c000044eb000804e0001c
:1024880004003200c801a900cde2a800c881a80054
:1024980003003700c881a900cdc2a800c801a80060
:1024a8004082800051828000460d07000001be0076
:1024b80000002000812c24001ef8070002002000e4
:1024c800031a2400d7f9070063f907000000780011
:1024d800b00e8800980237008082800091828000c8
:1024e800c0828800d1828800c0828000d1828000aa
:1024f80018c0b3006011b80034f907000000e0000c
:1025080001003c000044eb000804e0000400320035
:10251800c8a1a900cd82a800c821a80003003700df
:10252800c821a900cda2a800c8a1a800c082800027
:10253800d1828000230d07000001be0000002000aa
:10254800812c2400fbf7070002002000031a240056
:10255800b4f9070040f9070000007800c00e8800b1
:1025680075023700e0828000f182800000838800d5
:1025780011838800008380001183800018c0b30095
:102588006011b80011f907000000e00001003c00ec
:102598000044eb000804e00004003200c8c1a900b0
:1025a800cd42a800c841a80003003700c841a900cf
:1025b800cd62a800c8c1a8000083800011838000f4
:1025c800000d07000001be0000002000812c24003f
:1025d800d8f7070002002000031a240091f9070029
:1025e8001df9070000007800d00e880000000000e8
:1025f80051023700208380003183800040838800a7
:10260800518388004c0237004e4090000080fb0048
:10261800e20f500006013200e20f500003003c00b8
:10262800e10f50000600320043023700e30f50006c
:10263800fd013200e40f50002c0232003e02370048
:10264800b181800000102000008060000000e000e0
:10265800830032002482800035828000008280005e
:102668001182800018c0b3000001be000400be0043
:10267800d4f807000000e000010035000044eb003a
:102688000804e0002f0032002082800031828000a0
:10269800cc0c07000004be0000828000118280007c
:1026a800c80c07001ac0b3000001be000800be0035
:1026b800c4f807000000e000010035000045eb0009
:1026c8000a04e0000a00320024828000358280007b
:1026d800c0818000d18180000001be000400be00de
:1026e80095f7070020828800318288000b003700a8
:1026f8002882800039828000c0818000d1818000da
:102708000001be008cf707000001be000800be00f3
:1027180089f70700208288003182880020828000a3
:102728003182800004828000158280000001be0092
:102738000400be00cc0c070020828800318288008b
:102748003b003700248280003582800000828000b0
:102758001182800018c0b3000001be000400be0052
:102768009af807000000e00001003c000044eb007c
:102778000804e0002e0032002082800031828000b0
:10278800900c07000004be000082800011828000c7
:102798008c0c07001ac0b3000001be000800be0080
:1027a80088f807000000e000010035000045eb0054
:1027b8000a04e0000a00320024828000358280008a
:1027c800c0818000d18180000001be000400be00ed
:1027d80058f7070020828800318288000b003700f4
:1027e8002882800039828000c0818000d1818000e9
:1027f8000001be0050f707000001be000800be003f
:102808004cf70700208288003182880020828000ef
:102818003182800004828000158280000001be00a1
:102828000400be007a0c07002082880031828800ec
:102838002882800039828000e0818000f181800058
:1028480002002000031224001cf807000001be004b
:102858000800be0037f70700008fbe000b003700e6
:102868000882800019828000e0818000f181800068
:10287800020020000312240010f807000001be0027
:102888000800be002bf70700008fbe001e00be0028
:10289800f60e07004082880051828800408280003e
:1028a8005182800002002000832c24006e0c070057
:1028b80040828800518288004082800051828000d6
:1028c80002002000832c2c00510c07004082880055
:1028d8005182880018c0b30002002000c3282400d9
:1028e8001e00be0039f807000000e00001003c00af
:1028f8000044eb000804e000100032002248800089
:102908003348800060488000714880000001510011
:1029180081815900401f200001002000800f5100d4
:10292800818f590023003600904a80000090a00053
:1029380000a0a100904a88001e00370018c0b3000c
:1029480002002000c3282c001e00be001df807004e
:102958000000e000010035000044eb000804e0003e
:102968001000320022488000334880006048800010
:10297800714880000001510081815900401f2000ea
:1029880001002000800f5100818f59000900360096
:10299800904a80000090a10000a0a000904a880002
:1029a80004003700204880003148800060488800d3
:1029b80071488800408280005182800018c0b300ae
:1029c8006011b80001f807000000e00001003c00b9
:1029d8000044eb000804e00004003200c801a9002c
:1029e800cde2a800c881a80003003700c881a9006b
:1029f800cdc2a800c801a800408280005182800092
:102a0800f00b07000001be0000002000812c24000c
:102a1800c8f6070002002000031a240081f8070006
:102a28000df8070000007800b00e8800420137005a
:102a3800b181800000102000008060000000e000ec
:102a480083003200a4828000b582800080828000ea
:102a58009182800018c0b3000001be000400be00cf
:102a6800d8f707000000e000010035000044eb0043
:102a78000804e0002f003200a0828000b1828000ac
:102a8800d00b07000004be00808280009182800085
:102a9800cc0b07001ac0b3000001be000800be003e
:102aa800c8f707000000e000010035000045eb0012
:102ab8000a04e0000a003200a4828000b582800087
:102ac800c0818000d18180000001be000400be00ea
:102ad80099f60700a0828800b18288000b003700b1
:102ae800a8828000b9828000c0818000d1818000e6
:102af8000001be0090f607000001be000800be00fd
:102b08008df60700a0828800b1828800a08280002c
:102b1800b182800084828000958280000001be001e
:102b28000400be00d00b0700a0828800b182880094
:102b38003b003700a4828000b5828000808280003c
:102b48009182800018c0b3000001be000400be00de
:102b58009ef707000000e00001003c000044eb0085
:102b68000804e0002e003200a0828000b1828000bc
:102b7800940b07000004be008082800091828000d0
:102b8800900b07001ac0b3000001be000800be0089
:102b98008cf707000000e000010035000045eb005d
:102ba8000a04e0000a003200a4828000b582800096
:102bb800c0818000d18180000001be000400be00f9
:102bc8005cf60700a0828800b18288000b003700fd
:102bd800a8828000b9828000c0818000d1818000f5
:102be8000001be0054f607000001be000800be0048
:102bf80050f60700a0828800b1828800a082800079
:102c0800b182800084828000958280000001be002d
:102c18000400be007e0b0700a0828800b1828800f5
:102c2800a8828000b9828000608280007182800062
:102c3800020020000312240020f707000001be0054
:102c48000800be003bf60700008fbe000b003700ef
:102c58008882800099828000608280007182800072
:102c6800020020000312240014f707000001be0030
:102c78000800be002ff60700008fbe001e00be0031
:102c8800360e0700c0828800d1828800c08280008a
:102c9800d182800002002000832c2400720b0700e0
:102ca800c0828800d1828800c0828000d1828000e2
:102cb80002002000832c2c00550b0700c0828800de
:102cc800d1828800c0828000d182800018c0b30001
:102cd80002002000c32824003cf707000000e000a1
:102ce80001003c000044eb000804e0001000320042
:102cf8002248800033488000804880009148800046
:102d08000001510081815900401f2000010020006e
:102d1800800f5100818f590024003600904a8000ae
:102d28000070a0000080a100904a88001f003700b2
:102d3800c0828000d182800018c0b3000200200049
:102d4800c3282c001ff707000000e0000100350031
:102d58000044eb000804e000100032002248800024
:102d6800334880008048800091488000000151006d
:102d780081815900401f200001002000800f510070
:102d8800818f590009003600904a80000070a10028
:102d98000080a000904a8800040037002048800086
:102da800314880008048880091488800c0828000af
:102db800d182800018c0b3006011b80003f7070083
:102dc8000000e00001003c000044eb000804e000c3
:102dd80004003200c8a1a900cd82a800c821a8001b
:102de80003003700c821a900cda2a800c8a1a800e7
:102df800c0828000d1828000f20a07000001be0074
:102e080000002000812c2400caf5070002002000e1
:102e1800031a240083f707000ff707000000780063
:102e2800c00e880044003700e0828000f1828000f4
:102e3800008388001183880000838000118380004c
:102e480002002000832c2400070b07000083880061
:102e58001183880000838000118380000200200015
:102e6800832c2c00ea0a070000838800118388005d
:102e7800008380001183800018c0b3006011b8007f
:102e8800d2f607000000e00001003c000044eb001f
:102e98000804e00004003200c8c1a900cd42a8001f
:102ea800c841a80003003700c841a900cd62a800a6
:102eb800c8c1a8000083800011838000c10a0700f0
:102ec8000001be0000002000812c240099f50700b5
:102ed80002002000031a240052f70700def607005c
:102ee80000007800d00e880013003700208380008f
:102ef80031838000408388005183880040838000ac
:102f08005183800002002000832c2400d60a070089
:102f1800408388005183880040838000518380006b
:102f280002002000832c2c00b90a07004083880087
:102f380051838800000000005249a8004f0578001e
:102f48004f04be000080fa00000006001200fa00dc
:102f58000000eb00000f7800204880003148800016
:102f68004808de00804078000e80e8001e0040001f
:102f7800014878001e0fe800204880003148800092
:102f88004008de00804078000e80e8001e00400007
:102f9800014878001e0fe800204880003148800072
:102fa8004809dd004800de0000007100c808de00a6
:102fb800804078000e80e8001e004000014878003c
:102fc8001e0fe800204880003148800080407800cb
:102fd8000e80e8001e004000014878001e0fe8003f
:102fe80000828000118280007af6070000007800d5
:102ff8004880de00804078000e80e8001e00400017
:10300800014878001e0fe8000082800011828000cd
:1030180070f6070000007800804078000e80e80015
:103028001e004000014878001e0fe800e081800083
:10303800f181800002002000031224001ff607001f
:1030480064f60700000078004880de0080407800c1
:103058000e80e8001e004000014878001e0fe800be
:10306800e0818000f181800002002000031224002a
:1030780012f6070057f60700000078008040780035
:103088000e80e8001e004000014878001e0fe8008e
:1030980040828000518280004ef6070000007800d0
:1030a8004880de00804078000e80e8001e00400066
:1030b800014878001e0fe80040828000518280009d
:1030c80044f6070000007800804078000e80e80091
:1030d8001e004000014878001e0fe8008082800032
:1030e800918280003bf60700000078004880de00ef
:1030f800804078000e80e8001e00400001487800fb
:103108001e0fe800808280009182800031f607005f
:1031180000007800804078000e80e8001e00400023
:10312800014878001e0fe8006082800071828000ec
:103138000200200003122400e0f5070025f607002e
:10314800000078004880de00804078000e80e800ab
:103158001e004000014878001e0fe80060828000d1
:10316800718280000200200003122400d3f50700ba
:1031780018f6070000007800804078000e80e8000c
:103188001e004000014878001e0fe800c082800041
:10319800d18280000ff60700000078004880de002a
:1031a800804078000e80e8001e004000014878004a
:1031b8001e0fe800c0828000d182800005f607005b
:1031c80000007800804078000e80e8001e00400073
:1031d800014878001e0fe8000e80e8000001780022
:1031e8009e007800200a20006c0407000080fa0086
:1031f800000006000000fa0005e1a90005a1a900e9
:1032080004c1a9000421a9008460a9009460a80051
:1032180000002000a13724003d00070005e1a800b8
:103228000080fa00000006003600f800809fbe000b
:10323800829fbe00849fbe00869fbe000400fa00e5
:103248008460a9008b020700a081800063006000f1
:10325800e20f50000e003a00f1f70700000f780067
:103268001e00780010007800cf80de0015f60700f9
:1032780012c0b30030fc07001e80e8001000780080
:10328800cf80de000ff6070022c0b3002afc07003b
:10329800a081800063006000e30f50000f003a0037
:1032a80044f90700100798001e00900010007800ed
:1032b800cf80de0003f6070012c0b3001efc070033
:1032c8001e0090000080e80010007800cf80de002b
:1032d800fcf5070022c0b30017fc070010c0b300bc
:1032e80042fc070020c0b30040fc070030c0b30018
:1032f8003efc07000080fa004f03be004f02be00ec
:103308004f01be004f00be003600f9000040060025
:103318000400fa00881f7800008fbe002008800093
:103328000040a1000050a100200888001e01be0036
:103338000068290081c1240060f5070018c0b300a7
:1033480002f02f00f3772400a0f507000000e0004a
:1033580001003c000044eb000804e0004d0032008e
:10336800200880000040a0000050a100200888002c
:103378001e01be000068290081c124004ff5070026
:1033880002002000031024004cf5070018c0b30009
:1033980002f02f00f37724008cf507000000e0000e
:1033a80001003c000044eb000804e0002e0032005d
:1033b800200880000040a1000050a00020088800dc
:1033c8001e01be000068290081c124003bf50700ea
:1033d800020020000328240038f5070018c0b300b5
:1033e80002f02f00f377240078f507000000e000d2
:1033f80001003c000044eb000804e0000f0032002c
:10340800200880000040a0000050a000200888008c
:103418001e01be000068290081c1240027f50700ad
:10342800020020000338240024f5070069f507008e
:1034380000007800100888001d0037001e01be003b
:103448000068290081c124001cf507000200200043
:103458000328240019f507005ef50700000078002e
:1034680010088800120037001e01be0000682900fd
:1034780081c1240011f50700020020000310240078
:103488000ef5070053f507000000780010088800c3
:10349800070037001e01be000068290081c1240012
:1034a80006f507004bf507000000780010088800b3
:1034b8004f0478000080fa00000006000000fa00bf
:1034c80011e1a90011a1a90010c1a9001021a900aa
:1034d80000002000011224000500070084e0a90074
:1034e80094e0a80011e1a8000080fa00000006009e
:1034f8000400fa00881f7800008fbe008008800052
:103508000040a1000050a100800888001e01be00f4
:103518000068290081c12400e8f4070018c0b3003e
:1035280002f02f00f377240028f507000000e000e0
:1035380001003c000044eb000804e0004d003200ac
:10354800800880000040a0000050a100800888008a
:103558001e01be000068290081c12400d7f40700bd
:103568000200200003102400d4f4070018c0b300a0
:1035780002f02f00f377240014f507000000e000a4
:1035880001003c000044eb000804e0002e0032007b
:10359800800880000040a1000050a000800888003a
:1035a8001e01be000068290081c12400c3f4070081
:1035b8000200200003282400c0f4070018c0b3004c
:1035c80002f02f00f377240000f507000000e00068
:1035d80001003c000044eb000804e0000f0032004a
:1035e800800880000040a0000050a00080088800eb
:1035f8001e01be000068290081c12400aff4070045
:103608000200200003382400acf40700f1f407009e
:1036180000007800600888001d0037001e01be0009
:103628000068290081c12400a4f4070002002000da
:1036380003282400a1f40700e6f40700000078003e
:1036480060088800120037001e01be0000682900cb
:1036580081c1240099f4070002002000031024000f
:1036680096f40700dbf40700000078006008880083
:10367800070037001e01be000068290081c1240030
:103688008ef40700d3f40700000078006008880073
:103698004f0478000080fa00000006000000fa00dd
:1036a80084e0a90052a9a8000080fa0000400600a2
:1036b8000000fa0013e1a90013a1a90012c1a90092
:1036c8001221a90000002400c161240005000700a0
:1036d8008500a9009500a80013e1a8000080fa0061
:1036e800000006000400fa00881f7800008fbe0062
:1036f800900880000040a1000050a10090088800b8
:103708001e01be000068290081c124006bf4070077
:1037180018c0b30002f02f00f3772400abf40700c1
:103728000000e00001003c000044eb000804e00059
:103738004d003200900880000040a0000050a10019
:10374800900888001e01be000068290081c124007d
:103758005af40700020020000310240057f4070061
:1037680018c0b30002f02f00f377240097f4070085
:103778000000e00001003c000044eb000804e00009
:103788002e003200900880000040a1000050a000e8
:10379800900888001e01be000068290081c124002d
:1037a80046f40700020020000328240043f4070021
:1037b80018c0b30002f02f00f377240083f4070049
:1037c8000000e00001003c000044eb000804e000b9
:1037d8000f003200900880000040a0000050a000b8
:1037e800900888001e01be000068290081c12400dd
:1037f80032f4070002002000033824002ff40700e9
:1038080074f4070000007800700888001d00370075
:103818001e01be000068290081c1240027f40700aa
:10382800020020000328240024f4070069f407009c
:103838000000780070088800120037001e01be00e2
:103848000068290081c124001cf407000200200040
:103858000310240019f407005ef407000000780044
:1038680070088800070037001e01be0000682900a4
:1038780081c1240011f4070056f407000000780005
:10388800700888004f0478000080fa0000000600e5
:103898003600f800809fbe00829fbe00849fbe0055
:1038a800869fbe000000fa008500a900d80d070019
:1038b800df0707000ac9bf000040e8000ae9b700af
:1038c8000ac9bf00e94f50000700360020488000b1
:1038d8003148800061004000e080480020488800ae
:1038e800314888000a69ef000080fa004f03be00e3
:1038f8004f02be004f01be004f00be003600f90067
:10390800004006000000fa001fe1a9001fa1a9005d
:103918001ec1a9001e21a9008760a9009760a80000
:1039280000002000a1472400030007001fe1a800b1
:103938000080fa00000006000400fa00881f7800e2
:10394800008fbe00f00880000040a1000050a100d8
:10395800f00888001e01be000068290081c124000b
:10396800d6f3070018c0b30002f02f00f377240045
:1039780016f407000000e00001003c000044eb00e2
:103988000804e0004d003200f00880000040a0006c
:103998000050a100f00888001e01be000068290040
:1039a80081c12400c5f30700020020000310240091
:1039b800c2f3070018c0b30002f02f00f377240009
:1039c80002f407000000e00001003c000044eb00a6
:1039d8000804e0002e003200f00880000040a1003a
:1039e8000050a000f00888001e01be0000682900f1
:1039f80081c12400b1f3070002002000032824003d
:103a0800aef3070018c0b30002f02f00f3772400cc
:103a1800eef307000000e00001003c000044eb006a
:103a28000804e0000f003200f00880000040a00009
:103a38000050a000f00888001e01be0000682900a0
:103a480081c124009df307000200200003382400f0
:103a58009af30700dff3070000007800d008880019
:103a68001d0037001e01be000068290081c1240026
:103a780092f3070002002000032824008ff30700b8
:103a8800d4f3070000007800d0088800120037003f
:103a98001e01be000068290081c1240087f30700c9
:103aa800020020000310240084f30700c9f3070074
:103ab80000007800d0088800070037001e01be000b
:103ac8000068290081c124007cf30700c1f30700c6
:103ad80000007800d00888004f0478000080fa00c1
:103ae800000006003600f800809fbe00829fbe00de
:103af800849fbe00869fbe000000fa008760a90070
:103b0800040507000080fa004f03be004f02be0004
:103b18004f01be004f00be003600f900004006000d
:103b28000000fa00000f80000080a1000090a100b2
:103b380000a0a100000f8800e1e1a900e0e1a900d0
:103b4800e0c1a900e041a900e421ef000080eb00fa
:103b5800300f8800000f80000080a0000090a000b7
:103b680000a0a000000f88008b40a9009b40a8007f
:103b78000080fa0000000600809fbe000000fa00e6
:103b88008b40a900010f80000080200000806000a9
:103b98000000e00004003200704580000000e800ea
:103ba8007045880003003700704580000000e90078
:103bb800704588000080fa004f00be0000400600f3
:103bc8000000fa00800f80000080a1000090a10092
:103bd80000a0a100800f8800f1e1a900f0e1a90090
:103be800f0c1a900f041a900f421ef000080eb002a
:103bf800b00f8800800f80000080a0000090a00017
:103c080000a0a000800f88008d60a9009d60a8001a
:103c1800c0458000cf80de00aaf30700d0458800a9
:103c2800e14588000080fa0000000600809fbe0081
:103c38000000fa008d60a900810f8000008020003c
:103c4800008060000000e00004003200c0458000f1
:103c58000000e800c045880003003700c045800028
:103c68000000e900c04588000080fa004f00be004f
:103c7800004006000000fa00889fbe0080458000d2
:103c880091458000a0458800b1458800d045800056
:103c9800e1458000f04588000146880070458000b5
:103ca800cf80de00c001dd0002002000200f800070
:103cb8008000eb00020040008380480081f3070089
:103cc8008045880091458800c0458000cf80de008f
:103cd800c001dd0002002000a00f80008000eb0082
:103ce800020040008380480076f30700d045880032
:103cf800e14588008045800091458000d25d2b0019
:103d080043c82300c7f30700804588009145880011
:103d1800d0458000e1458000d25d2b0043c82b00d0
:103d2800c0f30700d0458800e1458800844580003d
:103d380095458000a0458000b14580000001be0087
:103d48000400be00fbf1070018c0b3000200200009
:103d5800832c24001df307000000e00001003c0054
:103d68000044eb000804e00010003a00844580009d
:103d780095458000a0458000b14580000001be0047
:103d88000400be00ebf1070018c0b30002002000d9
:103d9800832c2c000bf307000000e0000100350025
:103da8000044eb000804e00004003200a045800055
:103db800b14580008045880091458800d445800041
:103dc800e5458000f0458000014680000001be0006
:103dd8000400be00d7f1070018c0b300020020009d
:103de800832c2400f9f207000000e00001003c00e9
:103df8000044eb000804e00010003a00d4458000bd
:103e0800e5458000f0458000014680000001be00c5
:103e18000400be00c7f1070018c0b300020020006c
:103e2800832c2c00e7f207000000e00001003500b9
:103e38000044eb000804e00004003200f045800074
:103e480001468000d0458800e1458800844580000f
:103e580095458000a0458000b14580000001be0066
:103e68000400be00b3f1070002002000a3372400bd
:103e78006cf30700e0818800f1818800d445800058
:103e8800e5458000f0458000014680000001be0045
:103e98000400be00a7f1070002002000a337240099
:103ea80060f3070060828800718288008445800082
:103eb80095458000a0458000b14580000001be0006
:103ec8000400be009bf107001046880021468800c8
:103ed800d4458000e5458000f0458000014680001b
:103ee8000001be000400be0092f1070030468800c1
:103ef80041468800144680002546800030468000f0
:103f0800414680000001be000400be0089f10700a0
:103f1800a2992900c338240068f2070000f20700bc
:103f28005046880061468800144680002546800077
:103f380030468000414680000001be000400be00fb
:103f48007df1070002002000030024005bf2070057
:103f5800704688008146880070468000814680004f
:103f680018c0b30002002000031f240097f20700c6
:103f78000000e00001003c000044eb000804e00001
:103f8800030032006000b80070468800814688004f
:103f9800b0838000c1838000f0838800018488009a
:103fa800d0838000e1838000108488002184880009
:103fb80030848000418480005084880061848800b7
:103fc800f883800009848000308480004184800068
:103fd800b1f307000002be0005f0a20070468000a1
:103fe800814680000001be000400be000df30700fa
:103ff8000001be000800be004ff10700b083880032
:10400800c18388001884800029848000308480005f
:104018004184800027f207000002be00704680003d
:10402800814680000001be000400be00fdf20700ca
:104038000001be000800be003ff10700d0838800e1
:10404800e1838800548480006584800050468000a5
:10405800614680000001be000400be0036f1070082
:104068003084880041848800308480004184800046
:1040780018c0b300b2fd20009304240053f20700d7
:104088000000e00001003c000044eb000804e000f0
:10409800070032003084800041848000b2fd200097
:1040a800930c240023f107003084880041848800a1
:1040b800308480004184800018c0b300b2fd200025
:1040c80093042c003ff207000000e00001003500d7
:1040d8000044eb000804e000070032003084800050
:1040e80041848000b2fd2000930c240012f10700e7
:1040f80030848800418488005209a8005229a80009
:104108004f04be000080fa00000006000000fa001c
:104118000001eb008000eb000000eb00020007004c
:104128000080fa00000006000600fa00000f780080
:104138001107980022079800ae28ef00b828ef0072
:10414800e421ef00f421ef006000b800a0458800ea
:10415800b14588006000b800f04588000146880035
:104168006000b80080458800914588006000b8006c
:10417800d0458800e14588001e007800cf80de0029
:1041880050f20700b0838800c18388001e009000a9
:10419800cf80de004bf20700d0838800e1838800df
:1041a8002e009000cf80de0046f20700e8060700e8
:1041b80030848800418488000080fa0000000600ee
:1041c8001200fa00881f78000000eb00000f78004a
:1041d80031003700310020001e84500080458000e7
:1041e80091458000fbf10700800078001e007800f0
:1041f8004300dd000088de008040780008004700aa
:1042080021409800710020001e845000d045800095
:10421800e1458000eff10700800078001e0078007b
:104228004300dd000088de00804078000800470079
:1042380021409800b10020001e845000e0818000d9
:10424800f1818000e3f10700800078001e0078000b
:104258004300dd000088de00804078000800470049
:1042680021409800f10020001e84500060828000e8
:1042780071828000d7f10700800078001e00780066
:104288004300dd000088de00804078000800470019
:10429800214098001e0fe8001e007800e30f500030
:1042a800ccff34000e80e8000001780001012000f6
:1042b80000062000390007004f0478000080fa004b
:1042c800000006000e00fa00881f78000000eb00ce
:1042d800000f780026003700310020001e845000af
:1042e800b0838000c1838000baf1070080007800a5
:1042f8001e0078004300dd000088de008040780062
:104308000800470021409800710020001e845000da
:10431800d0838000e1838000aef107008000780040
:104328001e0078004300dd000088de008040780031
:104338000800470021409800b10020001e8450006a
:10434800308480004184800076060700a1f10700d0
:10435800800078001e0078004300dd000088de0041
:104368008040780008004700214098001e0fe800b0
:104378001e007800e30f5000d7ff34000e80e800dd
:1043880000017800c100200010062000030007008b
:104398004f0478000080fa00000006000e00fa00c2
:1043a800889fbe0040079800510798006207980050
:1043b8000f0478000f007800800478005e009000f9
:1043c800660040008000e900210798000000e8002e
:1043d8000000e8000000d100800040000f007800d5
:1043e800818747000000e8000000d100000040007d
:1043f800300798000000eb00000f78000000eb0089
:10440800100798003e0090001e004000e1cfb30066
:10441800014878001e0fe8004e0090004880de003a
:10442800804078003e0090001e004000014878005f
:104438001e0fe8004e009000804078003e0090007b
:104448001e004000014878001e0fe8005e00900042
:104458004880de00804078003e0090001e0040004a
:10446800014878001e0fe8005e0090008040780048
:104478003e0090001e004000014878001e0fe80032
:104488000000eb00100798000b0037001e0090009a
:10449800ee00900000804000904078003e009000c0
:1044a8001e004000014878001e0fe8001e00900022
:1044b8000000e800100798009e0090005e00900041
:1044c800808f5000f1ff35006e019000de009000f3
:1044d8004e009000ec000700be0090009e80400057
:1044e800804878005e009000e60040003e009000a2
:1044f800440d070089077800880778004f04be003c
:104508000080fa00000006000400fa002047980026
:10451800e0c8bf000080fb00e30f5000220032001b
:10452800e30f500007003c00e10f5000120032007a
:10453800e10f500014003c000000e00008003200c9
:1045480059003700e50f500032003200e50f5000e7
:104558001c003500e60f50003f00320052003700c3
:104568002e409000e24f400052003a0010c0b300c5
:10457800e0e8b70052003700e168ef0020c0b30060
:10458800e0e8b7004e003700118e20009140780017
:104598002e40900000c04000e1e8b70030c0b300f2
:1045a800e0e8b700460037002e4090000080fb008e
:1045b8004800dd001047880040c0b300e0e8b700bd
:1045c8003f0037002e4090008080fb00104780009d
:1045d8000080400010478800114780000008200034
:1045e800808f500002003600e068ef00340037008a
:1045f800104780000000e00003003a0060c0b300ec
:10460800e0e8b7002e00370050c0b300e0e8b7007c
:104618002b003700e4c8bf000080fb00e1ca20007f
:104628002e41900082707800e4c8bf000040e80086
:10463800e4e8b700e4c8bf008080fb0010478000b2
:10464800808f50001d003a00e468ef0060c0b3009e
:10465800e0e8b7001a0037001047800080007800b3
:10466800e1c8bf000080fb00e2ca20008600070006
:10467800004f7800ae409000114798001e4090000f
:104688009e40780080cf500005003a001047800017
:1046980080407800e1c8bf00e2ca2000a4000700fb
:1046a800e068ef0006003700e068ef000000000057
:1046b8000300370000000000010037000000000080
:1046c8000080fa00000006000400fa002047980065
:1046d800e5c8bf000080fb00e30f50002200320055
:1046e800e30f500007003c00e10f500012003200b9
:1046f800e10f500014003c000000e0000800320008
:1047080059003700e50f500032003200e50f500025
:104718001c003500e60f50003f0032005200370001
:104728002e409000e24f400052003a0010c0b30003
:10473800e5e8b70052003700e668ef0020c0b30094
:10474800e5e8b7004e003700618e20009140780000
:104758002e40900000c04000e6e8b70030c0b3002b
:10476800e5e8b700460037002e4090000080fb00c7
:104778004800dd004047880040c0b300e5e8b700c6
:104788003f0037002e4090008080fb0040478000ab
:104798000080400040478800414780000008200012
:1047a800808f500002003600e568ef0034003700c3
:1047b800404780000000e00003003a0060c0b300fa
:1047c800e5e8b7002e00370050c0b300e5e8b700b1
:1047d8002b003700eac8bf000080fb00e1d22000b0
:1047e8002e41900082707800eac8bf000040e800bf
:1047f800eae8b700eac8bf008080fb0040478000b5
:10480800808f50001d003a00ea68ef0060c0b300d6
:10481800e5e8b7001a0037004047800080007800bc
:10482800e6c8bf000080fb00e2d2200016000700a7
:10483800004f7800ae409000114798001e4090004d
:104848009e40780080cf500005003a004047800025
:1048580080407800e6c8bf00e2d22000340007009c
:10486800e568ef0006003700e568ef00000000008b
:1048780003003700000000000100370000000000be
:104888000080fa00000006000a00fa0020079800dd
:1048980031079800420798000040eb00004f78006d
:1048a8000000eb0010079800e0cfb3001e4f68002f
:1048b8002e0090004880de00004078001e4f6800ff
:1048c8002e009000004078001e4f68003e009000c7
:1048d8004880de00004078001e4f68003e009000cf
:1048e800004078001e4f68000000eb001007980099
:1048f800080037001e009000ce00900000804000a5
:10490800104078001e4f68001e0090000000e8006c
:10491800100798009e0090003e009000808f500085
:10492800f4ff35001e4078000080fa000000060001
:104938001000fa00404f9800514f980072079800f5
:104948004e4890000080fb0021062000810f500097
:104958001f00320021062000810f50000a003c0091
:1049680021052000810f500015003200310520007c
:10497800810f50004300320011052000810f5000c4
:104988000b0032009400370021092000810f5000ed
:1049980077003200010a2000810f500050003200d9
:1049a80011072000810f5000690032008a0037008b
:1049b8007e009000104078009002070086003700c3
:1049c8007e009000104078007c02070082003700cb
:1049d8005e489000e64f500076003a000000eb0079
:1049e800000f78000000eb00100798000000eb00b3
:1049f800200798007e009000104078000080fb009f
:104a0800c800dd007e0090000000e800104078003b
:104a18000080fb00008f40007e0090000080e800ce
:104a2800104078000080fb00c800dd007e00900088
:104a380063004000104078000080fb0000804000c8
:104a4800100798007e009000640040001040780035
:104a58000080fb00c800dd007e009000650040007b
:104a6800104078000080fb0000804000200798007c
:104a78002e0190009e0090001e007800aafd0700fd
:104a8800550037005e489000e24f50004b003a0056
:104a9800a08180000000a0000010a100a081880073
:104aa8007e009000104078000080fb008000eb0042
:104ab80007f0070012c0b3001ff607007e00900041
:104ac8000000e800104078000080fb008000eb0048
:104ad800ffef070022c0b30017f607003e003700bb
:104ae8005e489000e44f500036003a007e00900087
:104af800104078000080fb00c800dd007e009000b8
:104b08000000e800104078000080fb0000804000b2
:104b1800300798007e0090000080e8001040780080
:104b28000080fb00c800dd007e00900063004000ac
:104b3800104078000080fb0000804000400798008b
:104b4800ce0090003e009000930e07002200370030
:104b58005e489000e14f50001c003a007e00900033
:104b68009040780040072100014878001a0037007b
:104b78005e489000ea4f500016003a007e00900010
:104b88006d004000104078000080fb00c800dd0088
:104b98007e0090006e004000104078000080fb000e
:104ba8000080400050079800de0090009184880043
:104bb800090037000000000007003700000000006f
:104bc8000500370000000000030037000000000067
:104bd80001003700000000000080fa000000060015
:104be8000800fa00b10e0700b60d070081f90700aa
:104bf80032fa0700aefa070042fb0700b0f50700db
:104c0800e30c0700210d0700c5fb0700ecfb0700bc
:104c180000020700ce0e07007b0707009d0607006d
:104c2800f868ef00d2cc2c00c3d423000000200089
:104c3800010424007a050700000020000112240066
:104c4800b0848800c184880000002000a14f24009f
:104c580010858800218588000000200001182400a4
:104c6800d0848800e184880000002000f14a2400f4
:104c7800f084880001858800f026210031c02300d7
:104c880051f40700a0702d0031c22300c7f40700bb
:104c9800d0cc2c00c1ec2300c0818800d1818800d1
:104ca800b08180000080a000b0818800c4e2a90023
:104cb800c522a900c542a9000000eb00000f78003a
:104cc8000000eb00100798000000eb002007980098
:104cd8000000eb0030079800c522a900e702070092
:104ce800e14f500006003a00ca010700009020007a
:104cf800d1032000b70e070066060700db02070095
:104d08005116800000042000008060000000e000d0
:104d180006003a0051168000000220000080600062
:104d28000000e00001003a0053c9a80050168000b6
:104d3800700060000000e0000100320053e9a800a4
:104d4800914a800000002400008060000000e0001c
:104d580003003200c542a80053c9a900010037006a
:104d6800c542a90010168000700060000000e00035
:104d780001003a00f868ef0066000700904a8000da
:104d8800610060000000e0000c0032005209a90038
:104d980010c0b3009e007800f88f500001003c005e
:104da8000040eb001e0fe8000004e00003003200a2
:104db80003fd07000000eb00000f7800904a800018
:104dc800620060000000e0000e0032005229a900d5
:104dd80010c0b3009e009000f88f500001003c0006
:104de8000040eb009e0090008100e8001107980049
:104df8000004e0000300320032fd07000000eb0071
:104e080010079800904a8000640060000000e000ed
:104e18000e0032005249a90010c0b300be00900035
:104e2800f88f500001003c000040eb00be009000ed
:104e38008100e800310798000004e0000300320018
:104e480042f807000000eb0030079800904a800005
:104e5800680060000000e0000e0032005269a900fe
:104e680010c0b300ae009000f88f500001003c0065
:104e78000040eb00ae0090008100e8002107980098
:104e88000004e00003003200b5f207000000eb0068
:104e980020079800914a80000002200000806000ee
:104ea8000000e0000300320052a9a900280607000c
:104eb80082060700914a80000000280000806000f8
:104ec8000000e00005003200e0c0b300f8e8b700d9
:104ed800c4e2a80053e9a90004003700c4e2a9000d
:104ee800020037004c0a070087fd07005e0a07002a
:104ef8000004e000fbff3a0002003700cc0b07007b
:104f0800f1fd0700da0b07000004e000fbff3a00a0
:104f180071ff37000400fa00889fbe008a1f7800de
:104f2800f8c8bf000080fb00cf80de00f200200040
:104f380003002000820f5000838f58008d003e0030
:104f4800006001000f003700160037001c00370012
:104f58001e003700570037005c0037005d0037003f
:104f680062003700630037006800370081003700af
:104f7800800037007f0037007e003700650037006b
:104f88006e0037008040eb000040eb00b30d0700d7
:104f980010c0b300f8e8b70053e9a90053c9a90045
:104fa80052a9a90010168000700060000000e000ff
:104fb8007300320020c0b300f8e8b7007300370070
:104fc80030c0b300f8e8b700700037009084800064
:104fd800cf80de00bbee0700530207007dee07001e
:104fe800000f7800308580006300b9000000780069
:104ff8006a0050008000eb00b5ee07000001be001b
:1050080000002000c1282400970207000001be000c
:1050180000002000011224007d0207006dee070049
:10502800204798002e4090000000fb00cf80de0053
:10503800a4ee07000004be001e007800cf80de004a
:10504800a0ee07000200200003f02300f5ee0700a1
:105058000001be000800be0037ed07005dee070046
:10506800004578002e4090000000fb00cf80de0055
:1050780094ee07000004be001e007800cf80de001a
:1050880090ee07000200200003f02300e5ee070081
:105098000001be000800be0026ed07004dee070027
:1050a800004078008a4078006c0d07003b0007003c
:1050b80036003700e1c1b3000040eb00670d070080
:1050c80050c0b300f8e8b7003000370033000700dd
:1050d8002e0037008040eb00e0c1b3005f0d0700f1
:1050e80070c0b300f8e8b700280037002b000700ad
:1050f80026003700e1c1b30020ceb300570d0700ea
:1051080090c0b300f8e8b70020003700230007007c
:105118001e00370021ceb30020ceb3004f0d07008c
:10512800f0c0b300f8e8b70020488000314880009c
:10513800f0478800014888001400370022488000a2
:1051480033488000f047800001488000000151008a
:1051580081815900401f200001002000800f51006c
:10516800818f59000800360020c0b300f8e8b70066
:1051780006003700f868ef00000000000300370061
:105188000000000001003700000000004f05780013
:105198004f04be000080fa00000006000200fa007a
:1051a8000040eb00004f780050858000fd0f500054
:1051b80009003e0030858000fe0f500006003600d2
:1051c80040858000fe0f50000300360020c0b30069
:1051d800004f78001d00370050858000fe0f5000fa
:1051e8000900360030858000fe0f500006003600aa
:1051f80040858000fd0f500003003e0010c0b30042
:10520800004f78001100370030858000fd0f5000f6
:1052180003003e0030c0b300004f78000b00370099
:1052280050858000fe0f5000080036003085800051
:10523800fe0f50000500360040858000fe0f50002c
:10524800020036000040eb00004f78001e40780056
:105258000004e00003003a0020c0b300f9e8b700fa
:10526800110037001e407800e24f500003003a005a
:1052780040c0b300f9e8b7000b0037001e407800c3
:10528800e14f500003003a0060c0b300f9e8b700ee
:10529800050037001e407800e34f500002003a0036
:1052a80080c0b300f9e8b700f9c8bf008080fb00f0
:1052b800f8c8bf000080fb000000e900808f5000a4
:1052c80002003200f9c8bf00f8e8b7000080fa0011
:1052d800000006000c00fa000040eb00004f7800c8
:1052e8000000eb0010079800120037001e81fb0039
:1052f80020488000314880009e019000c319dd00dd
:10530800030278000402e900030033008100d100a1
:105318000080d300fbff3700804078000200470080
:10532800414098001e4fe8001e0090000000e80071
:10533800100798001e009000e30f5000ebff3400a8
:105348001e80fb00818f20009140780000004700fc
:10535800414098001e4fe8001e80fb0061032100b9
:105368009140780000004700414098001e4fe80037
:105378001e80fb0061032100914078000000470077
:10538800414098001e4fe8001e80fb006103210089
:105398009140780000004700414098001e4fe80007
:1053a800640047000001780051002000000520003b
:1053b800fafb07000080fa00000006000200fa006d
:1053c800004f78001e80fb000000ea004f00de005e
:1053d80000407800fde8b700fdc8bf000004e00009
:1053e800040032000040eb00040007000429ef002d
:1053f8000629ef000080fa00000006000200fa000b
:10540800004f78001e407800f8e8b7000080fa00e6
:10541800000006000000fa00901820002010880004
:1054280070e7a90007e2a900c8a2a900c8c2a9009c
:10543800cca2a900ccc2a900803e20000100200017
:10544800e40c0700cca2a800ccc2a80007a2a800c0
:105458000782a8000762a9000742a9000722a9003d
:105468000702a90006e2a90006c2a90006a2a9002f
:1054780007e2a8009620a9009600a90003010700ea
:105488000080fa00000006000800fa002047980093
:1054980031479800220798003307980007e2a800d0
:1054a800fa0007000602a800e70007000000000055
:1054b80030108000610060000000e000040032004d
:1054c800414a8000703e2000808f5000f8ff36006f
:1054d800414a8000703e2000808f50000100360055
:1054e800dd000700ae409000e0cfb30000c06000d0
:1054f800720007003e409000700007000622a800d6
:10550800d100070000000000301080006200600039
:105518000000e00004003200414a8000703e200094
:10552800808f5000f8ff3600414a8000703e20000e
:10553800808f500001003600c70007002e40900001
:105548000004a0005d0007000000eb00000f7800d9
:10555800120037009e0078003e0090000000e9002d
:10556800808f5000050032000000eb007800070033
:10557800ae0090008048780004003700100020003a
:1055880073000700ae009000804878002e0090005d
:105598000000e800200798001e0fe8009e00780031
:1055a8003e009000808f5000eaff39000642a800b4
:1055b800a5000700000000003010800064006000b3
:1055c8000000e00004003200414a8000703e2000e4
:1055d800808f5000f8ff3600414a8000703e20005e
:1055e800808f5000010036009b000700a7000700cd
:1055f8000080fa00000006000400fa00004f78005e
:10560800114798002247980007e2a8009f0007006a
:105618000602a8008c00070000000000301080007f
:10562800610060000000e00004003200414a800090
:10563800703e2000808f5000f8ff3600414a8000fd
:10564800703e2000808f5000010036008200070065
:10565800e0cfb3001e406000180007001e40900015
:10566800160007002e409000140007000642a8000c
:105678007500070000000000301080006400600022
:105688000000e00004003200414a8000703e200023
:10569800808f5000f8ff3600414a8000703e20009d
:1056a800808f5000010036006b000700770007006c
:1056b8000040eb000080fa00000006000200fa003b
:1056c800004f78001e80fb00101088005e00070065
:1056d8000000000040108000610060000000e00051
:1056e80004003200414a8000703e2000808f500044
:1056f800f8ff3600414a8000703e2000808f50003d
:1057080001003600540007004f00070000000000a9
:105718004110800000002400008060000000e000cc
:1057280004003200414a8000703e2000808f500003
:10573800f7ff3600414a8000703e2000808f5000fd
:1057480001003600440007000080fa00000006004f
:105758000400fa0010079800003a80004500de00b7
:1057680061406000004f7800480007000662a8000a
:105778003500070000000000401080006200600053
:105788000000e00004003a00414a8000703e20001a
:10579800808f5000f8ff3600414a8000703e20009c
:1057a800808f5000010036002b0007000010800099
:1057b80010479800350007001e0090000040780050
:1057c800614060000080fb00610060004500dd0072
:1057d80032108000f1fd2f0081006100010070008f
:1057e800301088000682a80017000700000000009b
:1057f80030108000700060000000e00004003200fb
:10580800414a8000703e2000808f5000f8ff36002b
:10581800414a8000703e2000808f50000100360011
:105828000d0007001e4090000080fa0000000600ee
:105838000000fa00404a80000000e800404a880062
:105848000080fa00000006000000fa004829ef0076
:105858000080fa00000006000000fa0010c0b30043
:105868004ae9b7000080fa00000006000000fa00cc
:105878004a69ef000080fa00000006000000fa0004
:105888004ac9bf000080fa00000006000000fa00c4
:10589800edff07000000000030108000610060008c
:1058a8000000e00015003a0030108000640060003d
:1058b8000000e00011003a0030108000680060002d
:1058c8000000e0000d003a00301080006200600027
:1058d8000000e00009003a0030108000700060000d
:1058e8000000e00005003a0041108000000024009c
:1058f800008060000000e00004003200414a80009f
:10590800703e2000808f5000e3ff3600414a80003f
:10591800703e2000808f500001003600ceff070047
:105928000080fa00000006000400fa00881f7800d2
:10593800008fbe000500370002002000433b240012
:105948001e00be00fbea0700008fbe0018c0b300af
:1059580002002000433324001e00be001bec070099
:105968000000e00001003c000044eb000804e000f7
:10597800f1ff3a000500370002002000433b2400f5
:105988001e00be00ecea0700008fbe0018c0b3007e
:105998000200200043332c001e00be0009ec070063
:1059a8000000e000010035000044eb000804e000be
:1059b800f1ff3a001e00be004f0478000080fa0094
:1059c800000006000400fa00881f7800008fbe005f
:1059d80018c0b3006011b8001e00be00fbeb070042
:1059e8000000e00001003d000044eb000804e00076
:1059f800020032001e00be00020037001e00be007a
:105a080001f0a2004f0478000080fa0000000600b0
:105a18000800fa00881f7800008fbe00220798004f
:105a28003307980018c0b3002e019000be01900003
:105a38001e00be00e5eb07000000e00001003c008e
:105a48000044eb000804e000020032001e00be0023
:105a5800020037002e009000be0090004f0478002e
:105a68000080fa00000006000800fa00881f78008d
:105a7800008fbe00220798003307980018c0b300b3
:105a88002e019000be0190001e00be00cdeb070065
:105a98000000e000010035000044eb000804e000cd
:105aa800020032001e00be00020037002e009000e7
:105ab800be0090004f0478000080fa000000060045
